001002100010   5001010352123   061    4002129ALA AGRL AND MECH COLLEGE00100200100014 *   00045800000000058500000000104300104300104300000000000000000000101               1
001002100010   5001010352123   061    4002129ALA AGRL AND MECH COLLEGE00100200100024 *   00037500000000051200000000088700088700088700000000000000000000101               1
001002100010   5001010352123   061    4002129ALA AGRL AND MECH COLLEGE00100200100034 *   00083300000000109700000000193000193000193000000000000000000000101               1
001002100010   5001010352123   061    4002129ALA AGRL AND MECH COLLEGE00100200100044 *   00000000003700000000011200014900007400005000000000000000000000101               1
001002100010   5001010352123   061    4002129ALA AGRL AND MECH COLLEGE00100200100064 *   00003000024800003700018400049900028300021100000000000000000000101               1
001002100010   5001010352123   061    4002129ALA AGRL AND MECH COLLEGE00100200100074 *   00086300028500113400029600257800228700219100000000000000000000101               1
001002100010   5001010352123   061    4002129ALA AGRL AND MECH COLLEGE00100200100104 *   00000000009400000000008100017500008700005800000000000000000000101               1
001002100010   5001010352123   061    4002129ALA AGRL AND MECH COLLEGE00100200100114 *   00000000009400000000008100017500008700005800000000000000000000101               1
001002100010   5001010352123   061    4002129ALA AGRL AND MECH COLLEGE00100200100124 *   00086300037900113400037700275300237400224900000000000000000000101               1
001002100010   5001010352123   061    4002129ALA AGRL AND MECH COLLEGE00100200100134 *   00024600000000032100000000056700056700056700000000000000000000101               1
001002100010   5001010352123   061    4002129ALA AGRL AND MECH COLLEGE00100200100184 *   00086300037900113400037700275300237400224900000000000000000000101               1
001003100020   5001310351233   032    2000282ALABAMA CHRISTIAN COLLEGE00100300100014 *   00014900002600010200000500028200026100026100000000000000000000202               1
001003100020   5001310351233   032    2000282ALABAMA CHRISTIAN COLLEGE00100300100034 *   00014900002600010200000500028200026100026100000000000000000000202               1
001003100020   5001310351233   032    2000282ALABAMA CHRISTIAN COLLEGE00100300100074 *   00014900002600010200000500028200026100026100000000000000000000204               1
001003100020   5001310351233   032    2000282ALABAMA CHRISTIAN COLLEGE00100300100124 *   00014900002600010200000500028200026100026100000000000000000000204               1
001003100020   5001310351233   032    2000282ALABAMA CHRISTIAN COLLEGE00100300100134 *   00007400001600005000000500014500012700013100000000000000000000202               1
001003100020   5001310351233   032    2000282ALABAMA CHRISTIAN COLLEGE00100300100184 *   00014900002600010200000500028200026100026100000000000000000000204               1
001004100510   5002010351123   061    4002454UNIVERSITY OF MONTEVALLO 00100400100014 *   00054600001300077900001600135400000000133500000000000000000000202               1
001004100510   5002010351123   061    4002454UNIVERSITY OF MONTEVALLO 00100400100024 *   00032100001500046300002700082600000000079800000000000000000000202               1
001004100510   5002010351123   061    4002454UNIVERSITY OF MONTEVALLO 00100400100034 *   00086700002800124200004300218000000000213300000000000000000000202               1
001004100510   5002010351123   061    4002454UNIVERSITY OF MONTEVALLO 00100400100044 *   00000700000400000200000900002200000000001300000000000000000000202               1
001004100510   5002010351123   061    4002454UNIVERSITY OF MONTEVALLO 00100400100064 *   00000200009500000000013800023500000000008000000000000000000000202               1
001004100510   5002010351123   061    4002454UNIVERSITY OF MONTEVALLO 00100400100074 *   00087600012700124400019000243700000000222600000000000000000000202               1
001004100510   5002010351123   061    4002454UNIVERSITY OF MONTEVALLO 00100400100124 *   00087600012700124400019000243700000000222600000000000000000000202               1
001004100510   5002010351123   061    4002454UNIVERSITY OF MONTEVALLO 00100400100134 *   00027400000400042100000400070300000000069800000000000000000000202               1
001004100510   5002010351123   061    4002454UNIVERSITY OF MONTEVALLO 00100400100184 *   00087600012700124400019000243700000000222600000000000000000000202               1
001005100030   5004010352123   061    5002524ALABAMA STATE UNIVERSITY 00100500100014 *   00058200001900075700003400139200138200135700000000000000000000202               1
001005100030   5004010352123   061    5002524ALABAMA STATE UNIVERSITY 00100500100024 *   00028600005700043500012000089800078700078000000000000000000000202               1
001005100030   5004010352123   061    5002524ALABAMA STATE UNIVERSITY 00100500100034 *   00086800007600119200015400229000216900213700000000000000000000202               1
001005100030   5004010352123   061    5002524ALABAMA STATE UNIVERSITY 00100500100064 *   00000700007100000900014700023400008600008900000000000000000000202               1
001005100030   5004010352123   061    5002524ALABAMA STATE UNIVERSITY 00100500100074 *   00087500014700120100030100252400225500222500000000000000000000202               1
001005100030   5004010352123   061    5002524ALABAMA STATE UNIVERSITY 00100500100124 *   00087500014700120100030100252400225500222500000000000000000000202               1
001005100030   5004010352123   061    5002524ALABAMA STATE UNIVERSITY 00100500100134 *   00021500000000025700000000047200047200047200000000000000000000202               1
001005100030   5004010352123   061    5002524ALABAMA STATE UNIVERSITY 00100500100184 *   00087500014700120100030100252400225500222500000000000000000000202               1
001007100050   5001510351133   032    4001113ALEXANDER CITY STATE JC  00100700100014 * * 00057500012400021500005300096700089700084900000000000000000000101               1
001007100050   5001510351133   032    4001113ALEXANDER CITY STATE JC  00100700100034 * * 00057500012400021500005300096700089700084900000000000000000000101               1
001007100050   5001510351133   032    4001113ALEXANDER CITY STATE JC  00100700100074 * * 00057500012400021500005300096700089700084900000000000000000000101               1
001007100050   5001510351133   032    4001113ALEXANDER CITY STATE JC  00100700100124 * * 00057500012400021500005300096700089700084900000000000000000000102               1
001007100050   5001510351133   032    4001113ALEXANDER CITY STATE JC  00100700100134 * * 00032200004400010100003400050100047300044900000000000000000000101               1
001007100050   5001510351133   032    4001113ALEXANDER CITY STATE JC  00100700100144 * * 00000800004600006700002500014600012300009900000000000000000000101               1
001007100050   5001510351133   032    4001113ALEXANDER CITY STATE JC  00100700100164 * * 00000800004600006700002500014600012300009900000000000000000000101               1
001007100050   5001510351133   032    4001113ALEXANDER CITY STATE JC  00100700100174 * * 00000600004200004000001200010000008900006400000000000000000000101               1
001007100050   5001510351133   032    4001113ALEXANDER CITY STATE JC  00100700100184 * * 00058300017000028200007800111300102000094800000000000000000000101               1
001008100060   5005010351223   061    4001077ATHENS COLLEGE           00100800100014 *   00025800004800008600001600040800036500036500000000000000000000101               1
001008100060   5005010351223   061    4001077ATHENS COLLEGE           00100800100024 *   00027800010900011600006900057200045300045300000000000000000000101               1
001008100060   5005010351223   061    4001077ATHENS COLLEGE           00100800100034 *   00053600015700020200008500098000081800081900000000000000000000101               1
001008100060   5005010351223   061    4001077ATHENS COLLEGE           00100800100044 *   00000000003600000000002000005600002000001900000000000000000000101               1
001008100060   5005010351223   061    4001077ATHENS COLLEGE           00100800100064 *   00000000004000000000000100004100001900001400000000000000000000101               1
001008100060   5005010351223   061    4001077ATHENS COLLEGE           00100800100074 *   00053600023300020200010600107700084700085100000000000000000000101               1
001008100060   5005010351223   061    4001077ATHENS COLLEGE           00100800100124 *   00053600023300020200010600107700084700085100000000000000000000101               1
001008100060   5005010351223   061    4001077ATHENS COLLEGE           00100800100134 *   00014900001000004600002100022600020500020500000000000000000000101               1
001008100060   5005010351223   061    4001077ATHENS COLLEGE           00100800100184 *   00053600023300020200010600107700084700085100000000000000000000101               1
001009100080A016003010351113   082    7014225AUBURN U MAIN CAMPUS     00100900100014 *   00364100032100217700013700627600608500597100000000000000000000202               1
001009100080A016003010351113   082    7014225AUBURN U MAIN CAMPUS     00100900100024 *   00380800030800185800017100614500594500582600000000000000000000202               1
001009100080A016003010351113   082    7014225AUBURN U MAIN CAMPUS     00100900100034 *   00744900062900403500030801242101203001179600000000000000000000202               1
001009100080A016003010351113   082    7014225AUBURN U MAIN CAMPUS     00100900100054 *   00038200000000001700000000039900039900039900000000000000000000202               1
001009100080A016003010351113   082    7014225AUBURN U MAIN CAMPUS     00100900100064 *   00046400049500019800025200140900109800091100000000000000000000202               1
001009100080A016003010351113   082    7014225AUBURN U MAIN CAMPUS     00100900100074 *   00829500112400425000056001422901352701310600000000000000000000202               1
001009100080A016003010351113   082    7014225AUBURN U MAIN CAMPUS     00100900100124 *   00829500112400425000056001422901352701310600000000000000000000202               1
001009100080A016003010351113   082    7014225AUBURN U MAIN CAMPUS     00100900100134 *   00122500006100074800004000207400203200200700000000000000000000202               1
001009100080A016003010351113   082    7014225AUBURN U MAIN CAMPUS     00100900100184 *   00829500112400425000056001422901352701310600000000000000000000202               1
001012100100   5006010351223   064    4001040BIRMINGHAM STHN COLLEGE  00101200100014 *   00028900000100028100000900058000057300057300000000000000000000202               1
001012100100   5006010351223   064    4001040BIRMINGHAM STHN COLLEGE  00101200100024 *   00024300000400020400000900046000045100045100000000000000000000202               1
001012100100   5006010351223   064    4001040BIRMINGHAM STHN COLLEGE  00101200100034 *   00053200000500048500001800104000102400102500000000000000000000202               1
001012100100   5006010351223   064    4001040BIRMINGHAM STHN COLLEGE  00101200100074 *   00053200000500048500001800104000102400102500000000000000000000202               1
001012100100   5006010351223   064    4001040BIRMINGHAM STHN COLLEGE  00101200100124 *   00053200000500048500001800104000102400102500000000000000000000202               1
001012100100   5006010351223   064    4001040BIRMINGHAM STHN COLLEGE  00101200100134 *   00013000000000015900000000028900028900028900000000000000000000202               1
001012100100   5006010351223   064    4001040BIRMINGHAM STHN COLLEGE  00101200100184 *   00053200000500048500001800104000102400102500000000000000000000202               1
001013100200   5011710351133   032    4002087JOHN C CALHOUN ST TECH JC00101300100014 *   00072500025100029000007700134300124400112400000000000000000000101               1
001013100200   5011710351133   032    4002087JOHN C CALHOUN ST TECH JC00101300100034 *   00072500025100029000007700134300124400112400000000000000000000101               1
001013100200   5011710351133   032    4002087JOHN C CALHOUN ST TECH JC00101300100074 *   00072500025100029000007700134300124400112400000000000000000000101               1
001013100200   5011710351133   032    4002087JOHN C CALHOUN ST TECH JC00101300100124 *   00072500025100029000007700134300124400112400000000000000000000101               1
001013100200   5011710351133   032    4002087JOHN C CALHOUN ST TECH JC00101300100134 *   00028000012000020200001800062000048700052800000000000000000000101               1
001013100200   5011710351133   032    4002087JOHN C CALHOUN ST TECH JC00101300100144 *   00019100014500030300010500074400065000057700000000000000000000101               1
001013100200   5011710351133   032    4002087JOHN C CALHOUN ST TECH JC00101300100164 *   00019100014500030300010500074400065000057700000000000000000000101               1
001013100200   5011710351133   032    4002087JOHN C CALHOUN ST TECH JC00101300100174 *   00010000002400005000006700024100018500018000000000000000000000101               1
001013100200   5011710351133   032    4002087JOHN C CALHOUN ST TECH JC00101300100184 *   00091600039600059300018200208700189400170200000000000000000000101               1
001014100110   5007010352223   041    2000224DANIEL PAYNE COLLEGE     00101400100014 *   00002400000000004100000000006500006500006500000000000000000000202               1
001014100110   5007010352223   041    2000224DANIEL PAYNE COLLEGE     00101400100024 *   00003700000000009300000000013000013000013000000000000000000000202               1
001014100110   5007010352223   041    2000224DANIEL PAYNE COLLEGE     00101400100034 *   00006100000000013400000000019500019500019500000000000000000000202               1
001014100110   5007010352223   041    2000224DANIEL PAYNE COLLEGE     00101400100074 *   00006100000000013400000000019500019500019500000000000000000000202               1
001014100110   5007010352223   041    2000224DANIEL PAYNE COLLEGE     00101400100124 *   00006100000000013400000000019500019500019500000000000000000000202               1
001014100110   5007010352223   041    2000224DANIEL PAYNE COLLEGE     00101400100134 *   00003300000000002800000000006100006100006100000000000000000000202               1
001014100110   5007010352223   041    2000224DANIEL PAYNE COLLEGE     00101400100184 *   00006100000000013400000000019500019500019500000000000000000000202               1
001015100120   5008810351133   032    4001389ENTERPRISE ST JR COLLEGE 00101500100014 *   00040500030400029800038200138900102800093200000000000000000000101               1
001015100120   5008810351133   032    4001389ENTERPRISE ST JR COLLEGE 00101500100034 *   00040500030400029800038200138900102800093200000000000000000000101               1
001015100120   5008810351133   032    4001389ENTERPRISE ST JR COLLEGE 00101500100074 *   00040500030400029800038200138900102800093200000000000000000000101               1
001015100120   5008810351133   032    4001389ENTERPRISE ST JR COLLEGE 00101500100124 *   00040500030400029800038200138900102800093200000000000000000000101               1
001015100120   5008810351133   032    4001389ENTERPRISE ST JR COLLEGE 00101500100134 *   00024900007100017800007000056800043900047400000000000000000000101               1
001015100120   5008810351133   032    4001389ENTERPRISE ST JR COLLEGE 00101500100184 *   00040500030400029800038200138900102800093200000000000000000000101               1
001016100130   5008010351123   061    5002844FLORENCE STATE UNIVERSITY00101600100014 *   00095700005700084900005100191400184200184200000000000000000000204               1
001016100130   5008010351123   061    5002844FLORENCE STATE UNIVERSITY00101600100024 *   00051400003300050300003500108500104100104000000000000000000000202               1
001016100130   5008010351123   061    5002844FLORENCE STATE UNIVERSITY00101600100034 *   00147100009000135200008600299900288200288200000000000000000000204               1
001016100130   5008010351123   061    5002844FLORENCE STATE UNIVERSITY00101600100044 *   00001100005100000700005100012000005200005200000000000000000000202               1
001016100130   5008010351123   061    5002844FLORENCE STATE UNIVERSITY00101600100064 *   00000100003800000300007300011500004100004100000000000000000000202               1
001016100130   5008010351123   061    5002844FLORENCE STATE UNIVERSITY00101600100074 *   00148300017900136200021000323400297500297500000000000000000000204               1
001016100130   5008010351123   061    5002844FLORENCE STATE UNIVERSITY00101600100124 *   00148300017900136200021000323400297500297500000000000000000000204               1
001016100130   5008010351123   061    5002844FLORENCE STATE UNIVERSITY00101600100134 *   00037700000700029900000900069200068100068100000000000000000000202               1
001016100130   5008010351123   061    5002844FLORENCE STATE UNIVERSITY00101600100184 *   00148300017900136200021000323400297500297500000000000000000000204               1
001017100140   5008510351133   032    5002727GADSDEN STATE JR COLLEGE 00101700100014 *   00096100027200040000025300188600177500153600000000000000000000101               1
001017100140   5008510351133   032    5002727GADSDEN STATE JR COLLEGE 00101700100034 *   00096100027200040000025300188600177500153600000000000000000000101               1
001017100140   5008510351133   032    5002727GADSDEN STATE JR COLLEGE 00101700100074 *   00096100027200040000025300188600177500153600000000000000000000101               1
001017100140   5008510351133   032    5002727GADSDEN STATE JR COLLEGE 00101700100124 *   00096100027200040000025300188600177500153600000000000000000000101               1
001017100140   5008510351133   032    5002727GADSDEN STATE JR COLLEGE 00101700100134 *   00034000010900019800006100070800067900059500000000000000000000101               1
001017100140   5008510351133   032    5002727GADSDEN STATE JR COLLEGE 00101700100144 *   00039500009800023600011200084100077400070100000000000000000000101               1
001017100140   5008510351133   032    5002727GADSDEN STATE JR COLLEGE 00101700100164 *   00039500009800023600011200084100077400070100000000000000000000101               1
001017100140   5008510351133   032    5002727GADSDEN STATE JR COLLEGE 00101700100174 *   00021600005100009400006200042300035400034800000000000000000000101               1
001017100140   5008510351133   032    5002727GADSDEN STATE JR COLLEGE 00101700100184 *   00135600037000063600036500272700254900223700000000000000000000101               1
001018100150   5008710351133   032    4001027GEO WALLACE STATE TECH JC00101800100014 *   00037300013600023900011500086300071400069600000000000000000000101               1
001018100150   5008710351133   032    4001027GEO WALLACE STATE TECH JC00101800100034 *   00037300013600023900011500086300071400069600000000000000000000101               1
001018100150   5008710351133   032    4001027GEO WALLACE STATE TECH JC00101800100044 *   00000300003200000100012800016400004300005700000000000000000000101               1
001018100150   5008710351133   032    4001027GEO WALLACE STATE TECH JC00101800100074 *   00037600016800024000024300102700075700075300000000000000000000101               1
001018100150   5008710351133   032    4001027GEO WALLACE STATE TECH JC00101800100124 *   00037600016800024000024300102700075700075300000000000000000000101               1
001018100150   5008710351133   032    4001027GEO WALLACE STATE TECH JC00101800100134 *   00022400001800017800007500049500036600043300000000000000000000101               1
001018100150   5008710351133   032    4001027GEO WALLACE STATE TECH JC00101800100184 *   00037600016800024000024300102700075700075300000000000000000000101               1
001019100160   5010010351223   041    3000780HUNTINGDON COLLEGE       00101900100014 *   00018000000700026700000700046100045600045200000000000000000000101               1
001019100160   5010010351223   041    3000780HUNTINGDON COLLEGE       00101900100024 *   00010000000600016200002000028800027600027100000000000000000000101               1
001019100160   5010010351223   041    3000780HUNTINGDON COLLEGE       00101900100034 *   00028000001300042900002700074900073200072200000000000000000000101               1
001019100160   5010010351223   041    3000780HUNTINGDON COLLEGE       00101900100044 *   00000200001400000400001100003100001700001400000000000000000000101               1
001019100160   5010010351223   041    3000780HUNTINGDON COLLEGE       00101900100074 *   00028200002700043300003800078000074900073700000000000000000000101               1
001019100160   5010010351223   041    3000780HUNTINGDON COLLEGE       00101900100124 *   00028200002700043300003800078000074900073700000000000000000000101               1
001019100160   5010010351223   041    3000780HUNTINGDON COLLEGE       00101900100134 *   00007000000000013500000000020500020500020500000000000000000000101               1
001019100160   5010010351223   041    3000780HUNTINGDON COLLEGE       00101900100184 *   00028200002700043300003800078000074900073700000000000000000000101               1
001020100170   5011010351123   061    6005645JACKSONVL ST UNIVERSITY  00102000100014 *   00139400012000114300008400274100260500260500000000000000000000101               1
001020100170   5011010351123   061    6005645JACKSONVL ST UNIVERSITY  00102000100024 *   00138200021900095300012000267400244800244800000000000000000000101               1
001020100170   5011010351123   061    6005645JACKSONVL ST UNIVERSITY  00102000100034 *   00277600033900209600020400541500505300505300000000000000000000101               1
001020100170   5011010351123   061    6005645JACKSONVL ST UNIVERSITY  00102000100044 *   00001800004000001800004600012200006500006500000000000000000000101               1
001020100170   5011010351123   061    6005645JACKSONVL ST UNIVERSITY  00102000100064 *   00001000004800001000004000010800004900004900000000000000000000101               1
001020100170   5011010351123   061    6005645JACKSONVL ST UNIVERSITY  00102000100074 *   00280400042700212400029000564500516700516700000000000000000000101               1
001020100170   5011010351123   061    6005645JACKSONVL ST UNIVERSITY  00102000100124 *   00280400042700212400029000564500516700516700000000000000000000101               1
001020100170   5011010351123   061    6005645JACKSONVL ST UNIVERSITY  00102000100134 *   00059800001700054200002700118400115500115500000000000000000000101               1
001020100170   5011010351123   061    6005645JACKSONVL ST UNIVERSITY  00102000100184 *   00280400042700212400029000564500516700516700000000000000000000101               1
001021100180   5011510351133   032    3000613JEFFERSON DAVIS STATE JC 00102100100014 *   00028100001900021100002400053500052300050600000000000000000000202               1
001021100180   5011510351133   032    3000613JEFFERSON DAVIS STATE JC 00102100100034 *   00028100001900021100002400053500052300050600000000000000000000202               1
001021100180   5011510351133   032    3000613JEFFERSON DAVIS STATE JC 00102100100044 *   00000000002000000000002800004800000300001600000000000000000000202               1
001021100180   5011510351133   032    3000613JEFFERSON DAVIS STATE JC 00102100100074 *   00028100003900021100005200058300052700052200000000000000000000202               1
001021100180   5011510351133   032    3000613JEFFERSON DAVIS STATE JC 00102100100124 *   00028100003900021100005200058300052700052200000000000000000000202               1
001021100180   5011510351133   032    3000613JEFFERSON DAVIS STATE JC 00102100100134 *   00015400000400009700000500026000025100025400000000000000000000202               1
001021100180   5011510351133   032    3000613JEFFERSON DAVIS STATE JC 00102100100144 *   00000000000000003000000000003000003000003000000000000000000000202               1
001021100180   5011510351133   032    3000613JEFFERSON DAVIS STATE JC 00102100100164 *   00000000000000003000000000003000003000003000000000000000000000202               1
001021100180   5011510351133   032    3000613JEFFERSON DAVIS STATE JC 00102100100174 *   00000000000000002000000000002000002000002000000000000000000000202               1
001021100180   5011510351133   032    3000613JEFFERSON DAVIS STATE JC 00102100100184 *   00028100003900024100005200061300055700055200000000000000000000202               1
001022100190   5005510351133   032    5004753JEFFERSON ST JR COLLEGE  00102200100014 *   00118600091600028100029300267600252300187000000000000000000000101               1
001022100190   5005510351133   032    5004753JEFFERSON ST JR COLLEGE  00102200100034 *   00118600091600028100029300267600252300187000000000000000000000101               1
001022100190   5005510351133   032    5004753JEFFERSON ST JR COLLEGE  00102200100074 *   00118600091600028100029300267600252300187000000000000000000000101               1
001022100190   5005510351133   032    5004753JEFFERSON ST JR COLLEGE  00102200100124 *   00118600091600028100029300267600252300187000000000000000000000101               1
001022100190   5005510351133   032    5004753JEFFERSON ST JR COLLEGE  00102200100134 *   00047300017200013800005700084000000000068700000000000000000000101               1
001022100190   5005510351133   032    5004753JEFFERSON ST JR COLLEGE  00102200100144 *   00047400073600049600037100207700183400133900000000000000000000101               1
001022100190   5005510351133   032    5004753JEFFERSON ST JR COLLEGE  00102200100164 *   00047400073600049600037100207700183400133900000000000000000000101               1
001022100190   5005510351133   032    5004753JEFFERSON ST JR COLLEGE  00102200100174 *   00019300019500025000014500078300000000055600000000000000000000101               1
001022100190   5005510351133   032    5004753JEFFERSON ST JR COLLEGE  00102200100184 *   00166000165200077700066400475300435700320900000000000000000000101               1
001023100210   5012010351222   041    2000408JUDSON COLLEGE           00102300100014 *   00000400000000023000000000023400000000023400000000000000000000101               1
001023100210   5012010351222   041    2000408JUDSON COLLEGE           00102300100024 *   00000600000000012900000000013500000000013500000000000000000000101               1
001023100210   5012010351222   041    2000408JUDSON COLLEGE           00102300100034 *   00001000000000035900000000036900000000036900000000000000000000101               1
001023100210   5012010351222   041    2000408JUDSON COLLEGE           00102300100044 *   00001000000000003900000000004900000000004900000000000000000000101               1
001023100210   5012010351222   041    2000408JUDSON COLLEGE           00102300100074 *   00002000000000039800000000041800000000041800000000000000000000101               1
001023100210   5012010351222   041    2000408JUDSON COLLEGE           00102300100124 *   00002000000000039800000000041800000000041800000000000000000000101               1
001023100210   5012010351222   041    2000408JUDSON COLLEGE           00102300100134 *   00000100000000013400000000013500000000013500000000000000000000101               1
001023100210   5012010351222   041    2000408JUDSON COLLEGE           00102300100184 *   00002000000000039800000000041800038800041800000000000000000000101               1
001024100220   5013010351123   062    4001812LIVINGSTON UNIVERSITY    00102400100014 *   00050400000800030900000800082900081900081800000000000000000000202               1
001024100220   5013010351123   062    4001812LIVINGSTON UNIVERSITY    00102400100024 *   00050500001100017900000900070400069100069100000000000000000000202               1
001024100220   5013010351123   062    4001812LIVINGSTON UNIVERSITY    00102400100034 *   00100900001900048800001700153300151000150900000000000000000000202               1
001024100220   5013010351123   062    4001812LIVINGSTON UNIVERSITY    00102400100064 *   00001100004400000600005100011200004900004900000000000000000000202               1
001024100220   5013010351123   062    4001812LIVINGSTON UNIVERSITY    00102400100074 *   00102000006300049400006800164500155900155800000000000000000000202               1
001024100220   5013010351123   062    4001812LIVINGSTON UNIVERSITY    00102400100084 *   00000000000200000000000200000400000300000100000000000000000000202               1
001024100220   5013010351123   062    4001812LIVINGSTON UNIVERSITY    00102400100104 *   00000000003000000000004200007200002400002400000000000000000000202               1
001024100220   5013010351123   062    4001812LIVINGSTON UNIVERSITY    00102400100114 *   00000000003200000000004400007600002700002500000000000000000000202               1
001024100220   5013010351123   062    4001812LIVINGSTON UNIVERSITY    00102400100124 *   00102000009500049400011200172100158600158300000000000000000000202               1
001024100220   5013010351123   062    4001812LIVINGSTON UNIVERSITY    00102400100134 *   00016600000000008800000000025400025400025400000000000000000000202               1
001024100220   5013010351123   062    4001812LIVINGSTON UNIVERSITY    00102400100184 *   00102000009500049400011200172100158600158300000000000000000000202               1
001026100240   5014010351231   031    2000298MARION INSTITUTE         00102600100014 *   00029100000500000000000000029600029400029300000000000000000000101               1
001026100240   5014010351231   031    2000298MARION INSTITUTE         00102600100034 *   00029100000500000000000000029600029400029300000000000000000000101               1
001026100240   5014010351231   031    2000298MARION INSTITUTE         00102600100074 *   00029100000500000000000000029600029400029300000000000000000000101               1
001026100240   5014010351231   031    2000298MARION INSTITUTE         00102600100124 *   00029100000500000000000000029600029400029300000000000000000000101               1
001026100240   5014010351231   031    2000298MARION INSTITUTE         00102600100134 *   00015600000000000000000000015600015600015600000000000000000000101               1
001026100240   5014010351231   031    2000298MARION INSTITUTE         00102600100184 *   00029100000500000000000000029600029400029300000000000000000000101               1
001028100250   5015010352223   041    4001139MILES COLLEGE            00102800100014 *   00034500002200038700003200078600075000075000000000000000000000202               1
001028100250   5015010352223   041    4001139MILES COLLEGE            00102800100024 *   00011300000600013900001200027000035800025800000000000000000000202               1
001028100250   5015010352223   041    4001139MILES COLLEGE            00102800100034 *   00045800002800052600004400105600110800100800000000000000000000202               1
001028100250   5015010352223   041    4001139MILES COLLEGE            00102800100074 *   00045800002800052600004400105600110800100800000000000000000000202               1
001028100250   5015010352223   041    4001139MILES COLLEGE            00102800100124 *   00045800002800052600004400105600110800100800000000000000000000202               1
001028100250   5015010352223   041    4001139MILES COLLEGE            00102800100134 *   00016600001200018400001600037800035900035900000000000000000000202               1
001028100250   5015010352223   041    4001139MILES COLLEGE            00102800100184 *   00045800002800052600004400105600110800100800000000000000000000202               1
001029100260   5014910351223   041    2000424MOBILE COLLEGE           00102900100014 *   00011200000200008600000600020600020000020100000000000000000000202               1
001029100260   5014910351223   041    2000424MOBILE COLLEGE           00102900100024 *   00011400000500006700000700019300018500018500000000000000000000202               1
001029100260   5014910351223   041    2000424MOBILE COLLEGE           00102900100034 *   00022600000700015300001300039900038500038600000000000000000000202               1
001029100260   5014910351223   041    2000424MOBILE COLLEGE           00102900100044 *   00000200002200000200002200004800001800001900000000000000000000202               1
001029100260   5014910351223   041    2000424MOBILE COLLEGE           00102900100074 *   00022800002900015500003500044700040400040400000000000000000000202               1
001029100260   5014910351223   041    2000424MOBILE COLLEGE           00102900100124 *   00022800002900015500003500044700040400040400000000000000000000202               1
001029100260   5014910351223   041    2000424MOBILE COLLEGE           00102900100134 *   00003400000000004500000300008200008000008000000000000000000000202               1
001029100260   5014910351223   041    2000424MOBILE COLLEGE           00102900100144 *   00000000000000000000005900005900001900002000000000000000000000202               1
001029100260   5014910351223   041    2000424MOBILE COLLEGE           00102900100164 *   00000000000000000000005900005900001900002000000000000000000000202               1
001029100260   5014910351223   041    2000424MOBILE COLLEGE           00102900100184 *   00022800002900015500009400050600042400042400000000000000000000202               1
001030100270   5015110351133   032    3000915MOBILE STATE JR COLLEGE  00103000100014 *   00032900003900039000003400079200074300074300000000000000000000303               1
001030100270   5015110351133   032    3000915MOBILE STATE JR COLLEGE  00103000100034 *   00032900003900039000003400079200074300074300000000000000000000303               1
001030100270   5015110351133   032    3000915MOBILE STATE JR COLLEGE  00103000100044 *   00000000000200000200000500000900000400000400000000000000000000303               1
001030100270   5015110351133   032    3000915MOBILE STATE JR COLLEGE  00103000100074 *   00032900004100039200003900080100074700074800000000000000000000304               1
001030100270   5015110351133   032    3000915MOBILE STATE JR COLLEGE  00103000100124 *   00032900004100039200003900080100074700074800000000000000000000304               1
001030100270   5015110351133   032    3000915MOBILE STATE JR COLLEGE  00103000100134 *   00016400001100015800001100034400032900032900000000000000000000303               1
001030100270   5015110351133   032    3000915MOBILE STATE JR COLLEGE  00103000100144 *   00001500000300009000000600011400010800010800000000000000000000303               1
001030100270   5015110351133   032    3000915MOBILE STATE JR COLLEGE  00103000100164 *   00001500000300009000000600011400010800010800000000000000000000303               1
001030100270   5015110351133   032    3000915MOBILE STATE JR COLLEGE  00103000100174 *   00000800000100004400000200005500005300005300000000000000000000303               1
001030100270   5015110351133   032    3000915MOBILE STATE JR COLLEGE  00103000100184 *   00034400004400048200004500091500085500085600000000000000000000304               1
001031100280   5015310351133   032    3000695NTHEST ALA ST JR COLLEGE 00103100100014 *   00032800003500019600002700058600056600054500000000000000000000101               1
001031100280   5015310351133   032    3000695NTHEST ALA ST JR COLLEGE 00103100100034 *   00032800003500019600002700058600056600054500000000000000000000101               1
001031100280   5015310351133   032    3000695NTHEST ALA ST JR COLLEGE 00103100100074 *   00032800003500019600002700058600056600054500000000000000000000101               1
001031100280   5015310351133   032    3000695NTHEST ALA ST JR COLLEGE 00103100100094 *   00000000000100000000000300000400000200000100000000000000000000101               1
001031100280   5015310351133   032    3000695NTHEST ALA ST JR COLLEGE 00103100100114 *   00000000000100000000000300000400000200000100000000000000000000101               1
001031100280   5015310351133   032    3000695NTHEST ALA ST JR COLLEGE 00103100100124 *   00032800003600019600003000059000056800054600000000000000000000101               1
001031100280   5015310351133   032    3000695NTHEST ALA ST JR COLLEGE 00103100100134 *   00015000001000009000000400025400025100024500000000000000000000101               1
001031100280   5015310351133   032    3000695NTHEST ALA ST JR COLLEGE 00103100100144 *   00003100001800004700000900010500009600008700000000000000000000101               1
001031100280   5015310351133   032    3000695NTHEST ALA ST JR COLLEGE 00103100100164 *   00003100001800004700000900010500009700008700000000000000000000101               1
001031100280   5015310351133   032    3000695NTHEST ALA ST JR COLLEGE 00103100100174 *   00000600000300000600000200001700001600001400000000000000000000101               1
001031100280   5015310351133   032    3000695NTHEST ALA ST JR COLLEGE 00103100100184 *   00035900005400024300003900069500066200063300000000000000000000101               1
001032100290   5015510351133   032    3000579NTHWST ALA ST JR COLLEGE 00103200100014 *   00033200001600017000002100053900051500051400000000000000000000101               1
001032100290   5015510351133   032    3000579NTHWST ALA ST JR COLLEGE 00103200100034 *   00033200001600017000002100053900051500051400000000000000000000101               1
001032100290   5015510351133   032    3000579NTHWST ALA ST JR COLLEGE 00103200100044 *   00000000000100000000000000000100000000000000000000000000000000101               1
001032100290   5015510351133   032    3000579NTHWST ALA ST JR COLLEGE 00103200100074 *   00033200001700017000002100054000051500051500000000000000000000101               1
001032100290   5015510351133   032    3000579NTHWST ALA ST JR COLLEGE 00103200100124 *   00033200001700017000002100054000051500051500000000000000000000101               1
001032100290   5015510351133   032    3000579NTHWST ALA ST JR COLLEGE 00103200100134 *   00014800000700007100001500024100022600022600000000000000000000101               1
001032100290   5015510351133   032    3000579NTHWST ALA ST JR COLLEGE 00103200100144 *   00001700000200001400000600003900003200003400000000000000000000101               1
001032100290   5015510351133   032    3000579NTHWST ALA ST JR COLLEGE 00103200100164 *   00001700000200001400000600003900003200003400000000000000000000101               1
001032100290   5015510351133   032    3000579NTHWST ALA ST JR COLLEGE 00103200100174 *   00000400000000000900000100001400001300001300000000000000000000101               1
001032100290   5015510351133   032    3000579NTHWST ALA ST JR COLLEGE 00103200100184 *   00034900001900018400002700057900054700054800000000000000000000101               1
001033100300   5016010352223   042    3000569OAKWOOD COLLEGE          00103300100014 *   00011600000800017500001200031100000000029800000000000000000000202               1
001033100300   5016010352223   042    3000569OAKWOOD COLLEGE          00103300100024 *   00007100000500007000000800015400000000014500000000000000000000202               1
001033100300   5016010352223   042    3000569OAKWOOD COLLEGE          00103300100034 *   00018700001300024500002000046500000000044300000000000000000000202               1
001033100300   5016010352223   042    3000569OAKWOOD COLLEGE          00103300100044 *   00004800000200005400000300010700000000010400000000000000000000202               1
001033100300   5016010352223   042    3000569OAKWOOD COLLEGE          00103300100074 *   00023500001500029900002300057200000000054700000000000000000000202               1
001033100300   5016010352223   042    3000569OAKWOOD COLLEGE          00103300100124 *   00023500001500029900002300057200000000054700000000000000000000202               1
001033100300   5016010352223   042    3000569OAKWOOD COLLEGE          00103300100134 *   00007400000500008700000600017200000000016500000000000000000000202               1
001033100300   5016010352223   042    3000569OAKWOOD COLLEGE          00103300100184 *   00023500001500029900002300057200000000054700000000000000000000202               1
001034100310   5015210351133   032    3000528PATRICK HENRY STATE JC   00103400100014 *   00021300008000013400010100052800042500040700000000000000000000202               1
001034100310   5015210351133   032    3000528PATRICK HENRY STATE JC   00103400100034 *   00021300008000013400010100052800042500040700000000000000000000202               1
001034100310   5015210351133   032    3000528PATRICK HENRY STATE JC   00103400100044 *   00000000000200000000001400001600000000000500000000000000000000202               1
001034100310   5015210351133   032    3000528PATRICK HENRY STATE JC   00103400100074 *   00021300008200013400011500054400042500041300000000000000000000202               1
001034100310   5015210351133   032    3000528PATRICK HENRY STATE JC   00103400100124 *   00021300008200013400011500054400042500041300000000000000000000202               1
001034100310   5015210351133   032    3000528PATRICK HENRY STATE JC   00103400100134 *   00013100005600007000003200028900000000023000000000000000000000202               1
001034100310   5015210351133   032    3000528PATRICK HENRY STATE JC   00103400100184 *   00021300008200013400011500054400042500041300000000000000000000202               1
001035100105   5017010351233   031    1000136CULLMAN COLLEGE          00103500100014 *   00000700000700010500001700013600012000012000000000000000000000202               1
001035100105   5017010351233   031    1000136CULLMAN COLLEGE          00103500100034 *   00000700000700010500001700013600012000012000000000000000000000202               1
001035100105   5017010351233   031    1000136CULLMAN COLLEGE          00103500100074 *   00000700000700010500001700013600012000012000000000000000000000202               1
001035100105   5017010351233   031    1000136CULLMAN COLLEGE          00103500100124 *   00000700000700010500001700013600012000012000000000000000000000202               1
001035100105   5017010351233   031    1000136CULLMAN COLLEGE          00103500100134 *   00000500000300005000000900006700005900005900000000000000000000202               1
001035100105   5017010351233   031    1000136CULLMAN COLLEGE          00103500100184 *   00000700000700010500001700013600012000012000000000000000000000202               1
001036100340   5009010351223   061    5002663SAMFORD UNIVERSITY       00103600100014 *   00045000005000043600004900098500093800091900000000000000000000202               1
001036100340   5009010351223   061    5002663SAMFORD UNIVERSITY       00103600100024 *   00056900005700031500002800096900092900091200000000000000000000202               1
001036100340   5009010351223   061    5002663SAMFORD UNIVERSITY       00103600100034 *   00101900010700075100007700195400186800183100000000000000000000202               1
001036100340   5009010351223   061    5002663SAMFORD UNIVERSITY       00103600100044 *   00000000002200000000002000004200002200001400000000000000000000202               1
001036100340   5009010351223   061    5002663SAMFORD UNIVERSITY       00103600100054 *   00029100009100000900001300040400038100033500000000000000000000202               1
001036100340   5009010351223   061    5002663SAMFORD UNIVERSITY       00103600100064 *   00001900013300000900010200026300009600010600000000000000000000202               1
001036100340   5009010351223   061    5002663SAMFORD UNIVERSITY       00103600100074 *   00132900035300076900021200266300236700228600000000000000000000202               1
001036100340   5009010351223   061    5002663SAMFORD UNIVERSITY       00103600100124 *   00132900035300076900021200266300236700228600000000000000000000202               1
001036100340   5009010351223   061    5002663SAMFORD UNIVERSITY       00103600100134 *   00022500002000025400001500051400000000049100000000000000000000202               1
001036100340   5009010351223   061    5002663SAMFORD UNIVERSITY       00103600100184 *   00132900035300076900021200266300236700228600000000000000000000202               1
001037100350   5018410352223   041    2000380SELMA UNIVERSITY         00103700100014 *   00018200000900018300000600038000000000037000000000000000000000202               1
001037100350   5018410352223   041    2000380SELMA UNIVERSITY         00103700100034 *   00018200000900018300000600038000000000037000000000000000000000202               1
001037100350   5018410352223   041    2000380SELMA UNIVERSITY         00103700100074 *   00018200000900018300000600038000000000037000000000000000000000202               1
001037100350   5018410352223   041    2000380SELMA UNIVERSITY         00103700100124 *   00018200000900018300000600038000000000037000000000000000000000202               1
001037100350   5018410352223   041    2000380SELMA UNIVERSITY         00103700100134 *   00011000000000012100000000023100000000023100000000000000000000404               1
001037100350   5018410352223   041    2000380SELMA UNIVERSITY         00103700100184 *   00018200000900018300000600038000000000037000000000000000000000202               1
001038100360   5019010351133   032    3000882SNEAD STATE JR COLLEGE   00103800100014 *   00037300013600023400013900088200078000069900000000000000000000202               1
001038100360   5019010351133   032    3000882SNEAD STATE JR COLLEGE   00103800100034 *   00037300013600023400013900088200078000069900000000000000000000202               1
001038100360   5019010351133   032    3000882SNEAD STATE JR COLLEGE   00103800100074 *   00037300013600023400013900088200078000069900000000000000000000202               1
001038100360   5019010351133   032    3000882SNEAD STATE JR COLLEGE   00103800100124 *   00037300013600023400013900088200078000069900000000000000000000202               1
001038100360   5019010351133   032    3000882SNEAD STATE JR COLLEGE   00103800100134 *   00017800000800011400001300031300000000029900000000000000000000404               1
001038100360   5019010351133   032    3000882SNEAD STATE JR COLLEGE   00103800100184 *   00037300013600023400013900088200078000069900000000000000000000202               1
001039100370   5020010351223   041    1000187STHESTN BIBLE COLLEGE    00103900100014 *   00005600000500004200000100010400000000010000000000000000000000101               1
001039100370   5020010351223   041    1000187STHESTN BIBLE COLLEGE    00103900100024 *   00001900000400002000000100004400000000004100000000000000000000101               1
001039100370   5020010351223   041    1000187STHESTN BIBLE COLLEGE    00103900100034 *   00007500000900006200000200014800000000014100000000000000000000101               1
001039100370   5020010351223   041    1000187STHESTN BIBLE COLLEGE    00103900100044 *   00000000000300000000000400000700000000000200000000000000000000101               1
001039100370   5020010351223   041    1000187STHESTN BIBLE COLLEGE    00103900100074 *   00007500001200006200000600015500000000014300000000000000000000101               1
001039100370   5020010351223   041    1000187STHESTN BIBLE COLLEGE    00103900100124 *   00007500001200006200000600015500000000014300000000000000000000101               1
001039100370   5020010351223   041    1000187STHESTN BIBLE COLLEGE    00103900100134 *   00002500000000001900000000004400000000004400000000000000000000101               1
001039100370   5020010351223   041    1000187STHESTN BIBLE COLLEGE    00103900100144 *   00000500000400002100000200003200000000002800000000000000000000101               1
001039100370   5020010351223   041    1000187STHESTN BIBLE COLLEGE    00103900100164 *   00000500000400002100000200003200000000002800000000000000000000101               1
001039100370   5020010351223   041    1000187STHESTN BIBLE COLLEGE    00103900100174 *   00000100000400001000000200001700000000001300000000000000000000101               1
001039100370   5020010351223   041    1000187STHESTN BIBLE COLLEGE    00103900100184 *   00008000001600008300000800018700017400017100000000000000000000101               1
001040100380   5021010351133   032    3000612STHN UNION ST JR COLLEGE 00104000100014 *   00032900004500016800005300059500055300053000000000000000000000101               1
001040100380   5021010351133   032    3000612STHN UNION ST JR COLLEGE 00104000100034 *   00032900004500016800005300059500055300053000000000000000000000101               1
001040100380   5021010351133   032    3000612STHN UNION ST JR COLLEGE 00104000100074 *   00032900004500016800005300059500055300053000000000000000000000101               1
001040100380   5021010351133   032    3000612STHN UNION ST JR COLLEGE 00104000100124 *   00032900004500016800005300059500055300053000000000000000000000101               1
001040100380   5021010351133   032    3000612STHN UNION ST JR COLLEGE 00104000100134 *   00009900000000007500000000017400017400017400000000000000000000101               1
001040100380   5021010351133   032    3000612STHN UNION ST JR COLLEGE 00104000100184 *   00032900004500016800005300059500055300053000000000000000000000101               1
001041100390   5022010351223   041    3000970SPRING HILL COLLEGE      00104100100014 *   00026300000000019200000200045700045600045600000000000000000000101               1
001041100390   5022010351223   041    3000970SPRING HILL COLLEGE      00104100100024 *   00020000000500012900000100033500033100033100000000000000000000101               1
001041100390   5022010351223   041    3000970SPRING HILL COLLEGE      00104100100034 *   00046300000500032100000300079200078700078700000000000000000000101               1
001041100390   5022010351223   041    3000970SPRING HILL COLLEGE      00104100100044 *   00000800003900000300012800017800006700006700000000000000000000101               1
001041100390   5022010351223   041    3000970SPRING HILL COLLEGE      00104100100074 *   00047100004400032400013100097000085300085300000000000000000000101               1
001041100390   5022010351223   041    3000970SPRING HILL COLLEGE      00104100100124 *   00047100004400032400013100097000085300085300000000000000000000101               1
001041100390   5022010351223   041    3000970SPRING HILL COLLEGE      00104100100134 *   00013200000100011100002200026600025100025100000000000000000000101               1
001041100390   5022010351223   041    3000970SPRING HILL COLLEGE      00104100100184 *   00047100004400032400013100097000085300085300000000000000000000101               1
001043100330   5018010351223   041    3000651SAINT BERNARD COLLEGE    00104300100014 *   00028100000900005100000500034600033900033700000000000000000000101               1
001043100330   5018010351223   041    3000651SAINT BERNARD COLLEGE    00104300100024 *   00022300001200005600001000030100028900028600000000000000000000101               1
001043100330   5018010351223   041    3000651SAINT BERNARD COLLEGE    00104300100034 *   00050400002100010700001500064700062800062300000000000000000000101               1
001043100330   5018010351223   041    3000651SAINT BERNARD COLLEGE    00104300100054 *   00000000000300000000000100000400000100000100000000000000000000404               1
001043100330   5018010351223   041    3000651SAINT BERNARD COLLEGE    00104300100074 *   00050400002400010700001600065100062900062400000000000000000000101               1
001043100330   5018010351223   041    3000651SAINT BERNARD COLLEGE    00104300100124 *   00050400002400010700001600065100062900062400000000000000000000101               1
001043100330   5018010351223   041    3000651SAINT BERNARD COLLEGE    00104300100134 *   00012500000200002800000200015700015500015400000000000000000000101               1
001043100330   5018010351223   041    3000651SAINT BERNARD COLLEGE    00104300100184 *   00050400002400010700001600065100062900062400000000000000000000101               1
001044100400   5023010352223   041    3000658STILLMAN COLLEGE         00104400100014 * * 00018600000000023800000200042600042500042500000000000000000000205               1
001044100400   5023010352223   041    3000658STILLMAN COLLEGE         00104400100024 * * 00008400000000014500000200023100023000023000000000000000000000202               1
001044100400   5023010352223   041    3000658STILLMAN COLLEGE         00104400100034 * * 00027000000000038300000400065700065500065400000000000000000000205               1
001044100400   5023010352223   041    3000658STILLMAN COLLEGE         00104400100044 * * 00000100000000000200000000000300000300000300000000000000000000206               1
001044100400   5023010352223   041    3000658STILLMAN COLLEGE         00104400100074 * * 00027100000000038500000400066000065800065700000000000000000000205               1
001044100400   5023010352223   041    3000658STILLMAN COLLEGE         00104400100124 * * 00027100000000038500000400066000065800065700000000000000000000205               1
001044100400   5023010352223   041    3000658STILLMAN COLLEGE         00104400100134 * * 00008700000000012200000000020900020900020900000000000000000000205               1
001044100400   5023010352223   041    3000658STILLMAN COLLEGE         00104400100184 * * 00027100000000038500000400066000065800065700000000000000000000205               1
001046100410   5024010352223   041    3000533TALLADEGA COLLEGE        00104600100014 *   00010800000000018600000000029400029400029400000000000000000000202               1
001046100410   5024010352223   041    3000533TALLADEGA COLLEGE        00104600100024 *   00008100000000015600000000023700023700023700000000000000000000202               1
001046100410   5024010352223   041    3000533TALLADEGA COLLEGE        00104600100034 *   00018900000000034200000000053100053100053100000000000000000000202               1
001046100410   5024010352223   041    3000533TALLADEGA COLLEGE        00104600100044 *   00000000000100000000000100000200053100000100000000000000000000202               1
001046100410   5024010352223   041    3000533TALLADEGA COLLEGE        00104600100074 *   00018900000100034200000100053300053100053200000000000000000000202               1
001046100410   5024010352223   041    3000533TALLADEGA COLLEGE        00104600100124 *   00018900000100034200000100053300053100053200000000000000000000202               1
001046100410   5024010352223   041    3000533TALLADEGA COLLEGE        00104600100134 *   00006000000000009100000000015100015100015100000000000000000000202               1
001046100410   5024010352223   041    3000533TALLADEGA COLLEGE        00104600100184 *   00018900000100034200000100053300053100053200000000000000000000202               1
001047100430B016025010351123   062    5003458TROY STATE U MAIN CAMPUS 00104700100014 *   00111500000700087600001300201100199800199800000000000000000000202               1
001047100430B016025010351123   062    5003458TROY STATE U MAIN CAMPUS 00104700100024 *   00078600002500059200001800142100139300139200000000000000000000202               1
001047100430B016025010351123   062    5003458TROY STATE U MAIN CAMPUS 00104700100034 *   00190100003200146800003100343200339100339000000000000000000000202               1
001047100430B016025010351123   062    5003458TROY STATE U MAIN CAMPUS 00104700100044 *   00000600001200000400000400002600001600001500000000000000000000202               1
001047100430B016025010351123   062    5003458TROY STATE U MAIN CAMPUS 00104700100074 *   00190700004400147200003500345800340700340500000000000000000000202               1
001047100430B016025010351123   062    5003458TROY STATE U MAIN CAMPUS 00104700100084 *   00000000001700000000002400004100001400001400000000000000000000202               1
001047100430B016025010351123   062    5003458TROY STATE U MAIN CAMPUS 00104700100114 *   00000000001700000000002400004100001400001400000000000000000000202               1
001047100430B016025010351123   062    5003458TROY STATE U MAIN CAMPUS 00104700100124 *   00190700006100147200005900349900342100341900000000000000000000202               1
001047100430B016025010351123   062    5003458TROY STATE U MAIN CAMPUS 00104700100134 *   00038100000000030500000400069000068700068700000000000000000000202               1
001047100430B016025010351123   062    5003458TROY STATE U MAIN CAMPUS 00104700100184 *   00190700006100147200005900349900342100341900000000000000000000202               1
001048100440B027920110351123   062    4001179TROY STATE U FORT RUCKER 00104800100014 *   00003800050100000600008100062600044900023800000000000000000000202               1
001048100440B027920110351123   062    4001179TROY STATE U FORT RUCKER 00104800100024 *   00007700012700001800004600026800019700015300000000000000000000202               1
001048100440B027920110351123   062    4001179TROY STATE U FORT RUCKER 00104800100034 *   00011500062800002400012700089400064600039100000000000000000000202               1
001048100440B027920110351123   062    4001179TROY STATE U FORT RUCKER 00104800100044 *   00000200005000000200002800008200005600003000000000000000000000202               1
001048100440B027920110351123   062    4001179TROY STATE U FORT RUCKER 00104800100064 *   00005400007900002100004400019800014200011600000000000000000000202               1
001048100440B027920110351123   062    4001179TROY STATE U FORT RUCKER 00104800100074 *   00017100075700004700019900117400088400053700000000000000000000202               1
001048100440B027920110351123   062    4001179TROY STATE U FORT RUCKER 00104800100124 *   00017100075700004700019900117400088400053700000000000000000000202               1
001048100440B027920110351123   062    4001179TROY STATE U FORT RUCKER 00104800100134 *   00000200007900000000001200009300003200003200000000000000000000202               1
001048100440B027920110351123   062    4001179TROY STATE U FORT RUCKER 00104800100184 *   00017100075700004700019900117400088400053700000000000000000000202               1
001049100450B037920210351123   062    4001099TROY STATE U MONTGOMERY  00104900100014 *   00006900033700002200014000056800032900025000000000000000000000202               1
001049100450B037920210351123   062    4001099TROY STATE U MONTGOMERY  00104900100024 *   00004800011200001200002900020100013000010700000000000000000000202               1
001049100450B037920210351123   062    4001099TROY STATE U MONTGOMERY  00104900100034 *   00011700044900003400016900076900045900035700000000000000000000202               1
001049100450B037920210351123   062    4001099TROY STATE U MONTGOMERY  00104900100044 *   00000100001300000000000700002100001100000800000000000000000000202               1
001049100450B037920210351123   062    4001099TROY STATE U MONTGOMERY  00104900100064 *   00009600010200004500006600030900022500019700000000000000000000202               1
001049100450B037920210351123   062    4001099TROY STATE U MONTGOMERY  00104900100074 *   00021400056400007900024200109900069500056200000000000000000000202               1
001049100450B037920210351123   062    4001099TROY STATE U MONTGOMERY  00104900100124 *   00021400056400007900024200109900069500056200000000000000000000202               1
001049100450B037920210351123   062    4001099TROY STATE U MONTGOMERY  00104900100134 *   00001600016700000500003900022700012400009000000000000000000000202               1
001049100450B037920210351123   062    4001099TROY STATE U MONTGOMERY  00104900100184 *   00021400056400007900024200109900069500056200000000000000000000202               1
001050100460   5026010352223   061    5002918TUSKEGEE INSTITUTE       00105000100014 * * 00064700000900068200003800137600134400134500000000000000000000202               1
001050100460   5026010352223   061    5002918TUSKEGEE INSTITUTE       00105000100024 * * 00055700001600057000004800119100114800114800000000000000000000202               1
001050100460   5026010352223   061    5002918TUSKEGEE INSTITUTE       00105000100034 * * 00120400002500125200008600256700249300249300000000000000000000202               1
001050100460   5026010352223   061    5002918TUSKEGEE INSTITUTE       00105000100044 * * 00000500000300000200001300002300001200001200000000000000000000202               1
001050100460   5026010352223   061    5002918TUSKEGEE INSTITUTE       00105000100054 * * 00009900000100001300000000011300011200011200000000000000000000202               1
001050100460   5026010352223   061    5002918TUSKEGEE INSTITUTE       00105000100064 * * 00007300004300003800006100021500014500014600000000000000000000202               1
001050100460   5026010352223   061    5002918TUSKEGEE INSTITUTE       00105000100074 * * 00138100007200130500016000291800276300276300000000000000000000202               1
001050100460   5026010352223   061    5002918TUSKEGEE INSTITUTE       00105000100124 * * 00138100007200130500016000291800276300276300000000000000000000205               1
001050100460   5026010352223   061    5002918TUSKEGEE INSTITUTE       00105000100134 * * 00027800000100028900002100058900057400057400000000000000000000202               1
001050100460   5026010352223   061    5002918TUSKEGEE INSTITUTE       00105000100184 * * 00138100007200130500016000291800276300276300000000000000000000205               1
001051100502   5027010351113   081    7013364U OF ALABAMA TUSCALOOSA  00105100100014 *   00296100014000220700012300543100530100525600000000000000000000202               1
001051100502   5027010351113   081    7013364U OF ALABAMA TUSCALOOSA  00105100100024 *   00308500010900180000009100508500500200495200000000000000000000202               1
001051100502   5027010351113   081    7013364U OF ALABAMA TUSCALOOSA  00105100100034 *   00604600024900400700021401051601030301020700000000000000000000202               1
001051100502   5027010351113   081    7013364U OF ALABAMA TUSCALOOSA  00105100100044 *   00000200003500000000000900004600000600001700000000000000000000202               1
001051100502   5027010351113   081    7013364U OF ALABAMA TUSCALOOSA  00105100100054 *   00035100000000001700000000036800036800036800000000000000000000202               1
001051100502   5027010351113   081    7013364U OF ALABAMA TUSCALOOSA  00105100100064 *   00075200054600040600038300208700161000146800000000000000000000202               1
001051100502   5027010351113   081    7013364U OF ALABAMA TUSCALOOSA  00105100100074 *   00715100083000443000060601301701228701206000000000000000000000202               1
001051100502   5027010351113   081    7013364U OF ALABAMA TUSCALOOSA  00105100100084 *   00000000015300000000007500022800011800007600000000000000000000202               1
001051100502   5027010351113   081    7013364U OF ALABAMA TUSCALOOSA  00105100100104 *   00000000004600000000007300011900006000004000000000000000000000202               1
001051100502   5027010351113   081    7013364U OF ALABAMA TUSCALOOSA  00105100100114 *   00000000019900000000014800034700017800011600000000000000000000202               1
001051100502   5027010351113   081    7013364U OF ALABAMA TUSCALOOSA  00105100100124 *   00715100102900443000075401336401246501217500000000000000000000202               1
001051100502   5027010351113   081    7013364U OF ALABAMA TUSCALOOSA  00105100100134 *   00128300001200099800000700230000228300228700000000000000000000202               1
001051100502   5027010351113   081    7013364U OF ALABAMA TUSCALOOSA  00105100100184 *   00715100102900443000075401336401246501217500000000000000000000202               1
001052100490   5921010351123   082    6005839U ALABAMA IN BIRMINGHAM  00105200100014 *   00079400052000071900044600247900201600183500000000000000000000101               1
001052100490   5921010351123   082    6005839U ALABAMA IN BIRMINGHAM  00105200100024 *   00051100057900056500038000203500166700139600000000000000000000101               1
001052100490   5921010351123   082    6005839U ALABAMA IN BIRMINGHAM  00105200100034 *   00130500109900128400082600451400368300323100000000000000000000101               1
001052100490   5921010351123   082    6005839U ALABAMA IN BIRMINGHAM  00105200100054 *   00085000000000003300000000088300088300088300000000000000000000101               1
001052100490   5921010351123   082    6005839U ALABAMA IN BIRMINGHAM  00105200100064 *   00032200012500009400020400074500058000052600000000000000000000101               1
001052100490   5921010351123   082    6005839U ALABAMA IN BIRMINGHAM  00105200100074 *   00247700122400141100103000614200514600463900000000000000000000101               1
001052100490   5921010351123   082    6005839U ALABAMA IN BIRMINGHAM  00105200100124 *   00247700122400141100103000614200514600463900000000000000000000101               1
001052100490   5921010351123   082    6005839U ALABAMA IN BIRMINGHAM  00105200100134 *   00024800007900031300005200069200058600060500000000000000000000101               1
001052100490   5921010351123   082    6005839U ALABAMA IN BIRMINGHAM  00105200100184 *   00247700122400141100103000614200514600463900000000000000000000101               1
001055100500   5900310351123   074    5002603U ALABAMA IN HUNTSVILLE  00105500100014 *   00037500027000018500019000102000071300071300000000000000000000101               1
001055100500   5900310351123   074    5002603U ALABAMA IN HUNTSVILLE  00105500100024 *   00029000013300014600014900071800053000053000000000000000000000101               1
001055100500   5900310351123   074    5002603U ALABAMA IN HUNTSVILLE  00105500100034 *   00066500040300033100033900173800124300124300000000000000000000101               1
001055100500   5900310351123   074    5002603U ALABAMA IN HUNTSVILLE  00105500100044 *   00004300028600002500011900047300020300020300000000000000000000101               1
001055100500   5900310351123   074    5002603U ALABAMA IN HUNTSVILLE  00105500100064 *   00005400031300000600001900039200017000017100000000000000000000101               1
001055100500   5900310351123   074    5002603U ALABAMA IN HUNTSVILLE  00105500100074 *   00076200100200036200047700260300161700161700000000000000000000101               1
001055100500   5900310351123   074    5002603U ALABAMA IN HUNTSVILLE  00105500100124 *   00076200100200036200047700260300161700161700000000000000000000101               1
001055100500   5900310351123   074    5002603U ALABAMA IN HUNTSVILLE  00105500100134 *   00015300005300009000004600034200027600027600000000000000000000101               1
001055100500   5900310351123   074    5002603U ALABAMA IN HUNTSVILLE  00105500100184 *   00076200100200036200047700260300161700161700000000000000000000101               1
001057100520   5027510351123   062    6005221U OF SOUTH ALABAMA       00105700100014 *   00155300025700100400018400299800270400270400000000000000000000202               1
001057100520   5027510351123   062    6005221U OF SOUTH ALABAMA       00105700100024 *   00080800014600051100007200153700139200139200000000000000000000202               1
001057100520   5027510351123   062    6005221U OF SOUTH ALABAMA       00105700100034 *   00236100040300151500025600453500409600409600000000000000000000202               1
001057100520   5027510351123   062    6005221U OF SOUTH ALABAMA       00105700100044 *   00000000009900000000007900017800005900005900000000000000000000202               1
001057100520   5027510351123   062    6005221U OF SOUTH ALABAMA       00105700100064 *   00004100022200004600019900050800022700022700000000000000000000202               1
001057100520   5027510351123   062    6005221U OF SOUTH ALABAMA       00105700100074 *   00240200072400156100053400522100438200438200000000000000000000202               1
001057100520   5027510351123   062    6005221U OF SOUTH ALABAMA       00105700100124 *   00240200072400156100053400522100438200438200000000000000000000202               1
001057100520   5027510351123   062    6005221U OF SOUTH ALABAMA       00105700100134 *   00058700019700046800015700140900117300117300000000000000000000202               1
001057100520   5027510351123   062    6005221U OF SOUTH ALABAMA       00105700100184 *   00240200072400156100053400522100438200438200000000000000000000202               1
001058100530   5028010351233   031    3000732WALKER COLLEGE           00105800100014 *   00043700005100020300004100073200068800067100000000000000000000101               1
001058100530   5028010351233   031    3000732WALKER COLLEGE           00105800100034 *   00043700005100020300004100073200068800067100000000000000000000101               1
001058100530   5028010351233   031    3000732WALKER COLLEGE           00105800100074 *   00043700005100020300004100073200068800067100000000000000000000101               1
001058100530   5028010351233   031    3000732WALKER COLLEGE           00105800100124 *   00043700005100020300004100073200068800067100000000000000000000101               1
001058100530   5028010351233   031    3000732WALKER COLLEGE           00105800100134 *   00020000001900009100001900032900000000030400000000000000000000101               1
001058100530   5028010351233   031    3000732WALKER COLLEGE           00105800100184 *   00043700005100020300004100073200068800067100000000000000000000101               1
001059100415   5029010352133   032    4001205THEODORE A LAWSON ST JC  00105900100014 * * 00037500000500032800000400071200070900070600000000000000000000202               1
001059100415   5029010352133   032    4001205THEODORE A LAWSON ST JC  00105900100034 * * 00037500000500032800000400071200070900070600000000000000000000202               1
001059100415   5029010352133   032    4001205THEODORE A LAWSON ST JC  00105900100044 * * 00000100000000000000000000000100000000000100000000000000000000202               1
001059100415   5029010352133   032    4001205THEODORE A LAWSON ST JC  00105900100074 * * 00037600000500032800000400071300071000070700000000000000000000202               1
001059100415   5029010352133   032    4001205THEODORE A LAWSON ST JC  00105900100124 * * 00037600000500032800000400071300071000070700000000000000000000202               1
001059100415   5029010352133   032    4001205THEODORE A LAWSON ST JC  00105900100134 * * 00010100000000013300000000023400000000023400000000000000000000405               1
001059100415   5029010352133   032    4001205THEODORE A LAWSON ST JC  00105900100144 * * 00012700000100036100000300049200048900048900000000000000000000202               1
001059100415   5029010352133   032    4001205THEODORE A LAWSON ST JC  00105900100164 * * 00012700000100036100000300049200048900048900000000000000000000202               1
001059100415   5029010352133   032    4001205THEODORE A LAWSON ST JC  00105900100174 * * 00007900000000016900000000024800000000024800000000000000000000505               1
001059100415   5029010352133   032    4001205THEODORE A LAWSON ST JC  00105900100184 * * 00050300000600068900000700120500119900119600000000000000000000202               1
001060100125   5029510351133   032    4001086FAULKNER STATE JR COLLEGE00106000100014 *   00048800014200024400005600093000086200079800000000000000000000101               1
001060100125   5029510351133   032    4001086FAULKNER STATE JR COLLEGE00106000100034 *   00048800014200024400005600093000086200079800000000000000000000101               1
001060100125   5029510351133   032    4001086FAULKNER STATE JR COLLEGE00106000100044 *   00000300000100000100000100000600000500000500000000000000000000101               1
001060100125   5029510351133   032    4001086FAULKNER STATE JR COLLEGE00106000100074 *   00049100014300024500005700093600086700080300000000000000000000101               1
001060100125   5029510351133   032    4001086FAULKNER STATE JR COLLEGE00106000100124 *   00049100014300024500005700093600086700080300000000000000000000101               1
001060100125   5029510351133   032    4001086FAULKNER STATE JR COLLEGE00106000100134 *   00038600014000018200004900075700063100063100000000000000000000101               1
001060100125   5029510351133   032    4001086FAULKNER STATE JR COLLEGE00106000100144 *   00008400000200003200003200015000012700012700000000000000000000101               1
001060100125   5029510351133   032    4001086FAULKNER STATE JR COLLEGE00106000100164 *   00008400000200003200003200015000012700012700000000000000000000101               1
001060100125   5029510351133   032    4001086FAULKNER STATE JR COLLEGE00106000100174 *   00005400000200002900003100011600009400009400000000000000000000101               1
001060100125   5029510351133   032    4001086FAULKNER STATE JR COLLEGE00106000100184 *   00057500014500027700008900108600099400093000000000000000000000101               1
001061110010   5000211481223   064    4001086ALASKA METH UNIVERSITY   00106100100014 *   00014700000300014300000700030000030300029300000000000000000000202               1
001061110010   5000211481223   064    4001086ALASKA METH UNIVERSITY   00106100100024 *   00007800000800006100001100015800014500014500000000000000000000202               1
001061110010   5000211481223   064    4001086ALASKA METH UNIVERSITY   00106100100034 *   00022500001100020400001800045800044800043900000000000000000000202               1
001061110010   5000211481223   064    4001086ALASKA METH UNIVERSITY   00106100100044 *   00000600002300000700002300005900002800002800000000000000000000202               1
001061110010   5000211481223   064    4001086ALASKA METH UNIVERSITY   00106100100064 *   00000300004600000100006500011500004100004100000000000000000000202               1
001061110010   5000211481223   064    4001086ALASKA METH UNIVERSITY   00106100100074 *   00023400008000021200010600063200051800050800000000000000000000202               1
001061110010   5000211481223   064    4001086ALASKA METH UNIVERSITY   00106100100084 *   00000000011000000000000700011700003900003900000000000000000000202               1
001061110010   5000211481223   064    4001086ALASKA METH UNIVERSITY   00106100100114 *   00000000011000000000000700011700000000003900000000000000000000404               1
001061110010   5000211481223   064    4001086ALASKA METH UNIVERSITY   00106100100124 *   00023400019000021200011300074900055700054700000000000000000000202               1
001061110010   5000211481223   064    4001086ALASKA METH UNIVERSITY   00106100100134 *   00006200002400006400000300015300013700013500000000000000000000202               1
001061110010   5000211481223   064    4001086ALASKA METH UNIVERSITY   00106100100184 *   00023400019000021200011300074900055700054700000000000000000000202               1
001062110020   5000711481233   034    1000161SHELDON JACKSON COLLEGE  00106200100014 * * 00007500000000004400000200012100000000012000000000000000000000205               1
001062110020   5000711481233   034    1000161SHELDON JACKSON COLLEGE  00106200100034 * * 00007500000000004400000200012100015900012000000000000000000000204               1
001062110020   5000711481233   034    1000161SHELDON JACKSON COLLEGE  00106200100044 * * 00000000002300000000001500003800000000001300000000000000000000205               1
001062110020   5000711481233   034    1000161SHELDON JACKSON COLLEGE  00106200100074 * * 00007500002300004400001700015900015900013200000000000000000000204               1
001062110020   5000711481233   034    1000161SHELDON JACKSON COLLEGE  00106200100124 * * 00007500002300004400001700015900015900013200000000000000000000204               1
001062110020   5000711481233   034    1000161SHELDON JACKSON COLLEGE  00106200100134 * * 00004300000700002900000500008400009600007600000000000000000000204               1
001062110020   5000711481233   034    1000161SHELDON JACKSON COLLEGE  00106200100184 * * 00007500002300004400001700015900015900013200000000000000000000204               1
001063110040A016001011481113   081    6005533U OF ALASKA MAIN CAMPUS  00106300100014 *   00069900003400053300005700132300000000126200000000000000000000505               1
001063110040A016001011481113   081    6005533U OF ALASKA MAIN CAMPUS  00106300100024 *   00035500003800010800002500052600000000048400000000000000000000505               1
001063110040A016001011481113   081    6005533U OF ALASKA MAIN CAMPUS  00106300100034 *   00105400007200064100008200184900000000174600000000000000000000505               1
001063110040A016001011481113   081    6005533U OF ALASKA MAIN CAMPUS  00106300100044 *   00000100020500000000024900045500000000015200000000000000000000505               1
001063110040A016001011481113   081    6005533U OF ALASKA MAIN CAMPUS  00106300100064 *   00007700007400001900003200020200000000013100000000000000000000505               1
001063110040A016001011481113   081    6005533U OF ALASKA MAIN CAMPUS  00106300100074 *   00113200035100066000036300250600000000203000000000000000000000505               1
001063110040A016001011481113   081    6005533U OF ALASKA MAIN CAMPUS  00106300100094 *   00000000169500000000098300267800000000089300000000000000000000505               1
001063110040A016001011481113   081    6005533U OF ALASKA MAIN CAMPUS  00106300100114 *   00000000169500000000098300267800000000089300000000000000000000505               1
001063110040A016001011481113   081    6005533U OF ALASKA MAIN CAMPUS  00106300100124 *   00113200204600066000134600518400000000292300000000000000000000505               1
001063110040A016001011481113   081    6005533U OF ALASKA MAIN CAMPUS  00106300100134 *   00028200028800020000008500085500000000060600000000000000000000505               1
001063110040A016001011481113   081    6005533U OF ALASKA MAIN CAMPUS  00106300100144 *   00011100001100004600000700017500000000016300000000000000000000505               1
001063110040A016001011481113   081    6005533U OF ALASKA MAIN CAMPUS  00106300100164 *   00011100001100004600000700017500000000016300000000000000000000505               1
001063110040A016001011481113   081    6005533U OF ALASKA MAIN CAMPUS  00106300100174 *   00006000000600002300000500009400000000008700000000000000000000505               1
001063110040A016001011481113   081    6005533U OF ALASKA MAIN CAMPUS  00106300100184 *   00124300205700070600135300535900000000308600000000000000000000505               1
001064110050A027900311481113   043    5002501U OF ALASKA ANCHORAGE CC 00106400100014 *   00058500079600031400080600250100000000143300000000000000000000505               1
001064110050A027900311481113   043    5002501U OF ALASKA ANCHORAGE CC 00106400100034 *   00058500079600031400080600250100000000143300000000000000000000505               1
001064110050A027900311481113   043    5002501U OF ALASKA ANCHORAGE CC 00106400100074 *   00058500079600031400080600250100000000143300000000000000000000505               1
001064110050A027900311481113   043    5002501U OF ALASKA ANCHORAGE CC 00106400100124 *   00058500079600031400080600250100000000143300000000000000000000505               1
001064110050A027900311481113   043    5002501U OF ALASKA ANCHORAGE CC 00106400100134 *   00018600015100010700017500061900000000040200000000000000000000505               1
001064110050A027900311481113   043    5002501U OF ALASKA ANCHORAGE CC 00106400100184 *   00058500079600031400080600250100000000143300000000000000000000505               1
001065110060A037900611481113   031    1000151U OF ALAS JUNEAU-DGLS CC 00106500100014 *   00003000004100001600003900012600000000007300000000000000000000505               1
001065110060A037900611481113   031    1000151U OF ALAS JUNEAU-DGLS CC 00106500100034 *   00003000004100001600003900012600000000007300000000000000000000505               1
001065110060A037900611481113   031    1000151U OF ALAS JUNEAU-DGLS CC 00106500100074 *   00003000004100001600003900012600000000007300000000000000000000505               1
001065110060A037900611481113   031    1000151U OF ALAS JUNEAU-DGLS CC 00106500100124 *   00003000004100001600003900012600000000007300000000000000000000505               1
001065110060A037900611481113   031    1000151U OF ALAS JUNEAU-DGLS CC 00106500100134 *   00001700001600000700001400005400000000003400000000000000000000505               1
001065110060A037900611481113   031    1000151U OF ALAS JUNEAU-DGLS CC 00106500100184 *   00003000004100001600003900012600000000007300000000000000000000505               1
001066110070A047911011481113   031    1000165U ALAS KENAI PENINSULA CC00106600100014 *   00001100005600000300009700016700000000006500000000000000000000505               1
001066110070A047911011481113   031    1000165U ALAS KENAI PENINSULA CC00106600100034 *   00001100005600000300009700016700000000006500000000000000000000505               1
001066110070A047911011481113   031    1000165U ALAS KENAI PENINSULA CC00106600100074 *   00001100005600000300009700016700000000006500000000000000000000505               1
001066110070A047911011481113   031    1000165U ALAS KENAI PENINSULA CC00106600100124 *   00001100005600000300009700016700000000006500000000000000000000505               1
001066110070A047911011481113   031    1000165U ALAS KENAI PENINSULA CC00106600100134 *   00000500002900000200005500009100000000003500000000000000000000505               1
001066110070A047911011481113   031    1000165U ALAS KENAI PENINSULA CC00106600100184 *   00001100005600000300009700016700000000006500000000000000000000505               1
001067110080A057900911481113   031    1000121U OF ALASKA KETCHIKAN CC 00106700100014 *   00000700002300000900008100012000000000005100000000000000000000505               1
001067110080A057900911481113   031    1000121U OF ALASKA KETCHIKAN CC 00106700100034 *   00000700002300000900008100012000000000005100000000000000000000505               1
001067110080A057900911481113   031    1000121U OF ALASKA KETCHIKAN CC 00106700100074 *   00000700002300000900008100012000000000005100000000000000000000505               1
001067110080A057900911481113   031    1000121U OF ALASKA KETCHIKAN CC 00106700100124 *   00000700002300000900008100012000000000005100000000000000000000505               1
001067110080A057900911481113   031    1000121U OF ALASKA KETCHIKAN CC 00106700100134 *   00000200000900000400004300005800000000002300000000000000000000505               1
001067110080A057900911481113   031    1000121U OF ALASKA KETCHIKAN CC 00106700100184 *   00000700002300000900008100012000000000005100000000000000000000505               1
001068110100A077913011481113   031    1000099U ALAS MATNUSKA SUSTNA CC00106800100014 *   00000300004600000200004600009700000000003600000000000000000000505               1
001068110100A077913011481113   031    1000099U ALAS MATNUSKA SUSTNA CC00106800100034 *   00000300004600000200004600009700000000003600000000000000000000505               1
001068110100A077913011481113   031    1000099U ALAS MATNUSKA SUSTNA CC00106800100074 *   00000300004600000200004600009700000000003600000000000000000000505               1
001068110100A077913011481113   031    1000099U ALAS MATNUSKA SUSTNA CC00106800100124 *   00000300004600000200004600009700000000003600000000000000000000505               1
001068110100A077913011481113   031    1000099U ALAS MATNUSKA SUSTNA CC00106800100134 *   00000100001700000200001600003600000000001400000000000000000000505               1
001068110100A077913011481113   031    1000099U ALAS MATNUSKA SUSTNA CC00106800100184 *   00000300004600000200004600009700000000003600000000000000000000505               1
001069110110A087902011481113   031    1000050U OF ALASKA SITKA CC     00106900100014 *   00000300000900000700002300004200000000002100000000000000000000505               1
001069110110A087902011481113   031    1000050U OF ALASKA SITKA CC     00106900100034 *   00000300000900000700002300004200000000002100000000000000000000505               1
001069110110A087902011481113   031    1000050U OF ALASKA SITKA CC     00106900100074 *   00000300000900000700002300004200000000002100000000000000000000505               1
001069110110A087902011481113   031    1000050U OF ALASKA SITKA CC     00106900100124 *   00000300000900000700002300004200000000002100000000000000000000505               1
001069110110A087902011481113   031    1000050U OF ALASKA SITKA CC     00106900100134 *   00000200000400000200001100001900000000000900000000000000000000505               1
001069110110A087902011481113   031    1000050U OF ALASKA SITKA CC     00106900100184 *   00000300000900000700002300004200000000002100000000000000000000505               1
001070120190   5001012461223   061    3000807THUNDERBIRD GRADUATE SCH 00107000100064 *   00070800000000003300005500079600076900075900000000000000000000202               1
001070120190   5001012461223   061    3000807THUNDERBIRD GRADUATE SCH 00107000100074 *   00070800000000003300005500079600076900075900000000000000000000202               1
001070120190   5001012461223   061    3000807THUNDERBIRD GRADUATE SCH 00107000100124 *   00070800000000003300005500079600000000075900000000000000000000202               1
001070120190   5001012461223   061    3000807THUNDERBIRD GRADUATE SCH 00107000100144 *   00001100000000000000000000001100001100001100000000000000000000202               1
001070120190   5001012461223   061    3000807THUNDERBIRD GRADUATE SCH 00107000100164 *   00001100000000000000000000001100000000001100000000000000000000202               1
001070120190   5001012461223   061    3000807THUNDERBIRD GRADUATE SCH 00107000100184 *   00071900000000003300005500080700078000077000000000000000000000204               1
001071120050   5003512461133   031    5003000ARIZONA WESTERN COLLEGE  00107100100014 *   00053500042400025400028000149300104600102400000000000000000000202               1
001071120050   5003512461133   031    5003000ARIZONA WESTERN COLLEGE  00107100100034 *   00053500042400025400028000149300104600102400000000000000000000202               1
001071120050   5003512461133   031    5003000ARIZONA WESTERN COLLEGE  00107100100044 *   00000000004800000000003900008700002700002900000000000000000000202               1
001071120050   5003512461133   031    5003000ARIZONA WESTERN COLLEGE  00107100100074 *   00053500047200025400031900158000107300105300000000000000000000202               1
001071120050   5003512461133   031    5003000ARIZONA WESTERN COLLEGE  00107100100084 *   00000000060100000000049400109500036500036500000000000000000000202               1
001071120050   5003512461133   031    5003000ARIZONA WESTERN COLLEGE  00107100100114 *   00000000060100000000049400109500036500036500000000000000000000202               1
001071120050   5003512461133   031    5003000ARIZONA WESTERN COLLEGE  00107100100124 *   00053500107300025400081300267500143800141800000000000000000000202               1
001071120050   5003512461133   031    5003000ARIZONA WESTERN COLLEGE  00107100100134 *   00032400000000012000000000044400044400044400000000000000000000202               1
001071120050   5003512461133   031    5003000ARIZONA WESTERN COLLEGE  00107100100144 *   00013000009800006000005200034000022800024000000000000000000000202               1
001071120050   5003512461133   031    5003000ARIZONA WESTERN COLLEGE  00107100100164 *   00013000009800006000005200034000022800024000000000000000000000202               1
001071120050   5003512461133   031    5003000ARIZONA WESTERN COLLEGE  00107100100174 *   00007500000000004800000000012300012300012300000000000000000000202               1
001071120050   5003512461133   031    5003000ARIZONA WESTERN COLLEGE  00107100100184 *   00066500117100031400086500301500166600165800000000000000000000202               1
001072120070   5003712461133   031    4001767COCHISE COLLEGE          00107200100014 * * 00037100018100024800013800093800072500072500000000000000000000101               1
001072120070   5003712461133   031    4001767COCHISE COLLEGE          00107200100034 * * 00037100018100024800013800093800072500072500000000000000000000101               1
001072120070   5003712461133   031    4001767COCHISE COLLEGE          00107200100044 * * 00000000026900000000007000033900011300011300000000000000000000101               1
001072120070   5003712461133   031    4001767COCHISE COLLEGE          00107200100074 * * 00037100045000024800020800127700083800083800000000000000000000101               1
001072120070   5003712461133   031    4001767COCHISE COLLEGE          00107200100094 * * 00000000025200000000010200035400011800011800000000000000000000202               1
001072120070   5003712461133   031    4001767COCHISE COLLEGE          00107200100114 * * 00000000025200000000010200035400011800011800000000000000000000102               1
001072120070   5003712461133   031    4001767COCHISE COLLEGE          00107200100124 * * 00037100070200024800031000163100095600095600000000000000000000101               1
001072120070   5003712461133   031    4001767COCHISE COLLEGE          00107200100134 * * 00028000060000016700024000128700072700072700000000000000000000101               1
001072120070   5003712461133   031    4001767COCHISE COLLEGE          00107200100144 * * 00011500000000002500000000014000014000014000000000000000000000101               1
001072120070   5003712461133   031    4001767COCHISE COLLEGE          00107200100164 * * 00011500000000002500000000014000014000014000000000000000000000101               1
001072120070   5003712461133   031    4001767COCHISE COLLEGE          00107200100174 * * 00008800000000001600000000010400010400010400000000000000000000101               1
001072120070   5003712461133   031    4001767COCHISE COLLEGE          00107200100184 * * 00048600070200027300031000177100109600109600000000000000000000101               1
001073120080   5004012461133   031    4001736EASTERN ARIZONA COLLEGE  00107300100014 *   00027300027100016400044300115100067300067500000000000000000000202               1
001073120080   5004012461133   031    4001736EASTERN ARIZONA COLLEGE  00107300100034 *   00027300027100016400044300115100067300067500000000000000000000202               1
001073120080   5004012461133   031    4001736EASTERN ARIZONA COLLEGE  00107300100074 *   00027300027100016400044300115100067300067500000000000000000000202               1
001073120080   5004012461133   031    4001736EASTERN ARIZONA COLLEGE  00107300100124 *   00027300027100016400044300115100067300067500000000000000000000202               1
001073120080   5004012461133   031    4001736EASTERN ARIZONA COLLEGE  00107300100134 *   00013700015600008300024800062400035400035500000000000000000000202               1
001073120080   5004012461133   031    4001736EASTERN ARIZONA COLLEGE  00107300100144 *   00019700013400006900018200058200037100037100000000000000000000202               1
001073120080   5004012461133   031    4001736EASTERN ARIZONA COLLEGE  00107300100164 *   00019700013400006900018200058200037100037100000000000000000000202               1
001073120080   5004012461133   031    4001736EASTERN ARIZONA COLLEGE  00107300100174 *   00011400007100003800011500033800021400021400000000000000000000202               1
001073120080   5004012461133   031    4001736EASTERN ARIZONA COLLEGE  00107300100184 *   00047000040500023300062500173300104400104600000000000000000000202               1
001074120090   5005012461223   041    3000851GRAND CANYON COLLEGE     00107400100014 *   00018800003100017800003500043200045800038800000000000000000000202               1
001074120090   5005012461223   041    3000851GRAND CANYON COLLEGE     00107400100024 *   00009900005900009000003800028600030600022100000000000000000000202               1
001074120090   5005012461223   041    3000851GRAND CANYON COLLEGE     00107400100034 *   00028700009000026800007300071800076400060900000000000000000000202               1
001074120090   5005012461223   041    3000851GRAND CANYON COLLEGE     00107400100044 *   00000600005100000500007100013300005500005200000000000000000000202               1
001074120090   5005012461223   041    3000851GRAND CANYON COLLEGE     00107400100074 *   00029300014100027300014400085100081900066100000000000000000000202               1
001074120090   5005012461223   041    3000851GRAND CANYON COLLEGE     00107400100124 *   00029300014100027300014400085100081900066100000000000000000000202               1
001074120090   5005012461223   041    3000851GRAND CANYON COLLEGE     00107400100134 *   00006000000200008700000400015300014900014900000000000000000000202               1
001074120090   5005012461223   041    3000851GRAND CANYON COLLEGE     00107400100184 *   00029300014100027300014400085100081900066100000000000000000000202               1
001076120110A02E004512461133   031    6006335GLENDALE CMTY COLLEGE    00107600100014 * * 00147400159600094300102200503500352400329000000000000000000000205               1
001076120110A02E004512461133   031    6006335GLENDALE CMTY COLLEGE    00107600100034 * * 00147400159600094300102200503500352400329000000000000000000000205               1
001076120110A02E004512461133   031    6006335GLENDALE CMTY COLLEGE    00107600100074 * * 00147400159600094300102200503500352400329000000000000000000000205               1
001076120110A02E004512461133   031    6006335GLENDALE CMTY COLLEGE    00107600100124 * * 00147400159600094300102200503500352400329000000000000000000000205               1
001076120110A02E004512461133   031    6006335GLENDALE CMTY COLLEGE    00107600100134 * * 00052400056800074500018400202100141500152000000000000000000000606               1
001076120110A02E004512461133   031    6006335GLENDALE CMTY COLLEGE    00107600100144 * * 00038000041200024300026500130000091000084900000000000000000000505               1
001076120110A02E004512461133   031    6006335GLENDALE CMTY COLLEGE    00107600100164 * * 00038000041200024300026500130000091000084900000000000000000000505               1
001076120110A02E004512461133   031    6006335GLENDALE CMTY COLLEGE    00107600100174 * * 00013900015100006600004900040500028300027200000000000000000000505               1
001076120110A02E004512461133   031    6006335GLENDALE CMTY COLLEGE    00107600100184 * * 00185400200800118600128700633500443400413800000000000000000000205               1
001077120130A04E005512461133   031    6006336MESA COMMUNITY COLLEGE   00107700100014 * * 00120000098100075900062100356100296800249300000000000000000000206               1
001077120130A04E005512461133   031    6006336MESA COMMUNITY COLLEGE   00107700100034 * * 00120000098100075900062100356100296800249300000000000000000000206               1
001077120130A04E005512461133   031    6006336MESA COMMUNITY COLLEGE   00107700100074 * * 00120000098100075900062100356100296800249300000000000000000000207               1
001077120130A04E005512461133   031    6006336MESA COMMUNITY COLLEGE   00107700100124 * * 00120000098100075900062100356100296800249300000000000000000000207               1
001077120130A04E005512461133   031    6006336MESA COMMUNITY COLLEGE   00107700100134 * * 00038100031100029700024300123200102600086300000000000000000000505               1
001077120130A04E005512461133   031    6006336MESA COMMUNITY COLLEGE   00107700100144 * * 00097300079500055400045300277500231100194300000000000000000000505               1
001077120130A04E005512461133   031    6006336MESA COMMUNITY COLLEGE   00107700100164 * * 00097300079500055400045300277500231100194300000000000000000000505               1
001077120130A04E005512461133   031    6006336MESA COMMUNITY COLLEGE   00107700100174 * * 00030000024500023300019100096900080700067800000000000000000000505               1
001077120130A04E005512461133   031    6006336MESA COMMUNITY COLLEGE   00107700100184 * * 00217300177600131300107400633600527900443600000000000000000000207               1
001078120140A05E006012461133   031    6009897PHOENIX COLLEGE          00107800100014 * * 00174200250700125400180500730800462900443300000000000000000000205               1
001078120140A05E006012461133   031    6009897PHOENIX COLLEGE          00107800100034 * * 00174200250700125400180500730800462900443300000000000000000000205               1
001078120140A05E006012461133   031    6009897PHOENIX COLLEGE          00107800100074 * * 00174200250700125400180500730800462900443300000000000000000000205               1
001078120140A05E006012461133   031    6009897PHOENIX COLLEGE          00107800100124 * * 00174200250700125400180500730800462900443300000000000000000000205               1
001078120140A05E006012461133   031    6009897PHOENIX COLLEGE          00107800100134 * * 00043000061800038400055200198400125600120400000000000000000000505               1
001078120140A05E006012461133   031    6009897PHOENIX COLLEGE          00107800100144 * * 00063200090900043000061800258900164000157100000000000000000000505               1
001078120140A05E006012461133   031    6009897PHOENIX COLLEGE          00107800100164 * * 00063200090900043000061800258900164000157100000000000000000000505               1
001078120140A05E006012461133   031    6009897PHOENIX COLLEGE          00107800100174 * * 00015300022000013600019600070500044600042800000000000000000000505               1
001078120140A05E006012461133   031    6009897PHOENIX COLLEGE          00107800100184 * * 00237400341600168400242300989700626900600400000000000000000000205               1
001079120200   5008012461133   031    4001006YAVAPAI COLLEGE          00107900100014 *   00029500011500021200015700077900059800059800000000000000000000202               1
001079120200   5008012461133   031    4001006YAVAPAI COLLEGE          00107900100034 *   00029500011500021200015700077900059800059800000000000000000000202               1
001079120200   5008012461133   031    4001006YAVAPAI COLLEGE          00107900100044 *   00000000010100000000014000024100008100008000000000000000000000202               1
001079120200   5008012461133   031    4001006YAVAPAI COLLEGE          00107900100074 *   00029500021600021200029700102000000000067800000000000000000000202               1
001079120200   5008012461133   031    4001006YAVAPAI COLLEGE          00107900100094 *   00000000005800000000014400020200000000006700000000000000000000202               1
001079120200   5008012461133   031    4001006YAVAPAI COLLEGE          00107900100114 *   00000000005800000000014400020200006700006700000000000000000000202               1
001079120200   5008012461133   031    4001006YAVAPAI COLLEGE          00107900100124 *   00029500027400021200044100122200066500074500000000000000000000202               1
001079120200   5008012461133   031    4001006YAVAPAI COLLEGE          00107900100134 *   00018900009000014600012400054900040600040600000000000000000000202               1
001079120200   5008012461133   031    4001006YAVAPAI COLLEGE          00107900100144 *   00000000001100000000001400002500000800000800000000000000000000202               1
001079120200   5008012461133   031    4001006YAVAPAI COLLEGE          00107900100164 *   00000000001100000000001400002500000800000800000000000000000000202               1
001079120200   5008012461133   031    4001006YAVAPAI COLLEGE          00107900100184 *   00029500028500021200045500124700067300075400000000000000000000202               1
001081120020   5003012461113   081    8029826ARIZONA STATE UNIVERSITY 00108100100014 *   00490200037400377600037200942400883100892700000000000000000000202               1
001081120020   5003012461113   081    8029826ARIZONA STATE UNIVERSITY 00108100100024 *   00496100127700292500074000990300926500855800000000000000000000202               1
001081120020   5003012461113   081    8029826ARIZONA STATE UNIVERSITY 00108100100034 *   00986300165100670100111201932701809601748500000000000000000000202               1
001081120020   5003012461113   081    8029826ARIZONA STATE UNIVERSITY 00108100100044 *   00000000023800000000023100046900015600015600000000000000000000202               1
001081120020   5003012461113   081    8029826ARIZONA STATE UNIVERSITY 00108100100064 *   00149900261300052800198900662900477000356100000000000000000000202               1
001081120020   5003012461113   081    8029826ARIZONA STATE UNIVERSITY 00108100100074 *   01136200450200722900333202642502302202120200000000000000000000202               1
001081120020   5003012461113   081    8029826ARIZONA STATE UNIVERSITY 00108100100084 *   00000000015200000000032400047600014300015900000000000000000000202               1
001081120020   5003012461113   081    8029826ARIZONA STATE UNIVERSITY 00108100100094 *   00000000026500000000055900082400024700027500000000000000000000202               1
001081120020   5003012461113   081    8029826ARIZONA STATE UNIVERSITY 00108100100104 *   00000000041900000000088300130200039100043400000000000000000000202               1
001081120020   5003012461113   081    8029826ARIZONA STATE UNIVERSITY 00108100100114 *   00000000083600000000176600260200078100086700000000000000000000202               1
001081120020   5003012461113   081    8029826ARIZONA STATE UNIVERSITY 00108100100124 *   01136200533800722900509802902702380302207000000000000000000000202               1
