001002100010   5001010352123   061    4002286ALA AGRL AND MECH COLLEGE00100200100014     00048700000800064200000300114000000000000000000000000000000000202               1
001002100010   5001010352123   061    4002286ALA AGRL AND MECH COLLEGE00100200100024     00027900000700048100001100077800000000000000000000000000000000202               1
001002100010   5001010352123   061    4002286ALA AGRL AND MECH COLLEGE0010020010003400000000766000015001123000014001918000000000000000000000000000000000000000000000000001
001002100010   5001010352123   061    4002286ALA AGRL AND MECH COLLEGE00100200100044     00000300020400000000016800037500000000000000000000000000000000202               1
001002100010   5001010352123   061    4002286ALA AGRL AND MECH COLLEGE00100200100054     00000000005100000000003700008800000000000000000000000000000000202               1
001002100010   5001010352123   061    4002286ALA AGRL AND MECH COLLEGE0010020010007400000000769000270001123000219002381000000000000000000000000000000000040000000000000001
001002100010   5001010352123   061    4002286ALA AGRL AND MECH COLLEGE00100200100124     00076900027000112300021900238100000000000000000000000000000000204               1
001002100010   5001010352123   061    4002286ALA AGRL AND MECH COLLEGE00100200100134     00026500000000036400000000062900000000000000000000000000000000202               1
001002100010   5001010352123   061    4002286ALA AGRL AND MECH COLLEGE00100200100184     00076900027000112300021900238100000000000000000000000000000000204               1
001003100020   5001310351233   032    2000291ALABAMA CHRISTIAN COLLEGE00100300100014     00014300003000010900000900029100000000000000000000000000000000101               1
001003100020   5001310351233   032    2000291ALABAMA CHRISTIAN COLLEGE00100300100034     00014300003000010900000900029100000000000000000000000000000000101               1
001003100020   5001310351233   032    2000291ALABAMA CHRISTIAN COLLEGE00100300100074     00014300003000010900000900029100000000000000000000000000000000101               1
001003100020   5001310351233   032    2000291ALABAMA CHRISTIAN COLLEGE00100300100124     00014300003000010900000900029100000000000000000000000000000000101               1
001003100020   5001310351233   032    2000291ALABAMA CHRISTIAN COLLEGE00100300100134     00006900000200004800000300012200000000000000000000000000000000101               1
001003100020   5001310351233   032    2000291ALABAMA CHRISTIAN COLLEGE00100300100184     00014300003000010900000900029100000000000000000000000000000000101               1
001004100510   5002010351123   061    4002188UNIVERSITY OF MONTEVALLO 00100400100014     00050700000700077500000200129100000000000000000000000000000000303               1
001004100510   5002010351123   061    4002188UNIVERSITY OF MONTEVALLO 00100400100024     00030900001200042800001300076200000000000000000000000000000000101               1
001004100510   5002010351123   061    4002188UNIVERSITY OF MONTEVALLO 00100400100034     00081600001900120300001500205300000000000000000000000000000000101               1
001004100510   5002010351123   061    4002188UNIVERSITY OF MONTEVALLO 00100400100054     00000000001900000000004400006300000000000000000000000000000000101               1
001004100510   5002010351123   061    4002188UNIVERSITY OF MONTEVALLO 00100400100064     00000000002400000000005000007400000000000000000000000000000000101               1
001004100510   5002010351123   061    4002188UNIVERSITY OF MONTEVALLO 00100400100074     00081600006200120300010900219000000000000000000000000000000000101               1
001004100510   5002010351123   061    4002188UNIVERSITY OF MONTEVALLO 00100400100124     00081600006200120300010900219000000000000000000000000000000000101               1
001004100510   5002010351123   061    4002188UNIVERSITY OF MONTEVALLO 00100400100134     00026100000400044300000600071400000000000000000000000000000000101               1
001004100510   5002010351123   061    4002188UNIVERSITY OF MONTEVALLO 00100400100184     00081600006200120300010900219000000000000000000000000000000000101               1
001005100030   5004010352123   061    4002340ALABAMA STATE UNIVERSITY 00100500100014     00045600000100061800000000107500000000000000000000000000000000101               1
001005100030   5004010352123   061    4002340ALABAMA STATE UNIVERSITY 00100500100024     00030200008200051600010200100200000000000000000000000000000000101               1
001005100030   5004010352123   061    4002340ALABAMA STATE UNIVERSITY 00100500100034     00075800008300113400010200207700000000000000000000000000000000101               1
001005100030   5004010352123   061    4002340ALABAMA STATE UNIVERSITY 00100500100054     00000000006300000000020000026300000000000000000000000000000000101               1
001005100030   5004010352123   061    4002340ALABAMA STATE UNIVERSITY 00100500100074     00075800014600113400030200234000000000000000000000000000000000101               1
001005100030   5004010352123   061    4002340ALABAMA STATE UNIVERSITY 00100500100124     00075800014600113400030200234000000000000000000000000000000000101               1
001005100030   5004010352123   061    4002340ALABAMA STATE UNIVERSITY 00100500100134     00019300000100025400000000044800000000000000000000000000000000101               1
001005100030   5004010352123   061    4002340ALABAMA STATE UNIVERSITY 00100500100184     00075800014600113400030200234000000000000000000000000000000000101               1
001007100050   5001510351133   032    4001079ALEXANDER CITY STATE JC  00100700100014     00067800008200020000003000099000000000000000000000000000000000101               1
001007100050   5001510351133   032    4001079ALEXANDER CITY STATE JC  00100700100034     00067800008200020000003000099000000000000000000000000000000000101               1
001007100050   5001510351133   032    4001079ALEXANDER CITY STATE JC  00100700100074     00067800008200020000003000099000000000000000000000000000000000101               1
001007100050   5001510351133   032    4001079ALEXANDER CITY STATE JC  00100700100124     00067800008200020000003000099000000000000000000000000000000000101               1
001007100050   5001510351133   032    4001079ALEXANDER CITY STATE JC  00100700100134     00031500002200012000000800046500000000000000000000000000000000101               1
001007100050   5001510351133   032    4001079ALEXANDER CITY STATE JC  00100700100144     00000000000000007700001200008900000000000000000000000000000000101               1
001007100050   5001510351133   032    4001079ALEXANDER CITY STATE JC  00100700100164     00000000000000007700001200008900000000000000000000000000000000101               1
001007100050   5001510351133   032    4001079ALEXANDER CITY STATE JC  00100700100174     00000000000000004000000200004200000000000000000000000000000000101               1
001007100050   5001510351133   032    4001079ALEXANDER CITY STATE JC  00100700100184     00067800008200027700004200107900000000000000000000000000000000101               1
001008100060   5005010351223   061    4001273ATHENS COLLEGE           00100800100014     00037400006100010200003100056800000000000000000000000000000000101               1
001008100060   5005010351223   061    4001273ATHENS COLLEGE           00100800100024     00026200008400009000003400047000000000000000000000000000000000101               1
001008100060   5005010351223   061    4001273ATHENS COLLEGE           00100800100034     00063600014500019200006500103800000000000000000000000000000000101               1
001008100060   5005010351223   061    4001273ATHENS COLLEGE           00100800100054     00000000014800000000008700023500000000000000000000000000000000101               1
001008100060   5005010351223   061    4001273ATHENS COLLEGE           00100800100074     00063600029300019200015200127300000000000000000000000000000000101               1
001008100060   5005010351223   061    4001273ATHENS COLLEGE           00100800100124     00063600029300019200015200127300000000000000000000000000000000101               1
001008100060   5005010351223   061    4001273ATHENS COLLEGE           00100800100134     00012900000200003600000300017000000000000000000000000000000000101               1
001008100060   5005010351223   061    4001273ATHENS COLLEGE           00100800100184     00063600029300019200015200127300000000000000000000000000000000101               1
001009100080A016003010351113   082    7014525AUBURN U MAIN CAMPUS     00100900100014     00349800030800223600014100618300000000000000000000000000000000101               1
001009100080A016003010351113   082    7014525AUBURN U MAIN CAMPUS     00100900100024     00414700033500186400017200651800000000000000000000000000000000101               1
001009100080A016003010351113   082    7014525AUBURN U MAIN CAMPUS     00100900100034     00764500064300410000031301270100000000000000000000000000000000101               1
001009100080A016003010351113   082    7014525AUBURN U MAIN CAMPUS     00100900100044     00037900000000001400000000039300000000000000000000000000000000101               1
001009100080A016003010351113   082    7014525AUBURN U MAIN CAMPUS     00100900100054     00048400051700018900024100143100000000000000000000000000000000101               1
001009100080A016003010351113   082    7014525AUBURN U MAIN CAMPUS     00100900100074     00850800116000430300055401452500000000000000000000000000000000101               1
001009100080A016003010351113   082    7014525AUBURN U MAIN CAMPUS     00100900100124     00850800116000430300055401452500000000000000000000000000000000101               1
001009100080A016003010351113   082    7014525AUBURN U MAIN CAMPUS     00100900100134     00129000006400079000004200218600000000000000000000000000000000101               1
001009100080A016003010351113   082    7014525AUBURN U MAIN CAMPUS     00100900100184     00850800116000430300055401452500000000000000000000000000000000101               1
001012100100   5006010351223   064    4001005BIRMINGHAM STHN COLLEGE  00101200100014     00025700000100025300001100052200000000000000000000000000000000101               1
001012100100   5006010351223   064    4001005BIRMINGHAM STHN COLLEGE  00101200100024     00023000000200023200001900048300000000000000000000000000000000101               1
001012100100   5006010351223   064    4001005BIRMINGHAM STHN COLLEGE  00101200100034     00048700000300048500003000100500000000000000000000000000000000101               1
001012100100   5006010351223   064    4001005BIRMINGHAM STHN COLLEGE  00101200100074     00048700000300048500003000100500000000000000000000000000000000101               1
001012100100   5006010351223   064    4001005BIRMINGHAM STHN COLLEGE  00101200100124     00048700000300048500003000100500000000000000000000000000000000101               1
001012100100   5006010351223   064    4001005BIRMINGHAM STHN COLLEGE  00101200100134     00010500000000011200000400022100000000000000000000000000000000101               1
001012100100   5006010351223   064    4001005BIRMINGHAM STHN COLLEGE  00101200100184     00048700000300048500003000100500000000000000000000000000000000101               1
001013100200   5011710351133   032    4001797JOHN C CALHOUN ST TECH JC00101300100014     00082800037400041000018500179700000000000000000000000000000000101               1
001013100200   5011710351133   032    4001797JOHN C CALHOUN ST TECH JC00101300100034     00082800037400041000018500179700000000000000000000000000000000101               1
001013100200   5011710351133   032    4001797JOHN C CALHOUN ST TECH JC00101300100074     00082800037400041000018500179700000000000000000000000000000000101               1
001013100200   5011710351133   032    4001797JOHN C CALHOUN ST TECH JC00101300100124     00082800037400041000018500179700000000000000000000000000000000101               1
001013100200   5011710351133   032    4001797JOHN C CALHOUN ST TECH JC00101300100134     00047100024300019500009900100800000000000000000000000000000000101               1
001013100200   5011710351133   032    4001797JOHN C CALHOUN ST TECH JC00101300100184     00082800037400041000018500179700000000000000000000000000000000101               1
001014100110   5007010352223   042    2000248DANIEL PAYNE COLLEGE     00101400100014     00002300000000006200000000008500000000000000000000000000000000101               1
001014100110   5007010352223   042    2000248DANIEL PAYNE COLLEGE     00101400100024     00004900000000011400000000016300000000000000000000000000000000101               1
001014100110   5007010352223   042    2000248DANIEL PAYNE COLLEGE     00101400100034     00007200000000017600000000024800000000000000000000000000000000101               1
001014100110   5007010352223   042    2000248DANIEL PAYNE COLLEGE     00101400100074     00007200000000017600000000024800000000000000000000000000000000101               1
001014100110   5007010352223   042    2000248DANIEL PAYNE COLLEGE     00101400100124     00007200000000017600000000024800000000000000000000000000000000101               1
001014100110   5007010352223   042    2000248DANIEL PAYNE COLLEGE     00101400100134     00001200000000003200000000004400000000000000000000000000000000101               1
001014100110   5007010352223   042    2000248DANIEL PAYNE COLLEGE     00101400100184     00007200000000017600000000024800000000000000000000000000000000101               1
001015100120   5008810351133   032    4001050ENTERPRISE ST JR COLLEGE 00101500100014     00035200014100025800010100085200000000000000000000000000000000101               1
001015100120   5008810351133   032    4001050ENTERPRISE ST JR COLLEGE 00101500100034     00035200014100025800010100085200000000000000000000000000000000101               1
001015100120   5008810351133   032    4001050ENTERPRISE ST JR COLLEGE 00101500100074     00035200014100025800010100085200000000000000000000000000000000101               1
001015100120   5008810351133   032    4001050ENTERPRISE ST JR COLLEGE 00101500100124     00035200014100025800010100085200000000000000000000000000000000101               1
001015100120   5008810351133   032    4001050ENTERPRISE ST JR COLLEGE 00101500100134     00020600003000013100004300041000000000000000000000000000000000101               1
001015100120   5008810351133   032    4001050ENTERPRISE ST JR COLLEGE 00101500100184     00035200014100025800010100085200000000000000000000000000000000101               1
001016100130   5008010351123   061    5003111FLORENCE STATE UNIVERSITY00101600100014     00094400004900080300004900184500000000000000000000000000000000101               1
001016100130   5008010351123   061    5003111FLORENCE STATE UNIVERSITY00101600100024     00050200003100049000003100105400000000000000000000000000000000101               1
001016100130   5008010351123   061    5003111FLORENCE STATE UNIVERSITY00101600100034     00144600008000129300008000289900000000000000000000000000000000101               1
001016100130   5008010351123   061    5003111FLORENCE STATE UNIVERSITY00101600100054     00000100003200000500006500010300000000000000000000000000000000101               1
001016100130   5008010351123   061    5003111FLORENCE STATE UNIVERSITY00101600100064     00001400004200000900004400010900000000000000000000000000000000101               1
001016100130   5008010351123   061    5003111FLORENCE STATE UNIVERSITY00101600100074     00146100015400130700018900311100000000000000000000000000000000101               1
001016100130   5008010351123   061    5003111FLORENCE STATE UNIVERSITY00101600100124     00146100015400130700018900311100000000000000000000000000000000101               1
001016100130   5008010351123   061    5003111FLORENCE STATE UNIVERSITY00101600100134     00035200001400027900002400066900000000000000000000000000000000101               1
001016100130   5008010351123   061    5003111FLORENCE STATE UNIVERSITY00101600100184     00146100015400130700018900311100000000000000000000000000000000101               1
001017100140   5008510351133   032    4002403GADSDEN STATE JR COLLEGE 00101700100014     00095100034200046500013700189500000000000000000000000000000000101               1
001017100140   5008510351133   032    4002403GADSDEN STATE JR COLLEGE 00101700100034     00095100034200046500013700189500000000000000000000000000000000101               1
001017100140   5008510351133   032    4002403GADSDEN STATE JR COLLEGE 00101700100074     00095100034200046500013700189500000000000000000000000000000000101               1
001017100140   5008510351133   032    4002403GADSDEN STATE JR COLLEGE 00101700100124     00095100034200046500013700189500000000000000000000000000000000101               1
001017100140   5008510351133   032    4002403GADSDEN STATE JR COLLEGE 00101700100134     00037000013300020000005900076200000000000000000000000000000000101               1
001017100140   5008510351133   032    4002403GADSDEN STATE JR COLLEGE 00101700100144     00024200007700015200003700050800000000000000000000000000000000101               1
001017100140   5008510351133   032    4002403GADSDEN STATE JR COLLEGE 00101700100164     00024200007700015200003700050800000000000000000000000000000000101               1
001017100140   5008510351133   032    4002403GADSDEN STATE JR COLLEGE 00101700100174     00009400003100006500001500020500000000000000000000000000000000101               1
001017100140   5008510351133   032    4002403GADSDEN STATE JR COLLEGE 00101700100184     00119300041900061700017400240300000000000000000000000000000000101               1
001018100150   5008710351133   032    3000774GEO WALLACE STATE TECH JC00101800100014     00035000007900021800005300070000000000000000000000000000000000101               1
001018100150   5008710351133   032    3000774GEO WALLACE STATE TECH JC00101800100034     00035000007900021800005300070000000000000000000000000000000000101               1
001018100150   5008710351133   032    3000774GEO WALLACE STATE TECH JC00101800100064     00000000003400000000004000007400000000000000000000000000000000101               1
001018100150   5008710351133   032    3000774GEO WALLACE STATE TECH JC00101800100074     00035000011300021800009300077400000000000000000000000000000000101               1
001018100150   5008710351133   032    3000774GEO WALLACE STATE TECH JC00101800100124     00035000011300021800009300077400000000000000000000000000000000101               1
001018100150   5008710351133   032    3000774GEO WALLACE STATE TECH JC00101800100134     00021100002600013300002900039900000000000000000000000000000000101               1
001018100150   5008710351133   032    3000774GEO WALLACE STATE TECH JC00101800100184     00035000011300021800009300077400000000000000000000000000000000101               1
001019100160   5010010351223   041    3000816HUNTINGDON COLLEGE       00101900100014     00016500000700024500001800043500000000000000000000000000000000101               1
001019100160   5010010351223   041    3000816HUNTINGDON COLLEGE       00101900100024     00011800000800018000002000032600000000000000000000000000000000101               1
001019100160   5010010351223   041    3000816HUNTINGDON COLLEGE       00101900100034     00028300001500042500003800076100000000000000000000000000000000101               1
001019100160   5010010351223   041    3000816HUNTINGDON COLLEGE       00101900100064     00000100001200000600002300004200000000000000000000000000000000101               1
001019100160   5010010351223   041    3000816HUNTINGDON COLLEGE       00101900100074     00028400002700043100006100080300000000000000000000000000000000101               1
001019100160   5010010351223   041    3000816HUNTINGDON COLLEGE       00101900100124     00028400002700043100006100080300000000000000000000000000000000101               1
001019100160   5010010351223   041    3000816HUNTINGDON COLLEGE       00101900100134     00009100000100013700000400023300000000000000000000000000000000101               1
001019100160   5010010351223   041    3000816HUNTINGDON COLLEGE       00101900100184     00028400002700043100006100080300000000000000000000000000000000101               1
001020100170   5011010351123   061    6005651JACKSONVL ST UNIVERSITY  00102000100014     00158400011100122700007700299900000000000000000000000000000000101               1
001020100170   5011010351123   061    6005651JACKSONVL ST UNIVERSITY  00102000100024     00134300017200082200010000243700000000000000000000000000000000101               1
001020100170   5011010351123   061    6005651JACKSONVL ST UNIVERSITY  00102000100034     00292700028300204900017700543600000000000000000000000000000000101               1
001020100170   5011010351123   061    6005651JACKSONVL ST UNIVERSITY  00102000100054     00000200004800000500002700008200000000000000000000000000000000101               1
001020100170   5011010351123   061    6005651JACKSONVL ST UNIVERSITY  00102000100064     00001000005300000900006100013300000000000000000000000000000000101               1
001020100170   5011010351123   061    6005651JACKSONVL ST UNIVERSITY  00102000100074     00293900038400206300026500565100000000000000000000000000000000101               1
001020100170   5011010351123   061    6005651JACKSONVL ST UNIVERSITY  00102000100124     00293900038400206300026500565100000000000000000000000000000000101               1
001020100170   5011010351123   061    6005651JACKSONVL ST UNIVERSITY  00102000100134     00067600002200050100001900121800000000000000000000000000000000101               1
001020100170   5011010351123   061    6005651JACKSONVL ST UNIVERSITY  00102000100184     00293900038400206300026500565100000000000000000000000000000000101               1
001021100180   5011510351133   032    3000663JEFFERSON DAVIS STATE JC 00102100100014     00035600003100019400008200066300000000000000000000000000000000101               1
001021100180   5011510351133   032    3000663JEFFERSON DAVIS STATE JC 00102100100034     00035600003100019400008200066300000000000000000000000000000000101               1
001021100180   5011510351133   032    3000663JEFFERSON DAVIS STATE JC 00102100100074     00035600003100019400008200066300000000000000000000000000000000101               1
001021100180   5011510351133   032    3000663JEFFERSON DAVIS STATE JC 00102100100124     00035600003100019400008200066300000000000000000000000000000000101               1
001021100180   5011510351133   032    3000663JEFFERSON DAVIS STATE JC 00102100100134     00010700000000009600000000020300000000000000000000000000000000101               1
001021100180   5011510351133   032    3000663JEFFERSON DAVIS STATE JC 00102100100184     00035600003100019400008200066300000000000000000000000000000000101               1
001022100190   5005510351133   032    5004084JEFFERSON ST JR COLLEGE  00102200100014     00139900057200045900016700259700000000000000000000000000000000101               1
001022100190   5005510351133   032    5004084JEFFERSON ST JR COLLEGE  00102200100034     00139900057200045900016700259700000000000000000000000000000000101               1
001022100190   5005510351133   032    5004084JEFFERSON ST JR COLLEGE  00102200100074     00139900057200045900016700259700000000000000000000000000000000101               1
001022100190   5005510351133   032    5004084JEFFERSON ST JR COLLEGE  00102200100124     00139900057200045900016700259700000000000000000000000000000000101               1
001022100190   5005510351133   032    5004084JEFFERSON ST JR COLLEGE  00102200100134     00056100011100020400006900094500000000000000000000000000000000101               1
001022100190   5005510351133   032    5004084JEFFERSON ST JR COLLEGE  00102200100144     00046300038700043800019900148700000000000000000000000000000000101               1
001022100190   5005510351133   032    5004084JEFFERSON ST JR COLLEGE  00102200100164     00046300038700043800019900148700000000000000000000000000000000101               1
001022100190   5005510351133   032    5004084JEFFERSON ST JR COLLEGE  00102200100174     00020200008700018100006400053400000000000000000000000000000000101               1
001022100190   5005510351133   032    5004084JEFFERSON ST JR COLLEGE  00102200100184     00186200095900089700036600408400000000000000000000000000000000101               1
001023100210   5012010351222   041    2000454JUDSON COLLEGE           00102300100014     00000200002400027600000800031000000000000000000000000000000000101               1
001023100210   5012010351222   041    2000454JUDSON COLLEGE           00102300100024     00000100000000013200001100014400000000000000000000000000000000101               1
001023100210   5012010351222   041    2000454JUDSON COLLEGE           00102300100034     00000300002400040800001900045400000000000000000000000000000000101               1
001023100210   5012010351222   041    2000454JUDSON COLLEGE           00102300100074     00000300002400040800001900045400000000000000000000000000000000101               1
001023100210   5012010351222   041    2000454JUDSON COLLEGE           00102300100124     00000300002400040800001900045400000000000000000000000000000000101               1
001023100210   5012010351222   041    2000454JUDSON COLLEGE           00102300100134     00000100001700015700000100017600000000000000000000000000000000101               1
001023100210   5012010351222   041    2000454JUDSON COLLEGE           00102300100184     00000300002400040800001900045400000000000000000000000000000000101               1
001024100220   5013010351123   062    4001775LIVINGSTON UNIVERSITY    00102400100014     00053400000300025400000200079300000000000000000000000000000000202               1
001024100220   5013010351123   062    4001775LIVINGSTON UNIVERSITY    00102400100024     00050200000600018600000100069500000000000000000000000000000000202               1
001024100220   5013010351123   062    4001775LIVINGSTON UNIVERSITY    00102400100034     00103600000900044000000300148800000000000000000000000000000000202               1
001024100220   5013010351123   062    4001775LIVINGSTON UNIVERSITY    00102400100054     00002100003900002300002600010900000000000000000000000000000000202               1
001024100220   5013010351123   062    4001775LIVINGSTON UNIVERSITY    00102400100064     00000000001100000000000800001900000000000000000000000000000000202               1
001024100220   5013010351123   062    4001775LIVINGSTON UNIVERSITY    00102400100074     00105700005900046300003700161600000000000000000000000000000000202               1
001024100220   5013010351123   062    4001775LIVINGSTON UNIVERSITY    00102400100084     00000000000500000000000200000700000000000000000000000000000000202               1
001024100220   5013010351123   062    4001775LIVINGSTON UNIVERSITY    00102400100094     00000000003500000000011200014700000000000000000000000000000000202               1
001024100220   5013010351123   062    4001775LIVINGSTON UNIVERSITY    00102400100114     00000000004000000000011400015400000000000000000000000000000000202               1
001024100220   5013010351123   062    4001775LIVINGSTON UNIVERSITY    00102400100124     00105700009900046300015100177000000000000000000000000000000000202               1
001024100220   5013010351123   062    4001775LIVINGSTON UNIVERSITY    00102400100134     00020100000000010400000000030500000000000000000000000000000000202               1
001024100220   5013010351123   062    4001775LIVINGSTON UNIVERSITY    00102400100184     00105700009900046300015100177000000000000000000000000000000000202               1
001026100240   5014010351231   031    2000395MARION INSTITUTE         00102600100014     00038800000400000000000000039200000000000000000000000000000000101               1
001026100240   5014010351231   031    2000395MARION INSTITUTE         00102600100034     00038800000400000000000000039200000000000000000000000000000000101               1
001026100240   5014010351231   031    2000395MARION INSTITUTE         00102600100074     00038800000400000000000000039200000000000000000000000000000000101               1
001026100240   5014010351231   031    2000395MARION INSTITUTE         00102600100124     00038800000400000000000000039200000000000000000000000000000000101               1
001026100240   5014010351231   031    2000395MARION INSTITUTE         00102600100134     00024300000000000000000000024300000000000000000000000000000000101               1
001026100240   5014010351231   031    2000395MARION INSTITUTE         00102600100184     00038800000400000000000000039200000000000000000000000000000000101               1
001028100250   5015010352223   041    3000999MILES COLLEGE            00102800100014     00031700003100032700003300070800000000000000000000000000000000101               1
001028100250   5015010352223   041    3000999MILES COLLEGE            00102800100024     00010100002100013100004500029800000000000000000000000000000000101               1
001028100250   5015010352223   041    3000999MILES COLLEGE            00102800100034     00041800005200045800007800100600000000000000000000000000000000101               1
001028100250   5015010352223   041    3000999MILES COLLEGE            00102800100074     00041800005200045800007800100600000000000000000000000000000000101               1
001028100250   5015010352223   041    3000999MILES COLLEGE            00102800100124     00041800005200045800007800100600000000000000000000000000000000101               1
001028100250   5015010352223   041    3000999MILES COLLEGE            00102800100134     00012900000500015600000900029900000000000000000000000000000000101               1
001028100250   5015010352223   041    3000999MILES COLLEGE            00102800100184     00041800005200045800007800100600000000000000000000000000000000101               1
001029100260   5014910351223   041    2000406MOBILE COLLEGE           00102900100014     00010800000200008100000500019600000000000000000000000000000000101               1
001029100260   5014910351223   041    2000406MOBILE COLLEGE           00102900100024     00010400001100006400000800018700000000000000000000000000000000101               1
001029100260   5014910351223   041    2000406MOBILE COLLEGE           00102900100034     00021200001300014500001300038300000000000000000000000000000000101               1
001029100260   5014910351223   041    2000406MOBILE COLLEGE           00102900100064     00000100000400000000001800002300000000000000000000000000000000101               1
001029100260   5014910351223   041    2000406MOBILE COLLEGE           00102900100074     00021300001700014500003100040600000000000000000000000000000000101               1
001029100260   5014910351223   041    2000406MOBILE COLLEGE           00102900100084     00000000001800000000000000001800000000000000000000000000000000505               1
001029100260   5014910351223   041    2000406MOBILE COLLEGE           00102900100114     00000000001800000000000000001800000000000000000000000000000000105               1
001029100260   5014910351223   041    2000406MOBILE COLLEGE           00102900100124     00021300003500014500003100042400000000000000000000000000000000105               1
001029100260   5014910351223   041    2000406MOBILE COLLEGE           00102900100134     00003800000000002900000000006700000000000000000000000000000000101               1
001029100260   5014910351223   041    2000406MOBILE COLLEGE           00102900100184     00021300003500014500003100042400000000000000000000000000000000105               1
001030100270   5015110351133   032    3000895MOBILE STATE JR COLLEGE  00103000100014     00031700002500041200002900078300000000000000000000000000000000202               1
001030100270   5015110351133   032    3000895MOBILE STATE JR COLLEGE  00103000100034     00031700002500041200002900078300000000000000000000000000000000202               1
001030100270   5015110351133   032    3000895MOBILE STATE JR COLLEGE  00103000100064     00000200000300000300000900001700000000000000000000000000000000202               1
001030100270   5015110351133   032    3000895MOBILE STATE JR COLLEGE  00103000100074     00031900002800041500003800080000000000000000000000000000000000202               1
001030100270   5015110351133   032    3000895MOBILE STATE JR COLLEGE  00103000100124     00031900002800041500003800080000000000000000000000000000000000202               1
001030100270   5015110351133   032    3000895MOBILE STATE JR COLLEGE  00103000100134     00013500000800017100001100032500000000000000000000000000000000202               1
001030100270   5015110351133   032    3000895MOBILE STATE JR COLLEGE  00103000100144     00001000000100007300001100009500000000000000000000000000000000202               1
001030100270   5015110351133   032    3000895MOBILE STATE JR COLLEGE  00103000100164     00001000000100007300001100009500000000000000000000000000000000202               1
001030100270   5015110351133   032    3000895MOBILE STATE JR COLLEGE  00103000100174     00000400000100002900000900004300000000000000000000000000000000202               1
001030100270   5015110351133   032    3000895MOBILE STATE JR COLLEGE  00103000100184     00032900002900048800004900089500000000000000000000000000000000202               1
001031100280   5015310351133   032    3000702NTHEST ALA ST JR COLLEGE 00103100100014     00035300003500021600003800064200000000000000000000000000000000101               1
001031100280   5015310351133   032    3000702NTHEST ALA ST JR COLLEGE 00103100100034     00035300003500021600003800064200000000000000000000000000000000101               1
001031100280   5015310351133   032    3000702NTHEST ALA ST JR COLLEGE 00103100100074     00035300003500021600003800064200000000000000000000000000000000101               1
001031100280   5015310351133   032    3000702NTHEST ALA ST JR COLLEGE 00103100100124     00035300003500021600003800064200000000000000000000000000000000101               1
001031100280   5015310351133   032    3000702NTHEST ALA ST JR COLLEGE 00103100100134     00020100000000009200000000029300000000000000000000000000000000101               1
001031100280   5015310351133   032    3000702NTHEST ALA ST JR COLLEGE 00103100100184     00035300003500021600003800064200000000000000000000000000000000101               1
001032100290   5015510351133   032    3000624NTHWST ALA ST JR COLLEGE 00103200100014     00035400002500018900003600060400000000000000000000000000000000101               1
001032100290   5015510351133   032    3000624NTHWST ALA ST JR COLLEGE 00103200100034     00035400002500018900003600060400000000000000000000000000000000101               1
001032100290   5015510351133   032    3000624NTHWST ALA ST JR COLLEGE 00103200100074     00035400002500018900003600060400000000000000000000000000000000101               1
001032100290   5015510351133   032    3000624NTHWST ALA ST JR COLLEGE 00103200100124     00035400002500018900003600060400000000000000000000000000000000101               1
001032100290   5015510351133   032    3000624NTHWST ALA ST JR COLLEGE 00103200100134     00014500001800007500001600025400000000000000000000000000000000101               1
001032100290   5015510351133   032    3000624NTHWST ALA ST JR COLLEGE 00103200100144     00002000000000000000000000002000000000000000000000000000000000101               1
001032100290   5015510351133   032    3000624NTHWST ALA ST JR COLLEGE 00103200100164     00002000000000000000000000002000000000000000000000000000000000101               1
001032100290   5015510351133   032    3000624NTHWST ALA ST JR COLLEGE 00103200100174     00000700000000000000000000000700000000000000000000000000000000101               1
001032100290   5015510351133   032    3000624NTHWST ALA ST JR COLLEGE 00103200100184     00037400002500018900003600062400000000000000000000000000000000101               1
001033100300   5016010352223   042    2000428OAKWOOD COLLEGE          00103300100014     00017900000000026200000000044100000000000000000000000000000000202               1
001033100300   5016010352223   042    2000428OAKWOOD COLLEGE          00103300100024     00009100000000007700000000016800000000000000000000000000000000202               1
001033100300   5016010352223   042    2000428OAKWOOD COLLEGE          00103300100034     00027000000000033900000000060900000000000000000000000000000000202               1
001033100300   5016010352223   042    2000428OAKWOOD COLLEGE          00103300100064     00000000000700000000001500002200000000000000000000000000000000202               1
001033100300   5016010352223   042    2000428OAKWOOD COLLEGE          00103300100074     00027000000700033900001500063100000000000000000000000000000000202               1
001033100300   5016010352223   042    2000428OAKWOOD COLLEGE          00103300100124     00027000000700033900001500063100000000000000000000000000000000202               1
001033100300   5016010352223   042    2000428OAKWOOD COLLEGE          00103300100134     00010700000000018100000000028800000000000000000000000000000000202               1
001033100300   5016010352223   042    2000428OAKWOOD COLLEGE          00103300100184     00027000000700033900001500063100000000000000000000000000000000202               1
001034100310   5015210351133   032    2000436PATRICK HENRY STATE JC   00103400100014     00019600002900012000004700039200000000000000000000000000000000101               1
001034100310   5015210351133   032    2000436PATRICK HENRY STATE JC   00103400100034     00019600002900012000004700039200000000000000000000000000000000101               1
001034100310   5015210351133   032    2000436PATRICK HENRY STATE JC   00103400100064     00000000000500000000003900004400000000000000000000000000000000101               1
001034100310   5015210351133   032    2000436PATRICK HENRY STATE JC   00103400100074     00019600003400012000008600043600000000000000000000000000000000101               1
001034100310   5015210351133   032    2000436PATRICK HENRY STATE JC   00103400100124     00019600003400012000008600043600000000000000000000000000000000101               1
001034100310   5015210351133   032    2000436PATRICK HENRY STATE JC   00103400100134     00010500000100007000000400018000000000000000000000000000000000101               1
001034100310   5015210351133   032    2000436PATRICK HENRY STATE JC   00103400100184     00019600003400012000008600043600000000000000000000000000000000101               1
001035100320   5017010351232   031    1000152SACRED HEART COLLEGE     00103500100014     00000000000400012400002400015200000000000000000000000000000000101               1
001035100320   5017010351232   031    1000152SACRED HEART COLLEGE     00103500100034     00000000000400012400002400015200000000000000000000000000000000101               1
001035100320   5017010351232   031    1000152SACRED HEART COLLEGE     00103500100074     00000000000400012400002400015200000000000000000000000000000000101               1
001035100320   5017010351232   031    1000152SACRED HEART COLLEGE     00103500100124     00000000000400012400002400015200000000000000000000000000000000101               1
001035100320   5017010351232   031    1000152SACRED HEART COLLEGE     00103500100134     00000000000200006400000900007500000000000000000000000000000000101               1
001035100320   5017010351232   031    1000152SACRED HEART COLLEGE     00103500100184     00000000000400012400002400015200000000000000000000000000000000101               1
001036100340   5009010351223   061    5002676SAMFORD UNIVERSITY       00103600100014     00038100010700033800009500092100000000000000000000000000000000202               1
001036100340   5009010351223   061    5002676SAMFORD UNIVERSITY       00103600100024     00049500014000033100009400106000000000000000000000000000000000202               1
001036100340   5009010351223   061    5002676SAMFORD UNIVERSITY       00103600100034     00087600024700066900018900198100000000000000000000000000000000202               1
001036100340   5009010351223   061    5002676SAMFORD UNIVERSITY       00103600100044     00028400008100001300000400038200000000000000000000000000000000202               1
001036100340   5009010351223   061    5002676SAMFORD UNIVERSITY       00103600100054     00011000003100007000002100023200000000000000000000000000000000202               1
001036100340   5009010351223   061    5002676SAMFORD UNIVERSITY       00103600100064     00003500001100002700000800008100000000000000000000000000000000202               1
001036100340   5009010351223   061    5002676SAMFORD UNIVERSITY       00103600100074     00130500037000077900022200267600000000000000000000000000000000202               1
001036100340   5009010351223   061    5002676SAMFORD UNIVERSITY       00103600100124     00130500037000077900022200267600000000000000000000000000000000202               1
001036100340   5009010351223   061    5002676SAMFORD UNIVERSITY       00103600100134     00019600005600018600005300049100000000000000000000000000000000202               1
001036100340   5009010351223   061    5002676SAMFORD UNIVERSITY       00103600100184     00130500037000077900022200267600000000000000000000000000000000202               1
001037100350   5018410352223   041    2000374SELMA UNIVERSITY         00103700100014     00017600000500019000000300037400000000000000000000000000000000101               1
001037100350   5018410352223   041    2000374SELMA UNIVERSITY         00103700100024     00000500000000000000000000000500000000000000000000000000000000101               1
001037100350   5018410352223   041    2000374SELMA UNIVERSITY         00103700100034     00018100000500019000000300037900000000000000000000000000000000101               1
001037100350   5018410352223   041    2000374SELMA UNIVERSITY         00103700100074     00018100000500019000000300037900000000000000000000000000000000101               1
001037100350   5018410352223   041    2000374SELMA UNIVERSITY         00103700100124     00018100000500019000000300037900000000000000000000000000000000101               1
001037100350   5018410352223   041    2000374SELMA UNIVERSITY         00103700100134     00008700000000009200000000017900000000000000000000000000000000101               1
001037100350   5018410352223   041    2000374SELMA UNIVERSITY         00103700100184     00018100000500019000000300037900000000000000000000000000000000101               1
001038100360   5019010351133   032    3000750SNEAD STATE JR COLLEGE   00103800100014     00037700008100023900005500075200000000000000000000000000000000202               1
001038100360   5019010351133   032    3000750SNEAD STATE JR COLLEGE   00103800100034     00037700008100023900005500075200000000000000000000000000000000202               1
001038100360   5019010351133   032    3000750SNEAD STATE JR COLLEGE   00103800100074     00037700008100023900005500075200000000000000000000000000000000202               1
001038100360   5019010351133   032    3000750SNEAD STATE JR COLLEGE   00103800100124     00037700008100023900005500075200000000000000000000000000000000202               1
001038100360   5019010351133   032    3000750SNEAD STATE JR COLLEGE   00103800100134     00021600000000012600000000034200000000000000000000000000000000202               1
001038100360   5019010351133   032    3000750SNEAD STATE JR COLLEGE   00103800100184     00037700008100023900005500075200000000000000000000000000000000202               1
001039100370   5020010351223   041    1000170STHESTN BIBLE COLLEGE    00103900100014     00004700000800004500000200010200000000000000000000000000000000101               1
001039100370   5020010351223   041    1000170STHESTN BIBLE COLLEGE    00103900100024     00002000000200003000000100005300000000000000000000000000000000101               1
001039100370   5020010351223   041    1000170STHESTN BIBLE COLLEGE    00103900100034     00006700001000007500000300015500000000000000000000000000000000101               1
001039100370   5020010351223   041    1000170STHESTN BIBLE COLLEGE    00103900100064     00000200000500000000000800001500000000000000000000000000000000101               1
001039100370   5020010351223   041    1000170STHESTN BIBLE COLLEGE    00103900100074     00006900001500007500001100017000000000000000000000000000000000101               1
001039100370   5020010351223   041    1000170STHESTN BIBLE COLLEGE    00103900100124     00006900001500007500001100017000000000000000000000000000000000101               1
001039100370   5020010351223   041    1000170STHESTN BIBLE COLLEGE    00103900100134     00002200000300002700000100005300000000000000000000000000000000101               1
001039100370   5020010351223   041    1000170STHESTN BIBLE COLLEGE    00103900100184     00006900001500007500001100017000000000000000000000000000000000101               1
001040100380   5021010351133   032    3000579STHN UNION ST JR COLLEGE 00104000100014     00031900006300013300005300056800000000000000000000000000000000101               1
001040100380   5021010351133   032    3000579STHN UNION ST JR COLLEGE 00104000100034     00031900006300013300005300056800000000000000000000000000000000101               1
001040100380   5021010351133   032    3000579STHN UNION ST JR COLLEGE 00104000100064     00000000000200000100000800001100000000000000000000000000000000101               1
001040100380   5021010351133   032    3000579STHN UNION ST JR COLLEGE 00104000100074     00031900006500013400006100057900000000000000000000000000000000101               1
001040100380   5021010351133   032    3000579STHN UNION ST JR COLLEGE 00104000100124     00031900006500013400006100057900000000000000000000000000000000101               1
001040100380   5021010351133   032    3000579STHN UNION ST JR COLLEGE 00104000100134     00010000001000005000000600016600000000000000000000000000000000101               1
001040100380   5021010351133   032    3000579STHN UNION ST JR COLLEGE 00104000100184     00031900006500013400006100057900000000000000000000000000000000101               1
001041100390   5022010351223   041    3000970SPRING HILL COLLEGE      00104100100014     00022900000000018200000000041100000000000000000000000000000000101               1
001041100390   5022010351223   041    3000970SPRING HILL COLLEGE      00104100100024     00022800000000015600000000038400000000000000000000000000000000101               1
001041100390   5022010351223   041    3000970SPRING HILL COLLEGE      00104100100034     00045700000000033800000000079500000000000000000000000000000000101               1
001041100390   5022010351223   041    3000970SPRING HILL COLLEGE      00104100100064     00000500005800002000009200017500000000000000000000000000000000101               1
001041100390   5022010351223   041    3000970SPRING HILL COLLEGE      00104100100074     00046200005800035800009200097000000000000000000000000000000000101               1
001041100390   5022010351223   041    3000970SPRING HILL COLLEGE      00104100100124     00046200005800035800009200097000000000000000000000000000000000101               1
001041100390   5022010351223   041    3000970SPRING HILL COLLEGE      00104100100134     00011000000000011400000000022400000000000000000000000000000000101               1
001041100390   5022010351223   041    3000970SPRING HILL COLLEGE      00104100100184     00046200005800035800009200097000000000000000000000000000000000101               1
001043100330   5018010351223   041    3000715SAINT BERNARD COLLEGE    00104300100014     00035400000000000700000000036100000000000000000000000000000000101               1
001043100330   5018010351223   041    3000715SAINT BERNARD COLLEGE    00104300100024     00027000001300004500002600035400000000000000000000000000000000101               1
001043100330   5018010351223   041    3000715SAINT BERNARD COLLEGE    00104300100034     00062400001300005200002600071500000000000000000000000000000000101               1
001043100330   5018010351223   041    3000715SAINT BERNARD COLLEGE    00104300100074     00062400001300005200002600071500000000000000000000000000000000101               1
001043100330   5018010351223   041    3000715SAINT BERNARD COLLEGE    00104300100124     00062400001300005200002600071500000000000000000000000000000000101               1
001043100330   5018010351223   041    3000715SAINT BERNARD COLLEGE    00104300100134     00016900000000000000000000016900000000000000000000000000000000101               1
001043100330   5018010351223   041    3000715SAINT BERNARD COLLEGE    00104300100184     00062400001300005200002600071500000000000000000000000000000000101               1
001044100400   5023010352223   041    3000513STILLMAN COLLEGE         00104400100014     00013800000200021000000000035000000000000000000000000000000000202               1
001044100400   5023010352223   041    3000513STILLMAN COLLEGE         00104400100024     00008100000000016100000100024300000000000000000000000000000000202               1
001044100400   5023010352223   041    3000513STILLMAN COLLEGE         00104400100034     00021900000200037100000100059300000000000000000000000000000000202               1
001044100400   5023010352223   041    3000513STILLMAN COLLEGE         00104400100064     00000100000000000000000000000100000000000000000000000000000000202               1
001044100400   5023010352223   041    3000513STILLMAN COLLEGE         00104400100074     00022000000200037100000100059400000000000000000000000000000000202               1
001044100400   5023010352223   041    3000513STILLMAN COLLEGE         00104400100124     00022000000200037100000100059400000000000000000000000000000000202               1
001044100400   5023010352223   041    3000513STILLMAN COLLEGE         00104400100134     00003400000100007200000000010700000000000000000000000000000000808               1
001044100400   5023010352223   041    3000513STILLMAN COLLEGE         00104400100154     00000000003900000000004600008500000000000000000000000000000000202               1
001044100400   5023010352223   041    3000513STILLMAN COLLEGE         00104400100164     00000000003900000000004600008500000000000000000000000000000000202               1
001044100400   5023010352223   041    3000513STILLMAN COLLEGE         00104400100184     00022000004100037100004700067900000000000000000000000000000000202               1
001046100410   5024010352223   041    3000546TALLADEGA COLLEGE        00104600100014     00011000000000022500000000033500000000000000000000000000000000101               1
001046100410   5024010352223   041    3000546TALLADEGA COLLEGE        00104600100024     00008700000000012500000000021200000000000000000000000000000000101               1
001046100410   5024010352223   041    3000546TALLADEGA COLLEGE        00104600100034     00019700000000035000000000054700000000000000000000000000000000101               1
001046100410   5024010352223   041    3000546TALLADEGA COLLEGE        00104600100064     00000000000100000000000200000300000000000000000000000000000000101               1
001046100410   5024010352223   041    3000546TALLADEGA COLLEGE        00104600100074     00019700000100035000000200055000000000000000000000000000000000101               1
001046100410   5024010352223   041    3000546TALLADEGA COLLEGE        00104600100124     00019700000100035000000200055000000000000000000000000000000000101               1
001046100410   5024010352223   041    3000546TALLADEGA COLLEGE        00104600100134     00006600000000012400000000019000000000000000000000000000000000101               1
001046100410   5024010352223   041    3000546TALLADEGA COLLEGE        00104600100184     00019700000100035000000200055000000000000000000000000000000000101               1
001047100430B016025010351123   062    5003179TROY STATE U MAIN CAMPUS 00104700100014     00105100001200084200000800191300000000000000000000000000000000101               1
001047100430B016025010351123   062    5003179TROY STATE U MAIN CAMPUS 00104700100024     00072100001200049000001200123500000000000000000000000000000000101               1
001047100430B016025010351123   062    5003179TROY STATE U MAIN CAMPUS 00104700100034     00177200002400133200002000314800000000000000000000000000000000101               1
001047100430B016025010351123   062    5003179TROY STATE U MAIN CAMPUS 00104700100054     00000000000000000100000200000300000000000000000000000000000000101               1
001047100430B016025010351123   062    5003179TROY STATE U MAIN CAMPUS 00104700100064     00000300000200000200000100000800000000000000000000000000000000101               1
001047100430B016025010351123   062    5003179TROY STATE U MAIN CAMPUS 00104700100074     00177500002600133500002300315900000000000000000000000000000000101               1
001047100430B016025010351123   062    5003179TROY STATE U MAIN CAMPUS 00104700100084     00000000003300000000003200006500000000000000000000000000000000101               1
001047100430B016025010351123   062    5003179TROY STATE U MAIN CAMPUS 00104700100104     00000000000200000000000300000500000000000000000000000000000000101               1
001047100430B016025010351123   062    5003179TROY STATE U MAIN CAMPUS 00104700100114     00000000003500000000003500007000000000000000000000000000000000101               1
001047100430B016025010351123   062    5003179TROY STATE U MAIN CAMPUS 00104700100124     00177500006100133500005800322900000000000000000000000000000000101               1
001047100430B016025010351123   062    5003179TROY STATE U MAIN CAMPUS 00104700100134     00033000000900026700000200060800000000000000000000000000000000101               1
001047100430B016025010351123   062    5003179TROY STATE U MAIN CAMPUS 00104700100184     00177500006100133500005800322900000000000000000000000000000000101               1
001048100440B027920110351123   062    4001082TROY STATE U FORT RUCKER 00104800100014     00003300048500001000007900060700000000000000000000000000000000101               1
001048100440B027920110351123   062    4001082TROY STATE U FORT RUCKER 00104800100024     00005400015500000900004700026500000000000000000000000000000000101               1
001048100440B027920110351123   062    4001082TROY STATE U FORT RUCKER 00104800100034     00008700064000001900012600087200000000000000000000000000000000101               1
001048100440B027920110351123   062    4001082TROY STATE U FORT RUCKER 00104800100054     00000400009400000100005600015500000000000000000000000000000000101               1
001048100440B027920110351123   062    4001082TROY STATE U FORT RUCKER 00104800100064     00000000003100000000000800003900000000000000000000000000000000101               1
001048100440B027920110351123   062    4001082TROY STATE U FORT RUCKER 00104800100074     00009100076500002000019000106600000000000000000000000000000000101               1
001048100440B027920110351123   062    4001082TROY STATE U FORT RUCKER 00104800100124     00009100076500002000019000106600000000000000000000000000000000101               1
001048100440B027920110351123   062    4001082TROY STATE U FORT RUCKER 00104800100134     00002800021800001700006500032800000000000000000000000000000000101               1
001048100440B027920110351123   062    4001082TROY STATE U FORT RUCKER 00104800100184     00009100076500002000019000106600000000000000000000000000000000101               1
001049100450B037920210351123   062    3000763TROY STATE U MAXWLL GUNTR00104900100014     00004700023300001000009700038700000000000000000000000000000000101               1
001049100450B037920210351123   062    3000763TROY STATE U MAXWLL GUNTR00104900100024     00002300007800000200002400012700000000000000000000000000000000101               1
001049100450B037920210351123   062    3000763TROY STATE U MAXWLL GUNTR00104900100034     00007000031100001200012100051400000000000000000000000000000000101               1
001049100450B037920210351123   062    3000763TROY STATE U MAXWLL GUNTR00104900100054     00000400014100000600008500023600000000000000000000000000000000101               1
001049100450B037920210351123   062    3000763TROY STATE U MAXWLL GUNTR00104900100064     00000000001400000000001200002600000000000000000000000000000000101               1
001049100450B037920210351123   062    3000763TROY STATE U MAXWLL GUNTR00104900100074     00007400046600001800021800077600000000000000000000000000000000101               1
001049100450B037920210351123   062    3000763TROY STATE U MAXWLL GUNTR00104900100124     00007400046600001800021800077600000000000000000000000000000000101               1
001049100450B037920210351123   062    3000763TROY STATE U MAXWLL GUNTR00104900100134     00001900005900000400003200011400000000000000000000000000000000101               1
001049100450B037920210351123   062    3000763TROY STATE U MAXWLL GUNTR00104900100184     00007400046600001800021800077600000000000000000000000000000000101               1
001050100460   5026010352223   061    5003062TUSKEGEE INSTITUTE       00105000100014     00081500000400084900001500168300000000000000000000000000000000101               1
001050100460   5026010352223   061    5003062TUSKEGEE INSTITUTE       00105000100024     00046600001700053100002400103800000000000000000000000000000000101               1
001050100460   5026010352223   061    5003062TUSKEGEE INSTITUTE       00105000100034     00128100002100138000003900272100000000000000000000000000000000101               1
001050100460   5026010352223   061    5003062TUSKEGEE INSTITUTE       00105000100044     00009300000000001700000000011000000000000000000000000000000000101               1
001050100460   5026010352223   061    5003062TUSKEGEE INSTITUTE       00105000100054     00008900004400003800002400019500000000000000000000000000000000101               1
001050100460   5026010352223   061    5003062TUSKEGEE INSTITUTE       00105000100064     00001900000300000500000900003600000000000000000000000000000000101               1
001050100460   5026010352223   061    5003062TUSKEGEE INSTITUTE       00105000100074     00148200006800144000007200306200000000000000000000000000000000101               1
001050100460   5026010352223   061    5003062TUSKEGEE INSTITUTE       00105000100124     00148200006800144000007200306200000000000000000000000000000000101               1
001050100460   5026010352223   061    5003062TUSKEGEE INSTITUTE       00105000100134     00029200000100032700000000062000000000000000000000000000000000101               1
001050100460   5026010352223   061    5003062TUSKEGEE INSTITUTE       00105000100184     00148200006800144000007200306200000000000000000000000000000000101               1
001051100480C016027010351113   081    7013358U OF ALABAMA MAIN CAMPUS 00105100100014     00327900012400217900012100570300000000000000000000000000000000202               1
001051100480C016027010351113   081    7013358U OF ALABAMA MAIN CAMPUS 00105100100024     00303100011500182200010100506900000000000000000000000000000000202               1
001051100480C016027010351113   081    7013358U OF ALABAMA MAIN CAMPUS 00105100100034     00631000023900400100022201077200000000000000000000000000000000202               1
001051100480C016027010351113   081    7013358U OF ALABAMA MAIN CAMPUS 00105100100044     00030600000200001600000100032500000000000000000000000000000000202               1
001051100480C016027010351113   081    7013358U OF ALABAMA MAIN CAMPUS 00105100100054     00062200052600040200038700193700000000000000000000000000000000202               1
001051100480C016027010351113   081    7013358U OF ALABAMA MAIN CAMPUS 00105100100074     00723800076700441900061001303400000000000000000000000000000000202               1
001051100480C016027010351113   081    7013358U OF ALABAMA MAIN CAMPUS 00105100100084     00000000015100000000007000022100000000000000000000000000000000202               1
001051100480C016027010351113   081    7013358U OF ALABAMA MAIN CAMPUS 00105100100094     00000000004100000000006200010300000000000000000000000000000000202               1
001051100480C016027010351113   081    7013358U OF ALABAMA MAIN CAMPUS 00105100100114     00000000019200000000013200032400000000000000000000000000000000202               1
001051100480C016027010351113   081    7013358U OF ALABAMA MAIN CAMPUS 00105100100124     00723800095900441900074201335800000000000000000000000000000000202               1
001051100480C016027010351113   081    7013358U OF ALABAMA MAIN CAMPUS 00105100100134     00138500003600109300000200251600000000000000000000000000000000202               1
001051100480C016027010351113   081    7013358U OF ALABAMA MAIN CAMPUS 00105100100184     00723800095900441900074201335800000000000000000000000000000000202               1
001052100490C027921010351113   082    6005311U ALABAMA AT BIRMINGHAM  00105200100014     00044500053700045300050100193600000000000000000000000000000000202               1
001052100490C027921010351113   082    6005311U ALABAMA AT BIRMINGHAM  00105200100024     00047300042000047600027000163900000000000000000000000000000000202               1
001052100490C027921010351113   082    6005311U ALABAMA AT BIRMINGHAM  00105200100034     00091800095700092900077100357500000000000000000000000000000000202               1
001052100490C027921010351113   082    6005311U ALABAMA AT BIRMINGHAM  00105200100044     00053400000000001800000000055200000000000000000000000000000000606               1
001052100490C027921010351113   082    6005311U ALABAMA AT BIRMINGHAM  00105200100054     00028100006000008200014900057200000000000000000000000000000000206               1
001052100490C027921010351113   082    6005311U ALABAMA AT BIRMINGHAM  00105200100064     00000000023700000000007100030800000000000000000000000000000000202               1
001052100490C027921010351113   082    6005311U ALABAMA AT BIRMINGHAM  00105200100074     00173300125400102900099100500700000000000000000000000000000000206               1
001052100490C027921010351113   082    6005311U ALABAMA AT BIRMINGHAM  00105200100124     00173300125400102900099100500700000000000000000000000000000000206               1
001052100490C027921010351113   082    6005311U ALABAMA AT BIRMINGHAM  00105200100134     00019900000000021800000000041700000000000000000000000000000000202               1
001052100490C027921010351113   082    6005311U ALABAMA AT BIRMINGHAM  00105200100184     00173300125400102900099100500700000000000000000000000000000000206               1
001055100500C037900310351113   064    5002535U ALABAMA AT HUNTSVILLE  00105500100014     00037000027500017500018000100000000000000000000000000000000000202               1
001055100500C037900310351113   064    5002535U ALABAMA AT HUNTSVILLE  00105500100024     00028000020500013300013500075300000000000000000000000000000000202               1
001055100500C037900310351113   064    5002535U ALABAMA AT HUNTSVILLE  00105500100034     00065000048000030800031500175300000000000000000000000000000000202               1
001055100500C037900310351113   064    5002535U ALABAMA AT HUNTSVILLE  00105500100054     00003000030400000500002300036200000000000000000000000000000000202               1
001055100500C037900310351113   064    5002535U ALABAMA AT HUNTSVILLE  00105500100064     00001000029700000800010500042000000000000000000000000000000000202               1
001055100500C037900310351113   064    5002535U ALABAMA AT HUNTSVILLE  00105500100074     00069000108100032100044300253500000000000000000000000000000000202               1
001055100500C037900310351113   064    5002535U ALABAMA AT HUNTSVILLE  00105500100124     00069000108100032100044300253500000000000000000000000000000000202               1
001055100500C037900310351113   064    5002535U ALABAMA AT HUNTSVILLE  00105500100134     00013300004700005100003500026600000000000000000000000000000000202               1
001055100500C037900310351113   064    5002535U ALABAMA AT HUNTSVILLE  00105500100184     00069000108100032100044300253500000000000000000000000000000000202               1
001057100520   5027510351123   062    5004526U OF SOUTH ALABAMA       00105700100014     00124600023000084500022800254900000000000000000000000000000000101               1
001057100520   5027510351123   062    5004526U OF SOUTH ALABAMA       00105700100024     00076100013600050100009100148900000000000000000000000000000000101               1
001057100520   5027510351123   062    5004526U OF SOUTH ALABAMA       00105700100034     00200700036600134600031900403800000000000000000000000000000000101               1
001057100520   5027510351123   062    5004526U OF SOUTH ALABAMA       00105700100054     00001800013700002800014200032500000000000000000000000000000000101               1
001057100520   5027510351123   062    5004526U OF SOUTH ALABAMA       00105700100064     00000000010700000000005600016300000000000000000000000000000000101               1
001057100520   5027510351123   062    5004526U OF SOUTH ALABAMA       00105700100074     00202500061000137400051700452600000000000000000000000000000000101               1
001057100520   5027510351123   062    5004526U OF SOUTH ALABAMA       00105700100124     00202500061000137400051700452600000000000000000000000000000000101               1
001057100520   5027510351123   062    5004526U OF SOUTH ALABAMA       00105700100134     00045400018100035300016000114800000000000000000000000000000000101               1
001057100520   5027510351123   062    5004526U OF SOUTH ALABAMA       00105700100184     00202500061000137400051700452600000000000000000000000000000000101               1
001058100530   5028010351233   031    3000783WALKER COLLEGE           00105800100014     00046000005900022200004200078300000000000000000000000000000000101               1
001058100530   5028010351233   031    3000783WALKER COLLEGE           00105800100034     00046000005900022200004200078300000000000000000000000000000000101               1
001058100530   5028010351233   031    3000783WALKER COLLEGE           00105800100074     00046000005900022200004200078300000000000000000000000000000000101               1
001058100530   5028010351233   031    3000783WALKER COLLEGE           00105800100124     00046000005900022200004200078300000000000000000000000000000000101               1
001058100530   5028010351233   031    3000783WALKER COLLEGE           00105800100134     00022300001900010500001300036000000000000000000000000000000000101               1
001058100530   5028010351233   031    3000783WALKER COLLEGE           00105800100184     00046000005900022200004200078300000000000000000000000000000000101               1
001059100540   5029010352133   032    3000826WENONAH STATE JR COLLEGE 00105900100014     00030000000200025200000700056100000000000000000000000000000000101               1
001059100540   5029010352133   032    3000826WENONAH STATE JR COLLEGE 00105900100034     00030000000200025200000700056100000000000000000000000000000000101               1
001059100540   5029010352133   032    3000826WENONAH STATE JR COLLEGE 00105900100064     00000600000000000600000000001200000000000000000000000000000000101               1
001059100540   5029010352133   032    3000826WENONAH STATE JR COLLEGE 00105900100074     00030600000200025800000700057300000000000000000000000000000000101               1
001059100540   5029010352133   032    3000826WENONAH STATE JR COLLEGE 00105900100124     00030600000200025800000700057300000000000000000000000000000000101               1
001059100540   5029010352133   032    3000826WENONAH STATE JR COLLEGE 00105900100134     00009300000000005600000000014900000000000000000000000000000000101               1
001059100540   5029010352133   032    3000826WENONAH STATE JR COLLEGE 00105900100144     00008900000300015700000400025300000000000000000000000000000000101               1
001059100540   5029010352133   032    3000826WENONAH STATE JR COLLEGE 00105900100164     00008900000300015700000400025300000000000000000000000000000000101               1
001059100540   5029010352133   032    3000826WENONAH STATE JR COLLEGE 00105900100174     00007300000000011600000000018900000000000000000000000000000000101               1
001059100540   5029010352133   032    3000826WENONAH STATE JR COLLEGE 00105900100184     00039500000500041500001100082600000000000000000000000000000000101               1
001060100550   5029510351133   032    4001188WM L YANCEY ST JR COLLEGE00106000100014     00083400004600027900002900118800000000000000000000000000000000101               1
001060100550   5029510351133   032    4001188WM L YANCEY ST JR COLLEGE00106000100034     00083400004600027900002900118800000000000000000000000000000000101               1
001060100550   5029510351133   032    4001188WM L YANCEY ST JR COLLEGE00106000100064     00000000000100000000000000000100000000000000000000000000000000101               1
001060100550   5029510351133   032    4001188WM L YANCEY ST JR COLLEGE00106000100074     00083400004700027900002900118900000000000000000000000000000000101               1
001060100550   5029510351133   032    4001188WM L YANCEY ST JR COLLEGE00106000100124     00083400004700027900002900118900000000000000000000000000000000101               1
001060100550   5029510351133   032    4001188WM L YANCEY ST JR COLLEGE00106000100134     00035600002400015400001300054700000000000000000000000000000000101               1
001060100550   5029510351133   032    4001188WM L YANCEY ST JR COLLEGE00106000100184     00083400004700027900002900118900000000000000000000000000000000101               1
001061110010   5000211481223   061    3000721ALASKA METH UNIVERSITY   00106100100014     00013000000100011600000400025100000000000000000000000000000000101               1
001061110010   5000211481223   061    3000721ALASKA METH UNIVERSITY   00106100100024     00006300000900004700000700012600000000000000000000000000000000101               1
001061110010   5000211481223   061    3000721ALASKA METH UNIVERSITY   00106100100034     00019300001000016300001100037700000000000000000000000000000000101               1
001061110010   5000211481223   061    3000721ALASKA METH UNIVERSITY   00106100100054     00000700006800000400012000019900000000000000000000000000000000101               1
001061110010   5000211481223   061    3000721ALASKA METH UNIVERSITY   00106100100064     00000800003300000400005500010000000000000000000000000000000000101               1
001061110010   5000211481223   061    3000721ALASKA METH UNIVERSITY   00106100100074     00020800011100017100018600067600000000000000000000000000000000101               1
001061110010   5000211481223   061    3000721ALASKA METH UNIVERSITY   00106100100084     00000000008500000000001600010100000000000000000000000000000000101               1
001061110010   5000211481223   061    3000721ALASKA METH UNIVERSITY   00106100100094     00000000000400000000000900001300000000000000000000000000000000101               1
001061110010   5000211481223   061    3000721ALASKA METH UNIVERSITY   00106100100114     00000000008900000000002500011400000000000000000000000000000000101               1
001061110010   5000211481223   061    3000721ALASKA METH UNIVERSITY   00106100100124     00020800020000017100021100079000000000000000000000000000000000101               1
001061110010   5000211481223   061    3000721ALASKA METH UNIVERSITY   00106100100134     00007000003900004800000300016000000000000000000000000000000000101               1
001061110010   5000211481223   061    3000721ALASKA METH UNIVERSITY   00106100100184     00020800020000017100021100079000000000000000000000000000000000101               1
001062110020   5000711481233   034    1000153SHELDON JACKSON COLLEGE  00106200100014     00006800000000003200000000010000000000000000000000000000000000101               1
001062110020   5000711481233   034    1000153SHELDON JACKSON COLLEGE  00106200100034     00006800000000003200000000010000000000000000000000000000000000101               1
001062110020   5000711481233   034    1000153SHELDON JACKSON COLLEGE  00106200100064     00000000002900000000002400005300000000000000000000000000000000101               1
001062110020   5000711481233   034    1000153SHELDON JACKSON COLLEGE  00106200100074     00006800002900003200002400015300000000000000000000000000000000101               1
001062110020   5000711481233   034    1000153SHELDON JACKSON COLLEGE  00106200100124     00006800002900003200002400015300000000000000000000000000000000101               1
001062110020   5000711481233   034    1000153SHELDON JACKSON COLLEGE  00106200100134     00003200000700001800000200005900000000000000000000000000000000101               1
001062110020   5000711481233   034    1000153SHELDON JACKSON COLLEGE  00106200100184     00006800002900003200002400015300000000000000000000000000000000101               1
001063110040A016001011481113   081    5003868U OF ALASKA MAIN CAMPUS  00106300100014     00051300002600033100002600089600000000000000000000000000000000101               1
001063110040A016001011481113   081    5003868U OF ALASKA MAIN CAMPUS  00106300100024     00030100002600012000002800047500000000000000000000000000000000101               1
001063110040A016001011481113   081    5003868U OF ALASKA MAIN CAMPUS  00106300100034     00081400005200045100005400137100000000000000000000000000000000101               1
001063110040A016001011481113   081    5003868U OF ALASKA MAIN CAMPUS  00106300100054     00005400008700002700004000020800000000000000000000000000000000101               1
001063110040A016001011481113   081    5003868U OF ALASKA MAIN CAMPUS  00106300100064     00010100017600005500021300054500000000000000000000000000000000101               1
001063110040A016001011481113   081    5003868U OF ALASKA MAIN CAMPUS  00106300100074     00096900031500053300030700212400000000000000000000000000000000101               1
001063110040A016001011481113   081    5003868U OF ALASKA MAIN CAMPUS  00106300100104     00000000123900000000036400160300000000000000000000000000000000101               1
001063110040A016001011481113   081    5003868U OF ALASKA MAIN CAMPUS  00106300100114     00000000123900000000036400160300000000000000000000000000000000101               1
001063110040A016001011481113   081    5003868U OF ALASKA MAIN CAMPUS  00106300100124     00096900155400053300067100372700000000000000000000000000000000101               1
001063110040A016001011481113   081    5003868U OF ALASKA MAIN CAMPUS  00106300100134     00024300013800014100004800057000000000000000000000000000000000101               1
001063110040A016001011481113   081    5003868U OF ALASKA MAIN CAMPUS  00106300100144     00008600000500004800000200014100000000000000000000000000000000101               1
001063110040A016001011481113   081    5003868U OF ALASKA MAIN CAMPUS  00106300100164     00008600000500004800000200014100000000000000000000000000000000101               1
001063110040A016001011481113   081    5003868U OF ALASKA MAIN CAMPUS  00106300100174     00003600000100003500000000007200000000000000000000000000000000101               1
001063110040A016001011481113   081    5003868U OF ALASKA MAIN CAMPUS  00106300100184     00105500155900058100067300386800000000000000000000000000000000101               1
001064110050A027900311481113   043    4002102U OF ALASKA ANCHORAGE CC 00106400100014     00038200075600018500077900210200000000000000000000000000000000303               1
001064110050A027900311481113   043    4002102U OF ALASKA ANCHORAGE CC 00106400100034     00038200075600018500077900210200000000000000000000000000000000303               1
001064110050A027900311481113   043    4002102U OF ALASKA ANCHORAGE CC 00106400100074     00038200075600018500077900210200000000000000000000000000000000101               1
001064110050A027900311481113   043    4002102U OF ALASKA ANCHORAGE CC 00106400100124     00038200075600018500077900210200000000000000000000000000000000101               1
001064110050A027900311481113   043    4002102U OF ALASKA ANCHORAGE CC 00106400100134     00015000010200005800014600045600000000000000000000000000000000101               1
001064110050A027900311481113   043    4002102U OF ALASKA ANCHORAGE CC 00106400100184     00038200075600018500077900210200000000000000000000000000000000101               1
001065110060A037900611481113   031    2000216U OF ALAS JUNEAU-DGLS CC 00106500100014     00002200012300001400005700021600000000000000000000000000000000303               1
001065110060A037900611481113   031    2000216U OF ALAS JUNEAU-DGLS CC 00106500100034     00002200012300001400005700021600000000000000000000000000000000303               1
001065110060A037900611481113   031    2000216U OF ALAS JUNEAU-DGLS CC 00106500100074     00002200012300001400005700021600000000000000000000000000000000101               1
001065110060A037900611481113   031    2000216U OF ALAS JUNEAU-DGLS CC 00106500100124     00002200012300001400005700021600000000000000000000000000000000101               1
001065110060A037900611481113   031    2000216U OF ALAS JUNEAU-DGLS CC 00106500100134     00001600001300000800001100004800000000000000000000000000000000101               1
001065110060A037900611481113   031    2000216U OF ALAS JUNEAU-DGLS CC 00106500100184     00002200012300001400005700021600000000000000000000000000000000101               1
001066110070A047911011481113   031    1000114U ALAS KENAI PENINSULA CC00106600100014     00000900004400000400005700011400000000000000000000000000000000303               1
001066110070A047911011481113   031    1000114U ALAS KENAI PENINSULA CC00106600100034     00000900004400000400005700011400000000000000000000000000000000303               1
001066110070A047911011481113   031    1000114U ALAS KENAI PENINSULA CC00106600100074     00000900004400000400005700011400000000000000000000000000000000101               1
001066110070A047911011481113   031    1000114U ALAS KENAI PENINSULA CC00106600100124     00000900004400000400005700011400000000000000000000000000000000101               1
001066110070A047911011481113   031    1000114U ALAS KENAI PENINSULA CC00106600100134     00000400000200000300001900002800000000000000000000000000000000101               1
001066110070A047911011481113   031    1000114U ALAS KENAI PENINSULA CC00106600100184     00000900004400000400005700011400000000000000000000000000000000101               1
001067110080A057900911481113   031    1000104U OF ALASKA KETCHIKAN CC 00106700100014     00001000002000001200006200010400000000000000000000000000000000303               1
001067110080A057900911481113   031    1000104U OF ALASKA KETCHIKAN CC 00106700100034     00001000002000001200006200010400000000000000000000000000000000303               1
001067110080A057900911481113   031    1000104U OF ALASKA KETCHIKAN CC 00106700100074     00001000002000001200006200010400000000000000000000000000000000101               1
001067110080A057900911481113   031    1000104U OF ALASKA KETCHIKAN CC 00106700100124     00001000002000001200006200010400000000000000000000000000000000101               1
001067110080A057900911481113   031    1000104U OF ALASKA KETCHIKAN CC 00106700100134     00000500000700000800003500005500000000000000000000000000000000101               1
001067110080A057900911481113   031    1000104U OF ALASKA KETCHIKAN CC 00106700100184     00001000002000001200006200010400000000000000000000000000000000101               1
001068110100A077913011481113   031    1000082U ALAS MATNUSKA SUSTNA CC00106800100014     00000200005600000100002300008200000000000000000000000000000000303               1
001068110100A077913011481113   031    1000082U ALAS MATNUSKA SUSTNA CC00106800100034     00000200005600000100002300008200000000000000000000000000000000303               1
001068110100A077913011481113   031    1000082U ALAS MATNUSKA SUSTNA CC00106800100074     00000200005600000100002300008200000000000000000000000000000000101               1
001068110100A077913011481113   031    1000082U ALAS MATNUSKA SUSTNA CC00106800100124     00000200005600000100002300008200000000000000000000000000000000101               1
001068110100A077913011481113   031    1000082U ALAS MATNUSKA SUSTNA CC00106800100134     00000000001400000000000300001700000000000000000000000000000000101               1
001068110100A077913011481113   031    1000082U ALAS MATNUSKA SUSTNA CC00106800100184     00000200005600000100002300008200000000000000000000000000000000101               1
001069110110A087902011481113   031    1000010U OF ALASKA SITKA CC     00106900100011     00000000000200000000000800001000000000000000000000000000000000303               1
001069110110A087902011481113   031    1000010U OF ALASKA SITKA CC     00106900100031     00000000000200000000000800001000000000000000000000000000000000303               1
001069110110A087902011481113   031    1000010U OF ALASKA SITKA CC     00106900100071     00000000000200000000000800001000000000000000000000000000000000101               1
001069110110A087902011481113   031    1000010U OF ALASKA SITKA CC     00106900100121     00000000000200000000000800001000000000000000000000000000000000101               1
001069110110A087902011481113   031    1000010U OF ALASKA SITKA CC     00106900100181     00000000000200000000000800001000000000000000000000000000000000101               1
001070120190   5001012461223   061    3000648THUNDERBIRD GRADUATE SCH 00107000100054     00056500000300002200000000059000000000000000000000000000000000101               1
001070120190   5001012461223   061    3000648THUNDERBIRD GRADUATE SCH 00107000100064     00000000000000000000005800005800000000000000000000000000000000101               1
001070120190   5001012461223   061    3000648THUNDERBIRD GRADUATE SCH 00107000100074     00056500000300002200005800064800000000000000000000000000000000101               1
001070120190   5001012461223   061    3000648THUNDERBIRD GRADUATE SCH 00107000100124     00056500000300002200005800064800000000000000000000000000000000101               1
001070120190   5001012461223   061    3000648THUNDERBIRD GRADUATE SCH 00107000100184     00056500000300002200005800064800000000000000000000000000000000101               1
001071120050   5003512461133   031    4002337ARIZONA WESTERN COLLEGE  00107100100014     00062400076300043300053000235000000000000000000000000000000000101               1
001071120050   5003512461133   031    4002337ARIZONA WESTERN COLLEGE  00107100100034     00062400076300043300053000235000000000000000000000000000000000101               1
001071120050   5003512461133   031    4002337ARIZONA WESTERN COLLEGE  00107100100074     00062400076300043300053000235000000000000000000000000000000000101               1
001071120050   5003512461133   031    4002337ARIZONA WESTERN COLLEGE  0010710010012400000000624000763000433000530002350000000000000000000000000000000000000000000000000001
001071120050   5003512461133   031    4002337ARIZONA WESTERN COLLEGE  00107100100134     00049700035600027100016000128400000000000000000000000000000000808               1
001071120050   5003512461133   031    4002337ARIZONA WESTERN COLLEGE  00107100100184     00062400076300043300053000235000000000000000000000000000000000101               1
001072120070   5003712461133   031    4001622COCHISE COLLEGE          00107200100014     00050100005600025400008700089800000000000000000000000000000000202               1
001072120070   5003712461133   031    4001622COCHISE COLLEGE          00107200100034     00050100005600025400008700089800000000000000000000000000000000202               1
001072120070   5003712461133   031    4001622COCHISE COLLEGE          00107200100064     00000000012200000000010000022200000000000000000000000000000000202               1
001072120070   5003712461133   031    4001622COCHISE COLLEGE          00107200100074     00050100017800025400018700112000000000000000000000000000000000202               1
001072120070   5003712461133   031    4001622COCHISE COLLEGE          00107200100104     00000000021000000000017000038000000000000000000000000000000000202               1
001072120070   5003712461133   031    4001622COCHISE COLLEGE          00107200100114     00000000021000000000017000038000000000000000000000000000000000505               1
001072120070   5003712461133   031    4001622COCHISE COLLEGE          00107200100124     00050100038800025400035700150000000000000000000000000000000000202               1
001072120070   5003712461133   031    4001622COCHISE COLLEGE          00107200100134     00030100028100016200024300098700000000000000000000000000000000202               1
001072120070   5003712461133   031    4001622COCHISE COLLEGE          00107200100144     00008000000000004200000000012200000000000000000000000000000000202               1
001072120070   5003712461133   031    4001622COCHISE COLLEGE          00107200100164     00008000000000004200000000012200000000000000000000000000000000202               1
001072120070   5003712461133   031    4001622COCHISE COLLEGE          00107200100174     00004200000000003400000000007600000000000000000000000000000000202               1
001072120070   5003712461133   031    4001622COCHISE COLLEGE          00107200100184     00058100038800029600035700162200000000000000000000000000000000202               1
001073120080   5004012461133   031    4001593EASTERN ARIZONA COLLEGE  00107300100014     00031100008900019000013300072300000000000000000000000000000000202               1
001073120080   5004012461133   031    4001593EASTERN ARIZONA COLLEGE  00107300100034     00031100008900019000013300072300000000000000000000000000000000202               1
001073120080   5004012461133   031    4001593EASTERN ARIZONA COLLEGE  00107300100074     00031100008900019000013300072300000000000000000000000000000000202               1
001073120080   5004012461133   031    4001593EASTERN ARIZONA COLLEGE  00107300100124     00031100008900019000013300072300000000000000000000000000000000202               1
001073120080   5004012461133   031    4001593EASTERN ARIZONA COLLEGE  00107300100134     00015300002300010000003400031000000000000000000000000000000000202               1
001073120080   5004012461133   031    4001593EASTERN ARIZONA COLLEGE  00107300100144     00024900017100008900036100087000000000000000000000000000000000202               1
001073120080   5004012461133   031    4001593EASTERN ARIZONA COLLEGE  00107300100164     00024900017100008900036100087000000000000000000000000000000000202               1
001073120080   5004012461133   031    4001593EASTERN ARIZONA COLLEGE  00107300100174     00013500007100005400021600047600000000000000000000000000000000202               1
001073120080   5004012461133   031    4001593EASTERN ARIZONA COLLEGE  00107300100184     00056000026000027900049400159300000000000000000000000000000000202               1
001074120090   5005012461223   041    3000756GRAND CANYON COLLEGE     00107400100014     00014900003400013200002500034000000000000000000000000000000000101               1
001074120090   5005012461223   041    3000756GRAND CANYON COLLEGE     00107400100024     00011000005900009200003600029700000000000000000000000000000000101               1
001074120090   5005012461223   041    3000756GRAND CANYON COLLEGE     00107400100034     00025900009300022400006100063700000000000000000000000000000000101               1
001074120090   5005012461223   041    3000756GRAND CANYON COLLEGE     00107400100064     00000100005600000100006100011900000000000000000000000000000000101               1
001074120090   5005012461223   041    3000756GRAND CANYON COLLEGE     00107400100074     00026000014900022500012200075600000000000000000000000000000000101               1
001074120090   5005012461223   041    3000756GRAND CANYON COLLEGE     00107400100124     00026000014900022500012200075600000000000000000000000000000000101               1
001074120090   5005012461223   041    3000756GRAND CANYON COLLEGE     00107400100134     00006500000200007900000300014900000000000000000000000000000000101               1
001074120090   5005012461223   041    3000756GRAND CANYON COLLEGE     00107400100164     00000000000000000000000000000000000000000000000000000000000000101               1
001074120090   5005012461223   041    3000756GRAND CANYON COLLEGE     00107400100184     00026000014900022500012200075600000000000000000000000000000000101               1
001076120110A02E004512461133   031    6006126GLENDALE CMTY COLLEGE    00107600100014     00134800151900086400097000470100000000000000000000000000000000101               1
001076120110A02E004512461133   031    6006126GLENDALE CMTY COLLEGE    00107600100034     00134800151900086400097000470100000000000000000000000000000000101               1
001076120110A02E004512461133   031    6006126GLENDALE CMTY COLLEGE    00107600100074     00134800151900086400097000470100000000000000000000000000000000101               1
001076120110A02E004512461133   031    6006126GLENDALE CMTY COLLEGE    00107600100124     00134800151900086400097000470100000000000000000000000000000000101               1
001076120110A02E004512461133   031    6006126GLENDALE CMTY COLLEGE    00107600100134     00059000027100030700029000145800000000000000000000000000000000101               1
001076120110A02E004512461133   031    6006126GLENDALE CMTY COLLEGE    00107600100144     00040900046100026100029500142600000000000000000000000000000000101               1
001076120110A02E004512461133   031    6006126GLENDALE CMTY COLLEGE    00107600100164     00040900046100026100029500142600000000000000000000000000000000101               1
001076120110A02E004512461133   031    6006126GLENDALE CMTY COLLEGE    00107600100174     00036700017300019600018500092100000000000000000000000000000000101               1
001076120110A02E004512461133   031    6006126GLENDALE CMTY COLLEGE    00107600100184     00175700198000112500126500612700000000000000000000000000000000101               1
001077120130A04E005512461133   031    6006511MESA COMMUNITY COLLEGE   00107700100014     00109000113400075800078800377000000000000000000000000000000000101               1
001077120130A04E005512461133   031    6006511MESA COMMUNITY COLLEGE   00107700100034     00109000113400075800078800377000000000000000000000000000000000101               1
001077120130A04E005512461133   031    6006511MESA COMMUNITY COLLEGE   00107700100074     00109000113400075800078800377000000000000000000000000000000000101               1
001077120130A04E005512461133   031    6006511MESA COMMUNITY COLLEGE   00107700100124     00109000113400075800078800377000000000000000000000000000000000101               1
001077120130A04E005512461133   031    6006511MESA COMMUNITY COLLEGE   00107700100134     00056900020700028800033100139500000000000000000000000000000000101               1
001077120130A04E005512461133   031    6006511MESA COMMUNITY COLLEGE   00107700100144     00079200082500055100057300274100000000000000000000000000000000101               1
001077120130A04E005512461133   031    6006511MESA COMMUNITY COLLEGE   00107700100164     00079200082500055100057300274100000000000000000000000000000000101               1
001077120130A04E005512461133   031    6006511MESA COMMUNITY COLLEGE   00107700100174     00042900015600021800025000105300000000000000000000000000000000101               1
001077120130A04E005512461133   031    6006511MESA COMMUNITY COLLEGE   00107700100184     00188200195900130900136100651100000000000000000000000000000000101               1
001078120140A05E006012461133   031    7010134PHOENIX COLLEGE          00107800100014     00174300272700121200189500757700000000000000000000000000000000202               1
001078120140A05E006012461133   031    7010134PHOENIX COLLEGE          00107800100034     00174300272700121200189500757700000000000000000000000000000000202               1
001078120140A05E006012461133   031    7010134PHOENIX COLLEGE          00107800100074     00174300272700121200189500757700000000000000000000000000000000202               1
001078120140A05E006012461133   031    7010134PHOENIX COLLEGE          00107800100124     00174300272700121200189500757700000000000000000000000000000000202               1
001078120140A05E006012461133   031    7010134PHOENIX COLLEGE          00107800100134     00065800102800045700071500285800000000000000000000000000000000202               1
001078120140A05E006012461133   031    7010134PHOENIX COLLEGE          00107800100144     00058800092000040900064000255700000000000000000000000000000000202               1
001078120140A05E006012461133   031    7010134PHOENIX COLLEGE          00107800100164     00058800092000040900064000255700000000000000000000000000000000202               1
001078120140A05E006012461133   031    7010134PHOENIX COLLEGE          00107800100174     00021900034300015200023900095300000000000000000000000000000000202               1
001078120140A05E006012461133   031    7010134PHOENIX COLLEGE          00107800100184     00233100364700162100253501013400000000000000000000000000000000202               1
001079120200   5008012461133   031    3000796YAVAPAI COLLEGE          00107900100014     00023100000000013500000000036600000000000000000000000000000000202               1
001079120200   5008012461133   031    3000796YAVAPAI COLLEGE          00107900100034     00023100000000013500000000036600000000000000000000000000000000202               1
001079120200   5008012461133   031    3000796YAVAPAI COLLEGE          00107900100064     00000000013400000000015600029000000000000000000000000000000000202               1
001079120200   5008012461133   031    3000796YAVAPAI COLLEGE          00107900100074     00023100013400013500015600065600000000000000000000000000000000202               1
001079120200   5008012461133   031    3000796YAVAPAI COLLEGE          00107900100104     00000000006900000000007100014000000000000000000000000000000000202               1
001079120200   5008012461133   031    3000796YAVAPAI COLLEGE          00107900100114     00000000006900000000007100014000000000000000000000000000000000202               1
001079120200   5008012461133   031    3000796YAVAPAI COLLEGE          00107900100124     00023100020300013500022700079600000000000000000000000000000000202               1
001079120200   5008012461133   031    3000796YAVAPAI COLLEGE          00107900100134     00018600006800010200011400047000000000000000000000000000000000202               1
001079120200   5008012461133   031    3000796YAVAPAI COLLEGE          00107900100144     00000000000100000000002000002100000000000000000000000000000000202               1
001079120200   5008012461133   031    3000796YAVAPAI COLLEGE          00107900100164     00000000000100000000002000002100000000000000000000000000000000202               1
001079120200   5008012461133   031    3000796YAVAPAI COLLEGE          00107900100174     00000000000000000000001700001700000000000000000000000000000000202               1
001079120200   5008012461133   031    3000796YAVAPAI COLLEGE          00107900100184     00023100020400013500024700081700000000000000000000000000000000202               1
001081120020B02E003012461113   081    8027451ARIZONA STATE UNIVERSITY 00108100100014     00460500051600353400052500918000000000000000000000000000000000202               1
001081120020B02E003012461113   081    8027451ARIZONA STATE UNIVERSITY 00108100100024     00492900116300271300078400958900000000000000000000000000000000202               1
001081120020B02E003012461113   081    8027451ARIZONA STATE UNIVERSITY 00108100100034     00953400167900624700130901876900000000000000000000000000000000202               1
001081120020B02E003012461113   081    8027451ARIZONA STATE UNIVERSITY 00108100100054     00105600119100037000094300356000000000000000000000000000000000202               1
001081120020B02E003012461113   081    8027451ARIZONA STATE UNIVERSITY 00108100100064     00016900148900012200103000281000000000000000000000000000000000202               1
001081120020B02E003012461113   081    8027451ARIZONA STATE UNIVERSITY 00108100100074     01075900435900673900328202513900000000000000000000000000000000202               1
001081120020B02E003012461113   081    8027451ARIZONA STATE UNIVERSITY 00108100100084     00000000014700000000028500043200000000000000000000000000000000202               1
001081120020B02E003012461113   081    8027451ARIZONA STATE UNIVERSITY 00108100100094     00000000029000000000064800093800000000000000000000000000000000202               1
001081120020B02E003012461113   081    8027451ARIZONA STATE UNIVERSITY 00108100100104     00000000027800000000065300093100000000000000000000000000000000202               1
001081120020B02E003012461113   081    8027451ARIZONA STATE UNIVERSITY 00108100100114     00000000071500000000158600230100000000000000000000000000000000202               1
001081120020B02E003012461113   081    8027451ARIZONA STATE UNIVERSITY 00108100100124     01075900507400673900486802744000000000000000000000000000000000202               1
001081120020B02E003012461113   081    8027451ARIZONA STATE UNIVERSITY 00108100100134     00156300015700137000018600327600000000000000000000000000000000202               1
001081120020B02E003012461113   081    8027451ARIZONA STATE UNIVERSITY 00108100100184     01075900507400673900486802744000000000000000000000000000000000202               1
001082120030B03E002012461123   071    6008477NORTHERN ARIZ UNIVERSITY 00108200100014     00174100009700167300010500361600000000000000000000000000000000202               1
001082120030B03E002012461123   071    6008477NORTHERN ARIZ UNIVERSITY 00108200100024     00120100020300104100015200259700000000000000000000000000000000202               1
001082120030B03E002012461123   071    6008477NORTHERN ARIZ UNIVERSITY 00108200100034     00294200030000271400025700621300000000000000000000000000000000202               1
001082120030B03E002012461123   071    6008477NORTHERN ARIZ UNIVERSITY 00108200100054     00018400044500015000030300108200000000000000000000000000000000202               1
001082120030B03E002012461123   071    6008477NORTHERN ARIZ UNIVERSITY 00108200100064     00004300019700002700020300047000000000000000000000000000000000202               1
001082120030B03E002012461123   071    6008477NORTHERN ARIZ UNIVERSITY 00108200100074     00316900094200289100076300776500000000000000000000000000000000202               1
001082120030B03E002012461123   071    6008477NORTHERN ARIZ UNIVERSITY 00108200100084     00000000001500000000000600002100000000000000000000000000000000202               1
001082120030B03E002012461123   071    6008477NORTHERN ARIZ UNIVERSITY 00108200100094     00000000051400000000040300091700000000000000000000000000000000202               1
001082120030B03E002012461123   071    6008477NORTHERN ARIZ UNIVERSITY 00108200100114     00000000052900000000040900093800000000000000000000000000000000202               1
001082120030B03E002012461123   071    6008477NORTHERN ARIZ UNIVERSITY 00108200100124     00316900147100289100117200870300000000000000000000000000000000202               1
001082120030B03E002012461123   071    6008477NORTHERN ARIZ UNIVERSITY 00108200100134     00079700002300076800001600160400000000000000000000000000000000202               1
001082120030B03E002012461123   071    6008477NORTHERN ARIZ UNIVERSITY 00108200100184     00316900147100289100117200870300000000000000000000000000000000202               1
001083120040B04E007012461113   081    8024822UNIVERSITY OF ARIZONA    00108300100014     00498000031000373900043500946400000000000000000000000000000000202               1
001083120040B04E007012461113   081    8024822UNIVERSITY OF ARIZONA    00108300100024     00402400043300245200043600734500000000000000000000000000000000202               1
001083120040B04E007012461113   081    8024822UNIVERSITY OF ARIZONA    00108300100034     00900400074300619100087101680900000000000000000000000000000000202               1
001083120040B04E007012461113   081    8024822UNIVERSITY OF ARIZONA    00108300100044     00040500000100004200000000044800000000000000000000000000000000202               1
001083120040B04E007012461113   081    8024822UNIVERSITY OF ARIZONA    00108300100054     00124400186700055000126200492300000000000000000000000000000000202               1
001083120040B04E007012461113   081    8024822UNIVERSITY OF ARIZONA    00108300100064     00011800066200005700053000136700000000000000000000000000000000202               1
001083120040B04E007012461113   081    8024822UNIVERSITY OF ARIZONA    00108300100074     01077100327300684000266302354700000000000000000000000000000000202               1
001083120040B04E007012461113   081    8024822UNIVERSITY OF ARIZONA    00108300100104     00000000076800000000050700127500000000000000000000000000000000202               1
