001002100010   5001010352123   07100  5004034ALABAMA A & M UNIVERSITY 001002001000100    00040900000000045800000000086700086700000000000002021
001002100010   5001010352123   07100  5004034ALABAMA A & M UNIVERSITY 00100200100021*    00040900000000045800000000086700086700000000000002021
001002100010   5001010352123   07100  5004034ALABAMA A & M UNIVERSITY 001002001000300    00071100000000074300000000145400145400000000000002021
001002100010   5001010352123   07100  5004034ALABAMA A & M UNIVERSITY 001002001000500    00057400000000070400000000127800127800000000000002021
001002100010   5001010352123   07100  5004034ALABAMA A & M UNIVERSITY 001002001000600    00128500000000144700000000273200273200000000000002021
001002100010   5001010352123   07100  5004034ALABAMA A & M UNIVERSITY 00100200100061*    00128500000000144700000000273200273200000000000002021
001002100010   5001010352123   07100  5004034ALABAMA A & M UNIVERSITY 001002001000700    00000000014000000000013300027300027300000000009102041
001002100010   5001010352123   07100  5004034ALABAMA A & M UNIVERSITY 001002001000900    00008600038100003700052500102900102900000000030202021
001002100010   5001010352123   07100  5004034ALABAMA A & M UNIVERSITY 001002001001000    00137100052100148400065800403400403400000000039302041
001002100010   5001010352123   07100  5004034ALABAMA A & M UNIVERSITY 00100200100101*    00137100052100148400065800403400403400000000039302021
001003100020   5001310351233   03200  2000236ALABAMA CHRISTIAN COLLEGE001003001000100    00006000000400006000001400013800013800000800000602021
001003100020   5001310351233   03200  2000236ALABAMA CHRISTIAN COLLEGE00100300100021*    00006000000400006000001400013800013800000800000602021
001003100020   5001310351233   03200  2000236ALABAMA CHRISTIAN COLLEGE001003001000300    00010700000800009100001600022200022200001300000802021
001003100020   5001310351233   03200  2000236ALABAMA CHRISTIAN COLLEGE001003001000400    00000000000000001400000000001400001400000000000002021
001003100020   5001310351233   03200  2000236ALABAMA CHRISTIAN COLLEGE001003001000600    00010700000800010500001600023600023600001300000802041
001003100020   5001310351233   03200  2000236ALABAMA CHRISTIAN COLLEGE00100300100061*    00010700000800010500001600023600023600001300000802021
001003100020   5001310351233   03200  2000236ALABAMA CHRISTIAN COLLEGE001003001001000    00010700000800010500001600023600023600001300000802021
001003100020   5001310351233   03200  2000236ALABAMA CHRISTIAN COLLEGE00100300100101*    00010700000800010500001600023600023600001300000802021
001004100580   5002010351123   07100  5003794UNIVERSITY OF MONTEVALLO 001004001000100    00023400002000036500002700064600064600001800001602021
001004100580   5002010351123   07100  5003794UNIVERSITY OF MONTEVALLO 00100400100021*    00023400002000036500002700064600064600001800001602021
001004100580   5002010351123   07100  5003794UNIVERSITY OF MONTEVALLO 001004001000300    00047200014500067000007600136300136300010000007402021
001004100580   5002010351123   07100  5003794UNIVERSITY OF MONTEVALLO 001004001000500    00036700017800049200007900111600111600013300008602021
001004100580   5002010351123   07100  5003794UNIVERSITY OF MONTEVALLO 001004001000600    00083900032300116200015500247900247900023300015902021
001004100580   5002010351123   07100  5003794UNIVERSITY OF MONTEVALLO 00100400100061*    00083900032300116200015500247900247900023300016002021
001004100580   5002010351123   07100  5003794UNIVERSITY OF MONTEVALLO 001004001000700    00000800073800000900001500077000077000010500025102021
001004100580   5002010351123   07100  5003794UNIVERSITY OF MONTEVALLO 001004001000900    00000700025300001500027000054500054500015800017402021
001004100580   5002010351123   07100  5003794UNIVERSITY OF MONTEVALLO 001004001001000    00085400131400118600044000379400379400049600058502021
001004100580   5002010351123   07100  5003794UNIVERSITY OF MONTEVALLO 00100400100101*    00085400131400118600044000379400379400049600058502021
001005100040   5004010352123   07200  5003158ALABAMA STATE UNIVERSITY 001005001000100    00023000000000020700000000043700043700000000000002021
001005100040   5004010352123   07200  5003158ALABAMA STATE UNIVERSITY 00100500100021*    00023000000000020700000000043700043700000000000002021
001005100040   5004010352123   07200  5003158ALABAMA STATE UNIVERSITY 001005001000300    00064200003700067900003700139500139500000000002502041
001005100040   5004010352123   07200  5003158ALABAMA STATE UNIVERSITY 001005001000500    00034300001900048400001900086500086500000000001302021
001005100040   5004010352123   07200  5003158ALABAMA STATE UNIVERSITY 001005001000600    00098500005600116300005600226000226000000000003702021
001005100040   5004010352123   07200  5003158ALABAMA STATE UNIVERSITY 00100500100061*    00098500005600116300005600226000226000000000003802021
001005100040   5004010352123   07200  5003158ALABAMA STATE UNIVERSITY 001005001000700    00001200001300002200000500005200005200000000000602021
001005100040   5004010352123   07200  5003158ALABAMA STATE UNIVERSITY 001005001000900    00018900009500030800025400084600084600000000011602021
001005100040   5004010352123   07200  5003158ALABAMA STATE UNIVERSITY 001005001001000    00118600016400149300031500315800315800000000016002021
001005100040   5004010352123   07200  5003158ALABAMA STATE UNIVERSITY 00100500100101*    00118600016400149300031500315800315800000000016002021
001007100050   5001510351133   03200  4001295ALEXANDER CITY STATE JC  001007001000100    00012200007500005700004800030200030200000000004102021
001007100050   5001510351133   03200  4001295ALEXANDER CITY STATE JC  001007001000200    00001000000800003200003800008800008800000000001502021
001007100050   5001510351133   03200  4001295ALEXANDER CITY STATE JC  00100700100021*    00013200008300008900008600039000039000000000005602021
001007100050   5001510351133   03200  4001295ALEXANDER CITY STATE JC  001007001000300    00044700022000023100010500100300100300000000010802021
001007100050   5001510351133   03200  4001295ALEXANDER CITY STATE JC  001007001000400    00003300002800007800005200019100019100000000002702021
001007100050   5001510351133   03200  4001295ALEXANDER CITY STATE JC  001007001000600    00048000024800030900015700119400119400000000013502021
001007100050   5001510351133   03200  4001295ALEXANDER CITY STATE JC  00100700100061*    00048000024800030900015700119400119400000000013502021
001007100050   5001510351133   03200  4001295ALEXANDER CITY STATE JC  001007001000700    00000000001800000000008300010100010100000000003402021
001007100050   5001510351133   03200  4001295ALEXANDER CITY STATE JC  001007001001000    00048000026600030900024000129500129500000000016902021
001007100050   5001510351133   03200  4001295ALEXANDER CITY STATE JC  00100700100101*    00048000026600030900024000129500129500000000016902021
001008100060   5005010351223   04400  3000787ATHENS COLLEGE           001008001000100    00002800002300002100001100008300008300001700001101011
001008100060   5005010351223   04400  3000787ATHENS COLLEGE           00100800100021*    00002800002300002100001100008300008300001700001101011
001008100060   5005010351223   04400  3000787ATHENS COLLEGE           001008001000300    00009800007200006200003900027100027100005500003701011
001008100060   5005010351223   04400  3000787ATHENS COLLEGE           001008001000500    00015300011500012000006100044900044900008800005901011
001008100060   5005010351223   04400  3000787ATHENS COLLEGE           001008001000600    00025100018700018200010000072000072000014300009601041
001008100060   5005010351223   04400  3000787ATHENS COLLEGE           00100800100061*    00025100018700018200010000072000072000014300009601011
001008100060   5005010351223   04400  3000787ATHENS COLLEGE           001008001000700    00000700002900000300002800006700006700002800001901011
001008100060   5005010351223   04400  3000787ATHENS COLLEGE           001008001001000    00025800021600018500012800078700078700017100011501041
001008100060   5005010351223   04400  3000787ATHENS COLLEGE           00100800100101*    00025800021600018500012800078700078700017100011501011
001009100090A016003010351113   08200  7016013AUBURN U MAIN CAMPUS     001009001000100    00144400003500128200003000279100279100003000002202021
001009100090A016003010351113   08200  7016013AUBURN U MAIN CAMPUS     00100900100021*    00144400003500128200003000279100279100003000002202021
001009100090A016003010351113   08200  7016013AUBURN U MAIN CAMPUS     001009001000300    00398400021400285000009100713900713900015000010202021
001009100090A016003010351113   08200  7016013AUBURN U MAIN CAMPUS     001009001000500    00364400030000222300012400629100629100024300014102021
001009100090A016003010351113   08200  7016013AUBURN U MAIN CAMPUS     001009001000600    00762800051400507300021501343001343000039300024302021
001009100090A016003010351113   08200  7016013AUBURN U MAIN CAMPUS     00100900100061*    00762800051400507300021501343001343000039300024302021
001009100090A016003010351113   08200  7016013AUBURN U MAIN CAMPUS     001009001000700    00007500010600003500013300034900034900010500008002021
001009100090A016003010351113   08200  7016013AUBURN U MAIN CAMPUS     001009001000800    00040100000000004900000000045000045000000000000002021
001009100090A016003010351113   08200  7016013AUBURN U MAIN CAMPUS     001009001000900    00052600051200032200042400178400178400034800031202021
001009100090A016003010351113   08200  7016013AUBURN U MAIN CAMPUS     001009001001000    00863000113200547900077201601301601300084600063502021
001009100090A016003010351113   08200  7016013AUBURN U MAIN CAMPUS     00100900100101*    00863000113200547900077201601301601300084600063502021
001012100110   5006010351223   04400  3000780BIRMINGHAM STHN COLLEGE  001012001000100    00008100000000008800000200017100017100000000000101011
001012100110   5006010351223   04400  3000780BIRMINGHAM STHN COLLEGE  00101200100021*    00008100000000008800000200017100017100000000000101011
001012100110   5006010351223   04400  3000780BIRMINGHAM STHN COLLEGE  001012001000300    00019000000200017000000300036500036500000000000201011
001012100110   5006010351223   04400  3000780BIRMINGHAM STHN COLLEGE  001012001000500    00020300000500019000000600040400040400000000000401011
001012100110   5006010351223   04400  3000780BIRMINGHAM STHN COLLEGE  001012001000600    00039300000700036000000900076900076900000000000501011
001012100110   5006010351223   04400  3000780BIRMINGHAM STHN COLLEGE  00101200100061*    00039300000700036000000900076900076900000000000601011
001012100110   5006010351223   04400  3000780BIRMINGHAM STHN COLLEGE  001012001000700    00000200000400000200000300001100001100000000000201011
001012100110   5006010351223   04400  3000780BIRMINGHAM STHN COLLEGE  001012001001000    00039500001100036200001200078000078000000000000801011
001012100110   5006010351223   04400  3000780BIRMINGHAM STHN COLLEGE  00101200100101*    00039500001100036200001200078000078000000000000801011
001013100250   5011710351133   03200  6005452JOHN C CALHOUN ST CC     001013001000100    00022800013000009800006200051800051800010600006402021
001013100250   5011710351133   03200  6005452JOHN C CALHOUN ST CC     001013001000200    00034600044500033400018700131200131200034200021102021
001013100250   5011710351133   03200  6005452JOHN C CALHOUN ST CC     00101300100021*    00057400057500043200024900183000183000044800027502021
001013100250   5011710351133   03200  6005452JOHN C CALHOUN ST CC     001013001000300    00075400041100033800022200172500172500043700021102021
001013100250   5011710351133   03200  6005452JOHN C CALHOUN ST CC     001013001000400    00089100086100066200032600274000274000066900039602021
001013100250   5011710351133   03200  6005452JOHN C CALHOUN ST CC     001013001000600    00164500127200100000054800446500446500110600060702021
001013100250   5011710351133   03200  6005452JOHN C CALHOUN ST CC     00101300100061*    00164500127200100000054800446500446500110600060702021
001013100250   5011710351133   03200  6005452JOHN C CALHOUN ST CC     001013001000700    00004500038800002200053200098700098700014800030702021
001013100250   5011710351133   03200  6005452JOHN C CALHOUN ST CC     001013001001000    00169000166000102200108000545200545200125400091302021
001013100250   5011710351133   03200  6005452JOHN C CALHOUN ST CC     00101300100101*    00169000166000102200108000545200545200125400091402021
001014100140   5007010352223   04100  2000367DANIEL PAYNE COLLEGE     001014001000100    00005000000000004100000100009200009200000000000002021
001014100140   5007010352223   04100  2000367DANIEL PAYNE COLLEGE     00101400100021*    00005000000000004100000100009200009200000000000002021
001014100140   5007010352223   04100  2000367DANIEL PAYNE COLLEGE     001014001000300    00015500000700008000000400024600024600000000000402021
001014100140   5007010352223   04100  2000367DANIEL PAYNE COLLEGE     001014001000500    00005400000400005800000500012100012100000000000302021
001014100140   5007010352223   04100  2000367DANIEL PAYNE COLLEGE     001014001000600    00020900001100013800000900036700036700000000000702021
001014100140   5007010352223   04100  2000367DANIEL PAYNE COLLEGE     00101400100061*    00020900001100013800000900036700036700000000000702021
001014100140   5007010352223   04100  2000367DANIEL PAYNE COLLEGE     001014001001000    00020900001100013800000900036700036700000000000702021
001014100140   5007010352223   04100  2000367DANIEL PAYNE COLLEGE     00101400100101*    00020900001100013800000900036700036700000000000702021
001015100150   5008810351133   03200  5002571ENTERPRISE ST JR COLLEGE 001015001000100    00032500019800028900017100098300098300024600012302021
001015100150   5008810351133   03200  5002571ENTERPRISE ST JR COLLEGE 001015001000200    00003300001500001900002000008700008700002300001202021
001015100150   5008810351133   03200  5002571ENTERPRISE ST JR COLLEGE 00101500100021*    00035800021300030800019100107000107000026900013502021
001015100150   5008810351133   03200  5002571ENTERPRISE ST JR COLLEGE 001015001000300    00040800024900034700019200119600119600029800014702021
001015100150   5008810351133   03200  5002571ENTERPRISE ST JR COLLEGE 001015001000400    00003600002200002600002300010700010700003000001502021
001015100150   5008810351133   03200  5002571ENTERPRISE ST JR COLLEGE 001015001000600    00044400027100037300021500130300130300032800016202021
001015100150   5008810351133   03200  5002571ENTERPRISE ST JR COLLEGE 00101500100061*    00044400027100037300021500130300130300032800016202021
001015100150   5008810351133   03200  5002571ENTERPRISE ST JR COLLEGE 001015001000700    00001300017900001100106500126800126800042100041502021
001015100150   5008810351133   03200  5002571ENTERPRISE ST JR COLLEGE 001015001001000    00045700045000038400128000257100257100074900057702021
001015100150   5008810351133   03200  5002571ENTERPRISE ST JR COLLEGE 00101500100101*    00045700045000038400128000257100257100074900057702021
001016100585   5008010351123   06100  5004057U OF NORTH ALABAMA       001016001000100    00044000001200046700001300093200093200000000000801011
001016100585   5008010351123   06100  5004057U OF NORTH ALABAMA       00101600100021*    00044000001200046700001300093200093200000000000801011
001016100585   5008010351123   06100  5004057U OF NORTH ALABAMA       001016001000300    00106100006600092500008600213800213800000000005101011
001016100585   5008010351123   06100  5004057U OF NORTH ALABAMA       001016001000500    00061500006700052900005000126100126100000000003901011
001016100585   5008010351123   06100  5004057U OF NORTH ALABAMA       001016001000600    00167600013300145400013600339900339900000000009001011
001016100585   5008010351123   06100  5004057U OF NORTH ALABAMA       00101600100061*    00167600013300145400013600339900339900000000009001011
001016100585   5008010351123   06100  5004057U OF NORTH ALABAMA       001016001000700    00002100008500001600008900021100021100000000005801011
001016100585   5008010351123   06100  5004057U OF NORTH ALABAMA       001016001000900    00001100014800000900027900044700044700000000014201011
001016100585   5008010351123   06100  5004057U OF NORTH ALABAMA       001016001001000    00170800036600147900050400405700405700000000029001011
001016100585   5008010351123   06100  5004057U OF NORTH ALABAMA       00101600100101*    00170800036600147900050400405700405700000000029001011
001017100180   5008510351133   03200  6006577GADSDEN STATE JR COLLEGE 001017001000100    00015000009400011700007600043700043700010600005702021
001017100180   5008510351133   03200  6006577GADSDEN STATE JR COLLEGE 001017001000200    00017400010400014900012500055200055200013900007602021
001017100180   5008510351133   03200  6006577GADSDEN STATE JR COLLEGE 00101700100021*    00032400019800026600020100098900098900024500013302021
001017100180   5008510351133   03200  6006577GADSDEN STATE JR COLLEGE 001017001000300    00060500034900031800020400147600147600037400018402021
001017100180   5008510351133   03200  6006577GADSDEN STATE JR COLLEGE 001017001000400    00068100042800040300034500185700185700049100025802021
001017100180   5008510351133   03200  6006577GADSDEN STATE JR COLLEGE 001017001000600    00128600077700072100054900333300333300086500044202021
001017100180   5008510351133   03200  6006577GADSDEN STATE JR COLLEGE 00101700100061*    00128600077700072100054900333300333300086500044202021
001017100180   5008510351133   03200  6006577GADSDEN STATE JR COLLEGE 001017001000700    00003300147200000300173600324400324400086600106902021
001017100180   5008510351133   03200  6006577GADSDEN STATE JR COLLEGE 001017001001000    00131900224900072400228500657700657700173100151102021
001017100180   5008510351133   03200  6006577GADSDEN STATE JR COLLEGE 00101700100101*    00131900224900072400228500657700657700173100151102021
001018100185   5008710351133   03200  4002085GEO C WALLACE STATE CC   001018001000100    00023500012800020800012700069800069800000000008502021
001018100185   5008710351133   03200  4002085GEO C WALLACE STATE CC   00101800100021*    00023500012800020800012700069800069800000000008502021
001018100185   5008710351133   03200  4002085GEO C WALLACE STATE CC   001018001000300    00048800047800038300034100169000169000000000027302021
001018100185   5008710351133   03200  4002085GEO C WALLACE STATE CC   001018001000600    00048800047800038300034100169000169000000000027302021
001018100185   5008710351133   03200  4002085GEO C WALLACE STATE CC   00101800100061*    00048800047800038300034100169000169000000000027302021
001018100185   5008710351133   03200  4002085GEO C WALLACE STATE CC   001018001000700    00000100015300000200023900039500039500000000013102021
001018100185   5008710351133   03200  4002085GEO C WALLACE STATE CC   001018001001000    00048900063100038500058000208500208500000000040402021
001018100185   5008710351133   03200  4002085GEO C WALLACE STATE CC   00101800100101*    00048900063100038500058000208500208500000000040402021
001019100210   5010010351223   04100  2000463HUNTINGDON COLLEGE       001019001000100    00003500000000007500000000011000011000000000000002021
001019100210   5010010351223   04100  2000463HUNTINGDON COLLEGE       00101900100021*    00003500000000007500000000011000011000000000000002021
001019100210   5010010351223   04100  2000463HUNTINGDON COLLEGE       001019001000300    00009800000400012900002100025200025200001000000802021
001019100210   5010010351223   04100  2000463HUNTINGDON COLLEGE       001019001000500    00007300000400009600001000018300018300000800000502021
001019100210   5010010351223   04100  2000463HUNTINGDON COLLEGE       001019001000600    00017100000800022500003100043500043500001800001302021
001019100210   5010010351223   04100  2000463HUNTINGDON COLLEGE       00101900100061*    00017100000800022500003100043500043500001800001302021
001019100210   5010010351223   04100  2000463HUNTINGDON COLLEGE       001019001000700    00000300000500000300001700002800002800000800000702021
001019100210   5010010351223   04100  2000463HUNTINGDON COLLEGE       001019001001000    00017400001300022800004800046300046300002600002002021
001019100210   5010010351223   04100  2000463HUNTINGDON COLLEGE       00101900100101*    00017400001300022800004800046300046300002600002002021
001020100220   5011010351123   07500  6005591JACKSONVL ST UNIVERSITY  001020001000100    00047000001000049400001600099000099000000900000901011
001020100220   5011010351123   07500  6005591JACKSONVL ST UNIVERSITY  00102000100021*    00047000001000049400001600099000099000000900000901011
001020100220   5011010351123   07500  6005591JACKSONVL ST UNIVERSITY  001020001000300    00125700016200112400013800268100268100010000010001011
001020100220   5011010351123   07500  6005591JACKSONVL ST UNIVERSITY  001020001000500    00075800035500066600017900195800195800017800017801011
001020100220   5011010351123   07500  6005591JACKSONVL ST UNIVERSITY  001020001000600    00201500051700179000031700463900463900027800027801011
001020100220   5011010351123   07500  6005591JACKSONVL ST UNIVERSITY  00102000100061*    00201500051700179000031700463900463900027800027801011
001020100220   5011010351123   07500  6005591JACKSONVL ST UNIVERSITY  001020001000700    00001900003000001600005000011500011500002700002701011
001020100220   5011010351123   07500  6005591JACKSONVL ST UNIVERSITY  001020001000900    00009000028600003600042500083700083700023700023701011
001020100220   5011010351123   07500  6005591JACKSONVL ST UNIVERSITY  001020001001000    00212400083300184200079200559100559100054200054201011
001020100220   5011010351123   07500  6005591JACKSONVL ST UNIVERSITY  00102000100101*    00212400083300184200079200559100559100054200054201011
001021100230   5011510351133   03200  4001053JEFFERSON DAVIS STATE JC 001021001000100    00010100000700006000001000017800017800000900000601011
001021100230   5011510351133   03200  4001053JEFFERSON DAVIS STATE JC 001021001000200    00000000000000003000000000003000003000000000000004041
001021100230   5011510351133   03200  4001053JEFFERSON DAVIS STATE JC 00102100100021*    00010100000700009000001000020800020800000900000601011
001021100230   5011510351133   03200  4001053JEFFERSON DAVIS STATE JC 001021001000300    00021600004200017800006000049600049600005900003401011
001021100230   5011510351133   03200  4001053JEFFERSON DAVIS STATE JC 001021001000400    00000200000000006100000400006700006700000300000101011
001021100230   5011510351133   03200  4001053JEFFERSON DAVIS STATE JC 001021001000600    00021800004200023900006400056300056300006200003501011
001021100230   5011510351133   03200  4001053JEFFERSON DAVIS STATE JC 00102100100061*    00021800004200023900006400056300056300006200003501011
001021100230   5011510351133   03200  4001053JEFFERSON DAVIS STATE JC 001021001000700    00000100008300000300040300049000049000012200016201011
001021100230   5011510351133   03200  4001053JEFFERSON DAVIS STATE JC 001021001001000    00021900012500024200046700105300105300018400019701011
001021100230   5011510351133   03200  4001053JEFFERSON DAVIS STATE JC 00102100100101*    00021900012500024200046700105300105300018400019701011
001022100240   5005510351133   03200  6006898JEFFERSON ST JR COLLEGE  001022001000100    00030900027600013400022400094300094300031200016702041
001022100240   5005510351133   03200  6006898JEFFERSON ST JR COLLEGE  001022001000200    00018700023300020300026300088600088600032300016502041
001022100240   5005510351133   03200  6006898JEFFERSON ST JR COLLEGE  00102200100021*    00049600050900033700048700182900182900063500033202041
001022100240   5005510351133   03200  6006898JEFFERSON ST JR COLLEGE  001022001000300    00082000110800032300050200275300275300099600053702041
001022100240   5005510351133   03200  6006898JEFFERSON ST JR COLLEGE  001022001000400    00071000108200049500066400295100295100110200058202041
001022100240   5005510351133   03200  6006898JEFFERSON ST JR COLLEGE  001022001000600    00153000219000081800116600570400570400209800111902041
001022100240   5005510351133   03200  6006898JEFFERSON ST JR COLLEGE  00102200100061*    00153000219000081800116600570400570400209800111902041
001022100240   5005510351133   03200  6006898JEFFERSON ST JR COLLEGE  001022001000700    00010600044800004200059800119400119400035600034902021
001022100240   5005510351133   03200  6006898JEFFERSON ST JR COLLEGE  001022001001000    00163600263800086000176400689800689800245400146702041
001022100240   5005510351133   03200  6006898JEFFERSON ST JR COLLEGE  00102200100101*    00163600263800086000176400689800689800245400146802041
001023100260   5012010351222   04100  2000353JUDSON COLLEGE           001023001000100    00000000000000011300001300012600012600000600000401011
001023100260   5012010351222   04100  2000353JUDSON COLLEGE           00102300100021*    00000000000000011300001300012600012600000600000401011
001023100260   5012010351222   04100  2000353JUDSON COLLEGE           001023001000300    00000000000000019900001300021200021200000600000401011
001023100260   5012010351222   04100  2000353JUDSON COLLEGE           001023001000500    00000000000000011200002100013300013300001000000701011
001023100260   5012010351222   04100  2000353JUDSON COLLEGE           001023001000600    00000000000000031100003400034500034500001600001101011
001023100260   5012010351222   04100  2000353JUDSON COLLEGE           00102300100061*    00000000000000031100003400034500034500001600001101011
001023100260   5012010351222   04100  2000353JUDSON COLLEGE           001023001000700    00000000000000000000000800000800000800000100000301011
001023100260   5012010351222   04100  2000353JUDSON COLLEGE           001023001001000    00000000000000031100004200035300035300001700001401011
001023100260   5012010351222   04100  2000353JUDSON COLLEGE           00102300100101*    00000000000000031100004200035300035300001700001401011
001024100270   5013010351123   06200  4001326LIVINGSTON UNIVERSITY    001024001000100    00017600000300012500000200030600030600000000000202021
001024100270   5013010351123   06200  4001326LIVINGSTON UNIVERSITY    00102400100021*    00017600000300012500000200030600030600000000000202021
001024100270   5013010351123   06200  4001326LIVINGSTON UNIVERSITY    001024001000300    00034100002400023400001700061600061600000000001402021
001024100270   5013010351123   06200  4001326LIVINGSTON UNIVERSITY    001024001000500    00020500001600011600002800036500036500000000001502021
001024100270   5013010351123   06200  4001326LIVINGSTON UNIVERSITY    001024001000600    00054600004000035000004500098100098100000000002802021
001024100270   5013010351123   06200  4001326LIVINGSTON UNIVERSITY    00102400100061*    00054600004000035000004500098100098100000000002902021
001024100270   5013010351123   06200  4001326LIVINGSTON UNIVERSITY    001024001000700    00000200001600000700004800007300007300000000002102021
001024100270   5013010351123   06200  4001326LIVINGSTON UNIVERSITY    001024001000900    00000500007200001200018300027200027200000000008502021
001024100270   5013010351123   06200  4001326LIVINGSTON UNIVERSITY    001024001001000    00055300012800036900027600132600132600000000013502021
001024100270   5013010351123   06200  4001326LIVINGSTON UNIVERSITY    00102400100101*    00055300012800036900027600132600132600000000013502021
001026100290   5014010351231   03100  1000118MARION INSTITUTE         001026001000100    00005700000000000000000000005700005700000000000001011
001026100290   5014010351231   03100  1000118MARION INSTITUTE         00102600100021*    00005700000000000000000000005700005700000000000001011
001026100290   5014010351231   03100  1000118MARION INSTITUTE         001026001000300    00011700000000000000000000011700011700000000000001011
001026100290   5014010351231   03100  1000118MARION INSTITUTE         001026001000600    00011700000000000000000000011700011700000000000001011
001026100290   5014010351231   03100  1000118MARION INSTITUTE         00102600100061*    00011700000000000000000000011700011700000000000001011
001026100290   5014010351231   03100  1000118MARION INSTITUTE         001026001000700    00000100000000000000000000000100000100000000000001011
001026100290   5014010351231   03100  1000118MARION INSTITUTE         001026001001000    00011800000000000000000000011800011800000000000001011
001026100290   5014010351231   03100  1000118MARION INSTITUTE         00102600100101*    00011800000000000000000000011800011800000000000001011
001028100300   5015010352223   04100  4001127MILES COLLEGE            001028001000100    00015000003500016300004700039500039500004400002702041
001028100300   5015010352223   04100  4001127MILES COLLEGE            00102800100021*    00015000003500016300004700039500039500004400002702041
001028100300   5015010352223   04100  4001127MILES COLLEGE            001028001000300    00023700004300024400005600058000058000005300003302021
001028100300   5015010352223   04100  4001127MILES COLLEGE            001028001000500    00016600004900021600004000047100047100004800003002021
001028100300   5015010352223   04100  4001127MILES COLLEGE            001028001000600    00040300009200046000009600105100105100010100006302021
001028100300   5015010352223   04100  4001127MILES COLLEGE            00102800100061*    00040300009200046000009600105100105100010100006302041
001028100300   5015010352223   04100  4001127MILES COLLEGE            001028001000700    00000200000500002100002000004800004800001300000802021
001028100300   5015010352223   04100  4001127MILES COLLEGE            001028001000800    00002100000000000700000000002800002800000000000002021
001028100300   5015010352223   04100  4001127MILES COLLEGE            001028001001000    00042600009700048800011600112700112700011400007102021
001028100300   5015010352223   04100  4001127MILES COLLEGE            00102800100101*    00042600009700048800011600112700112700011400007102041
001029100310   5014910351223   04100  3000795MOBILE COLLEGE           001029001000100    00007200000400005300000200013100013100000000000202021
001029100310   5014910351223   04100  3000795MOBILE COLLEGE           001029001000200    00000300000500007500003900012200012200000000001502021
001029100310   5014910351223   04100  3000795MOBILE COLLEGE           00102900100021*    00007500000900012800004100025300025300000000001702021
001029100310   5014910351223   04100  3000795MOBILE COLLEGE           001029001000300    00018000001400014100001600035100035100000000001002021
001029100310   5014910351223   04100  3000795MOBILE COLLEGE           001029001000400    00000300001000016500001800019600019600000000000902021
001029100310   5014910351223   04100  3000795MOBILE COLLEGE           001029001000500    00010300000900007500002000020700020700000000001002021
001029100310   5014910351223   04100  3000795MOBILE COLLEGE           001029001000600    00028600003300038100005400075400075400000000002902021
001029100310   5014910351223   04100  3000795MOBILE COLLEGE           00102900100061*    00028600003300038100005400075400075400000000002902021
001029100310   5014910351223   04100  3000795MOBILE COLLEGE           001029001000700    00000300001400000300002100004100004100000000001202021
001029100310   5014910351223   04100  3000795MOBILE COLLEGE           001029001001000    00028900004700038400007500079500079500000000004102021
001029100310   5014910351223   04100  3000795MOBILE COLLEGE           00102900100101*    00028900004700038400007500079500079500000000004102021
001030100360   5015110351133   03200  4001393S D BISHOP ST JR COLLEGE 001030001000100    00021300002100015300001700040400040400002200001302041
001030100360   5015110351133   03200  4001393S D BISHOP ST JR COLLEGE 001030001000200    00003900001000006800000500012200012200001000000502041
001030100360   5015110351133   03200  4001393S D BISHOP ST JR COLLEGE 00103000100021*    00025200003100022100002200052600052600003200001802041
001030100360   5015110351133   03200  4001393S D BISHOP ST JR COLLEGE 001030001000300    00050500007300032500007000097300097300008300004802041
001030100360   5015110351133   03200  4001393S D BISHOP ST JR COLLEGE 001030001000400    00009200002400013100002600027300027300003000001702041
001030100360   5015110351133   03200  4001393S D BISHOP ST JR COLLEGE 001030001000600    00059700009700045600009600124600124600011300006402041
001030100360   5015110351133   03200  4001393S D BISHOP ST JR COLLEGE 00103000100061*    00059700009700045600009600124600124600011300006502041
001030100360   5015110351133   03200  4001393S D BISHOP ST JR COLLEGE 001030001000700    00000500010400001000002800014700014700005600004402021
001030100360   5015110351133   03200  4001393S D BISHOP ST JR COLLEGE 001030001001000    00060200020100046600012400139300139300016900010802041
001030100360   5015110351133   03200  4001393S D BISHOP ST JR COLLEGE 00103000100101*    00060200020100046600012400139300139300016900010902041
001031100320   5015310351133   03200  4001403NTHEST ALA ST JR COLLEGE 001031001000100    00017200002100006200003000028500028500002800001702041
001031100320   5015310351133   03200  4001403NTHEST ALA ST JR COLLEGE 001031001000200    00017400001900003700004500027500027500003900002102041
001031100320   5015310351133   03200  4001403NTHEST ALA ST JR COLLEGE 00103100100021*    00034600004000009900007500056000056000006700003802041
001031100320   5015310351133   03200  4001403NTHEST ALA ST JR COLLEGE 001031001000300    00037600004200013500005900061200061200005600003402041
001031100320   5015310351133   03200  4001403NTHEST ALA ST JR COLLEGE 001031001000400    00034800003700007400008900054800054800007600004202041
001031100320   5015310351133   03200  4001403NTHEST ALA ST JR COLLEGE 001031001000600    00072400007900020900014800116000116000013200007602041
001031100320   5015310351133   03200  4001403NTHEST ALA ST JR COLLEGE 00103100100061*    00072400007900020900014800116000116000013200007602041
001031100320   5015310351133   03200  4001403NTHEST ALA ST JR COLLEGE 001031001000700    00002800008100000300013100024300024300006800007102021
001031100320   5015310351133   03200  4001403NTHEST ALA ST JR COLLEGE 001031001001000    00075200016000021200027900140300140300020000014602041
001031100320   5015310351133   03200  4001403NTHEST ALA ST JR COLLEGE 00103100100101*    00075200016000021200027900140300140300020000014702041
001032100330   5015510351133   03200  4001160NTHWST ALA ST JR COLLEGE 001032001000100    00020100001400011100002200034800034800000000001202021
001032100330   5015510351133   03200  4001160NTHWST ALA ST JR COLLEGE 001032001000200    00000000002000000000011100013100013100000000004402021
001032100330   5015510351133   03200  4001160NTHWST ALA ST JR COLLEGE 00103200100021*    00020100003400011100013300047900047900000000005602021
001032100330   5015510351133   03200  4001160NTHWST ALA ST JR COLLEGE 001032001000300    00050000004700016200006100077000077000000000003602021
001032100330   5015510351133   03200  4001160NTHWST ALA ST JR COLLEGE 001032001000400    00005200003500011500018800039000039000000000007402021
001032100330   5015510351133   03200  4001160NTHWST ALA ST JR COLLEGE 001032001000600    00055200008200027700024900116000116000000000011002021
001032100330   5015510351133   03200  4001160NTHWST ALA ST JR COLLEGE 00103200100061*    00055200008200027700024900116000116000000000011002021
001032100330   5015510351133   03200  4001160NTHWST ALA ST JR COLLEGE 001032001001000    00055200008200027700024900116000116000000000011002021
001032100330   5015510351133   03200  4001160NTHWST ALA ST JR COLLEGE 00103200100101*    00055200008200027700024900116000116000000000011002021
001033100340   5016010352223   04200  4001035OAKWOOD COLLEGE          001033001000100    00011700001800017800001800033100033100002300001202021
001033100340   5016010352223   04200  4001035OAKWOOD COLLEGE          00103300100021*    00011700001800017800001800033100033100002300001202021
001033100340   5016010352223   04200  4001035OAKWOOD COLLEGE          001033001000300    00030500002800038300002200073800073800003200001702021
001033100340   5016010352223   04200  4001035OAKWOOD COLLEGE          001033001000500    00011900001300010400001200024800024800001600000802021
001033100340   5016010352223   04200  4001035OAKWOOD COLLEGE          001033001000600    00042400004100048700003400098600098600004800002502021
001033100340   5016010352223   04200  4001035OAKWOOD COLLEGE          00103300100061*    00042400004100048700003400098600098600004800002502021
001033100340   5016010352223   04200  4001035OAKWOOD COLLEGE          001033001000700    00000400001200001100002200004900004900001200001102021
001033100340   5016010352223   04200  4001035OAKWOOD COLLEGE          001033001001000    00042800005300049800005600103500103500006000003602021
001033100340   5016010352223   04200  4001035OAKWOOD COLLEGE          00103300100101*    00042800005300049800005600103500103500006000003602021
001034100350   5015210351133   03200  3000709PATRICK HENRY STATE JC   001034001000100    00008100001400007500002700019700019700002400001401011
001034100350   5015210351133   03200  3000709PATRICK HENRY STATE JC   001034001000200    00002100001400002400008700014600014600004600003401011
001034100350   5015210351133   03200  3000709PATRICK HENRY STATE JC   00103400100021*    00010200002800009900011400034300034300007000004801011
001034100350   5015210351133   03200  3000709PATRICK HENRY STATE JC   001034001000300    00016400002800013600006600039400039400005600003101011
001034100350   5015210351133   03200  3000709PATRICK HENRY STATE JC   001034001000400    00004900002200004100013900025100025100007400005401011
001034100350   5015210351133   03200  3000709PATRICK HENRY STATE JC   001034001000600    00021300005000017700020500064500064500013000008501011
001034100350   5015210351133   03200  3000709PATRICK HENRY STATE JC   00103400100061*    00021300005000017700020500064500064500013000008501011
001034100350   5015210351133   03200  3000709PATRICK HENRY STATE JC   001034001000700    00000000003400000000003000006400006400001000002101011
001034100350   5015210351133   03200  3000709PATRICK HENRY STATE JC   001034001001000    00021300008400017700023500070900070900014000010601011
001034100350   5015210351133   03200  3000709PATRICK HENRY STATE JC   00103400100101*    00021300008400017700023500070900070900014000010601011
001035100130   5017010351233   03100  1000139CULLMAN COLLEGE          001035001000100    00002900000200003000000500006600006600000200000201011
001035100130   5017010351233   03100  1000139CULLMAN COLLEGE          00103500100021*    00002900000200003000000500006600006600000200000201011
001035100130   5017010351233   03100  1000139CULLMAN COLLEGE          001035001000300    00005100000900006000001900013900013900001000000901011
001035100130   5017010351233   03100  1000139CULLMAN COLLEGE          001035001000600    00005100000900006000001900013900013900001000000901011
001035100130   5017010351233   03100  1000139CULLMAN COLLEGE          00103500100061*    00005100000900006000001900013900013900001000000901011
001035100130   5017010351233   03100  1000139CULLMAN COLLEGE          001035001001000    00005100000900006000001900013900013900001000000901011
001035100130   5017010351233   03100  1000139CULLMAN COLLEGE          00103500100101*    00005100000900006000001900013900013900001000000901011
001036100380   5009010351223   06400  5003572SAMFORD UNIVERSITY       001036001000100    00016600002300034100001800054800054800001500001402041
001036100380   5009010351223   06400  5003572SAMFORD UNIVERSITY       00103600100021*    00016600002300034100001800054800054800001500001402041
001036100380   5009010351223   06400  5003572SAMFORD UNIVERSITY       001036001000300    00035500008300055800013800113400113400007800007402041
001036100380   5009010351223   06400  5003572SAMFORD UNIVERSITY       001036001000500    00063300014800043100010700131900131900009100008502041
001036100380   5009010351223   06400  5003572SAMFORD UNIVERSITY       001036001000600    00098800023100098900024500245300245300016900015902021
001036100380   5009010351223   06400  5003572SAMFORD UNIVERSITY       00103600100061*    00098800023100098900024500245300245300016900015902041
001036100380   5009010351223   06400  5003572SAMFORD UNIVERSITY       001036001000700    00000000007700000000009800017500017500009800005802021
001036100380   5009010351223   06400  5003572SAMFORD UNIVERSITY       001036001000800    00061100000800007500000300069700069700000800000402021
001036100380   5009010351223   06400  5003572SAMFORD UNIVERSITY       001036001000900    00001300012200000700010500024700024700010200007602021
001036100380   5009010351223   06400  5003572SAMFORD UNIVERSITY       001036001001000    00161200043800107100045100357200357200037700029602041
001036100380   5009010351223   06400  5003572SAMFORD UNIVERSITY       00103600100101*    00161200043800107100045100357200357200037700029702041
001037100390   5018410352223   04100  2000361SELMA UNIVERSITY         001037001000100    00007600000800007800000700016900016900000800000501011
001037100390   5018410352223   04100  2000361SELMA UNIVERSITY         00103700100021*    00007600000800007800000700016900016900000800000501011
001037100390   5018410352223   04100  2000361SELMA UNIVERSITY         001037001000300    00016700002300014200000800034000034000001500001001011
001037100390   5018410352223   04100  2000361SELMA UNIVERSITY         001037001000500    00000900000000000000000000000900000900000000000001011
001037100390   5018410352223   04100  2000361SELMA UNIVERSITY         001037001000600    00017600002300014200000800034900034900001500001001011
001037100390   5018410352223   04100  2000361SELMA UNIVERSITY         00103700100061*    00017600002300014200000800034900034900001500001001011
001037100390   5018410352223   04100  2000361SELMA UNIVERSITY         001037001000700    00000200000200000000000800001200001200000500000301011
001037100390   5018410352223   04100  2000361SELMA UNIVERSITY         001037001001000    00017800002500014200001600036100036100002000001401011
001037100390   5018410352223   04100  2000361SELMA UNIVERSITY         00103700100101*    00017800002500014200001600036100036100002000001301011
001038100400   5019010351133   03200  4001776SNEAD STATE JR COLLEGE   001038001000100    00049000020000020800017400107200107200019800012502041
001038100400   5019010351133   03200  4001776SNEAD STATE JR COLLEGE   00103800100021*    00049000020000020800017400107200107200019800012502041
001038100400   5019010351133   03200  4001776SNEAD STATE JR COLLEGE   001038001000300    00071400029100030700021000152200152200026600016702041
001038100400   5019010351133   03200  4001776SNEAD STATE JR COLLEGE   001038001000600    00071400029100030700021000152200152200026600016702041
001038100400   5019010351133   03200  4001776SNEAD STATE JR COLLEGE   00103800100061*    00071400029100030700021000152200152200026600016702041
001038100400   5019010351133   03200  4001776SNEAD STATE JR COLLEGE   001038001000700    00000000009800000000015600025400025400006000008502041
001038100400   5019010351133   03200  4001776SNEAD STATE JR COLLEGE   001038001001000    00071400038900030700036600177600177600032600025202041
001038100400   5019010351133   03200  4001776SNEAD STATE JR COLLEGE   00103800100101*    00071400038900030700036600177600177600032600025202041
001039100410   5020010351223   06100  2000291STHESTN BIBLE COLLEGE    001039001000100    00002800000300002000000300005400005400000200000201011
001039100410   5020010351223   06100  2000291STHESTN BIBLE COLLEGE    001039001000200    00000200000000000000000000000200000200000000000001011
001039100410   5020010351223   06100  2000291STHESTN BIBLE COLLEGE    00103900100021*    00003000000300002000000300005600005600000200000201011
001039100410   5020010351223   06100  2000291STHESTN BIBLE COLLEGE    001039001000300    00008300002300005200000400016200016200002100000901011
001039100410   5020010351223   06100  2000291STHESTN BIBLE COLLEGE    001039001000400    00000200000000000000000000000200000200000000000001011
001039100410   5020010351223   06100  2000291STHESTN BIBLE COLLEGE    001039001000500    00005000001200002000000500008700008700001200000601011
001039100410   5020010351223   06100  2000291STHESTN BIBLE COLLEGE    001039001000600    00013500003500007200000900025100025100003300001501011
001039100410   5020010351223   06100  2000291STHESTN BIBLE COLLEGE    00103900100061*    00013500003500007200000900025100025100003300001501011
001039100410   5020010351223   06100  2000291STHESTN BIBLE COLLEGE    001039001000700    00000400000900000400001900003600003600001200000901011
001039100410   5020010351223   06100  2000291STHESTN BIBLE COLLEGE    001039001000900    00000100000300000000000000000400000400000200000101011
001039100410   5020010351223   06100  2000291STHESTN BIBLE COLLEGE    001039001001000    00014000004700007600002800029100029100004700002501011
001039100410   5020010351223   06100  2000291STHESTN BIBLE COLLEGE    00103900100101*    00014000004700007600002800029100029100004700002501011
001040100420   5021010351133   03200  4001302STHN UNION ST JR COLLEGE 001040001000100    00029900002400011900002100046300046300002900001502021
001040100420   5021010351133   03200  4001302STHN UNION ST JR COLLEGE 00104000100021*    00029900002400011900002100046300046300002900001502021
001040100420   5021010351133   03200  4001302STHN UNION ST JR COLLEGE 001040001000300    00081300014400019800014700130200130200017200009702021
001040100420   5021010351133   03200  4001302STHN UNION ST JR COLLEGE 001040001000600    00081300014400019800014700130200130200017200009702021
001040100420   5021010351133   03200  4001302STHN UNION ST JR COLLEGE 00104000100061*    00081300014400019800014700130200130200017200009702021
001040100420   5021010351133   03200  4001302STHN UNION ST JR COLLEGE 001040001001000    00081300014400019800014700130200130200017200009702021
001040100420   5021010351133   03200  4001302STHN UNION ST JR COLLEGE 00104000100101*    00081300014400019800014700130200130200017200009702021
001041100430   5022010351223   04100  3000909SPRING HILL COLLEGE      001041001000100    00013900000000011400000000025300025300000000000001011
001041100430   5022010351223   04100  3000909SPRING HILL COLLEGE      00104100100021*    00013900000000011400000000025300025300000000000001011
001041100430   5022010351223   04100  3000909SPRING HILL COLLEGE      001041001000300    00033400000000021900000000055300055300000000000001011
001041100430   5022010351223   04100  3000909SPRING HILL COLLEGE      001041001000500    00014100000000009900000000024000024000000000000001011
001041100430   5022010351223   04100  3000909SPRING HILL COLLEGE      001041001000600    00047500000000031800000000079300079300000000000001011
001041100430   5022010351223   04100  3000909SPRING HILL COLLEGE      00104100100061*    00047500000000031800000000079300079300000000000001011
001041100430   5022010351223   04100  3000909SPRING HILL COLLEGE      001041001000700    00000900003100000000007600011600011600003600003601011
001041100430   5022010351223   04100  3000909SPRING HILL COLLEGE      001041001001000    00048400003100031800007600090900090900003600003601011
001041100430   5022010351223   04100  3000909SPRING HILL COLLEGE      00104100100101*    00048400003100031800007600090900090900003600003601011
001043100370   5018010351223   04100  2000393SAINT BERNARD COLLEGE    001043001000100    00004900000300002200000100007500007500000200000101011
001043100370   5018010351223   04100  2000393SAINT BERNARD COLLEGE    00104300100021*    00004900000300002200000100007500007500000200000101011
001043100370   5018010351223   04100  2000393SAINT BERNARD COLLEGE    001043001000300    00012600001400005600000400020000020000000900000601011
001043100370   5018010351223   04100  2000393SAINT BERNARD COLLEGE    001043001000500    00009300000700006300000400016700016700000500000401011
001043100370   5018010351223   04100  2000393SAINT BERNARD COLLEGE    001043001000600    00021900002100011900000800036700036700001400001001011
001043100370   5018010351223   04100  2000393SAINT BERNARD COLLEGE    00104300100061*    00021900002100011900000800036700036700001400001001011
001043100370   5018010351223   04100  2000393SAINT BERNARD COLLEGE    001043001000700    00000300000900000300001100002600002600000700000701011
001043100370   5018010351223   04100  2000393SAINT BERNARD COLLEGE    001043001001000    00022200003000012200001900039300039300002100001601011
001043100370   5018010351223   04100  2000393SAINT BERNARD COLLEGE    00104300100101*    00022200003000012200001900039300039300002100001701011
001044100440   5023010352223   04100  3000711STILLMAN COLLEGE         001044001000100    00007600000000011900000000019500019500000000000001011
001044100440   5023010352223   04100  3000711STILLMAN COLLEGE         00104400100021*    00007600000000011900000000019500019500000000000001011
001044100440   5023010352223   04100  3000711STILLMAN COLLEGE         001044001000300    00020000000100025600000000045700045700000000000001011
001044100440   5023010352223   04100  3000711STILLMAN COLLEGE         001044001000500    00008000000300012400000200020900020900000300000201041
001044100440   5023010352223   04100  3000711STILLMAN COLLEGE         001044001000600    00028000000400038000000200066600066600000300000201041
001044100440   5023010352223   04100  3000711STILLMAN COLLEGE         00104400100061*    00028000000400038000000200066600066600000300000201011
001044100440   5023010352223   04100  3000711STILLMAN COLLEGE         001044001000700    00000000001000000200003300004500004500001900001401011
001044100440   5023010352223   04100  3000711STILLMAN COLLEGE         001044001001000    00028000001400038200003500071100071100002200001601041
001044100440   5023010352223   04100  3000711STILLMAN COLLEGE         00104400100101*    00028000001400038200003500071100071100002200001601011
001046100450   5024010352223   04100  2000481TALLADEGA COLLEGE        001046001000100    00005000000000009200000100014300014300000100000002021
001046100450   5024010352223   04100  2000481TALLADEGA COLLEGE        00104600100021*    00005000000000009200000100014300014300000100000002021
001046100450   5024010352223   04100  2000481TALLADEGA COLLEGE        001046001000300    00012700000000017100000100029900029900000100000002021
001046100450   5024010352223   04100  2000481TALLADEGA COLLEGE        001046001000500    00006900000100010300000000017300017300000100000002021
001046100450   5024010352223   04100  2000481TALLADEGA COLLEGE        001046001000600    00019600000100027400000100047200047200000200000102021
001046100450   5024010352223   04100  2000481TALLADEGA COLLEGE        00104600100061*    00019600000100027400000100047200047200000200000002021
001046100450   5024010352223   04100  2000481TALLADEGA COLLEGE        001046001000700    00000000000000000100000800000900000900000200000302021
001046100450   5024010352223   04100  2000481TALLADEGA COLLEGE        001046001001000    00019600000100027500000900048100048100000400000302021
001046100450   5024010352223   04100  2000481TALLADEGA COLLEGE        00104600100101*    00019600000100027500000900048100048100000400000302021
001047100490B016025010351123   06200  6005060TROY STATE U MAIN CAMPUS 001047001000100    00032600016600030100007800087100087100009700008102041
001047100490B016025010351123   06200  6005060TROY STATE U MAIN CAMPUS 00104700100021*    00032600016600030100007800087100087100009700008102041
001047100490B016025010351123   06200  6005060TROY STATE U MAIN CAMPUS 001047001000300    00085400043800081400015200225800225800025800019702021
001047100490B016025010351123   06200  6005060TROY STATE U MAIN CAMPUS 001047001000500    00076600037900069700017600201800201800028200018502021
001047100490B016025010351123   06200  6005060TROY STATE U MAIN CAMPUS 001047001000600    00162000081700151100032800427600427600054000038202021
001047100490B016025010351123   06200  6005060TROY STATE U MAIN CAMPUS 00104700100061*    00162000081700151100032800427600427600054000038202041
001047100490B016025010351123   06200  6005060TROY STATE U MAIN CAMPUS 001047001000700    00003500006900002500004200017100017100004600003702021
001047100490B016025010351123   06200  6005060TROY STATE U MAIN CAMPUS 001047001000900    00009500023000005900022900061300061300020900015302021
001047100490B016025010351123   06200  6005060TROY STATE U MAIN CAMPUS 001047001001000    00175000111600159500059900506000506000079500057202021
001047100490B016025010351123   06200  6005060TROY STATE U MAIN CAMPUS 00104700100101*    00175000111600159500059900506000506000079500057202041
001049100510B037920210351123   07200  4001928TROY STATE U MONTGOMERY  001049001000100    00003100018300001000007800030200030200016500008702021
001049100510B037920210351123   07200  4001928TROY STATE U MONTGOMERY  00104900100021*    00003100018300001000007800030200030200016500008702021
001049100510B037920210351123   07200  4001928TROY STATE U MONTGOMERY  001049001000300    00011200055600003200020300090300090300048900025302021
001049100510B037920210351123   07200  4001928TROY STATE U MONTGOMERY  001049001000500    00010900027800002100005400046200046200023500011102021
001049100510B037920210351123   07200  4001928TROY STATE U MONTGOMERY  001049001000600    00022100083400005300025700136500136500072400036402041
001049100510B037920210351123   07200  4001928TROY STATE U MONTGOMERY  00104900100061*    00022100083400005300025700136500136500072400036402021
001049100510B037920210351123   07200  4001928TROY STATE U MONTGOMERY  001049001000700    00000000004000000100002500006600006600003200002202021
001049100510B037920210351123   07200  4001928TROY STATE U MONTGOMERY  001049001000900    00025000010200004800009700049700049700010000006602021
001049100510B037920210351123   07200  4001928TROY STATE U MONTGOMERY  001049001001000    00047100097600010200037900192800192800085600045202021
001049100510B037920210351123   07200  4001928TROY STATE U MONTGOMERY  00104900100101*    00047100097600010200037900192800192800085600045202021
001050100520   5026010352223   06100  5003284TUSKEGEE INSTITUTE       001050001000100    00039100000000045700000000084800084800000000000002021
001050100520   5026010352223   06100  5003284TUSKEGEE INSTITUTE       00105000100021*    00039100000000045700000000084800084800000000000002021
001050100520   5026010352223   06100  5003284TUSKEGEE INSTITUTE       001050001000300    00086000001000091200001500179700179700000800000802021
001050100520   5026010352223   06100  5003284TUSKEGEE INSTITUTE       001050001000500    00048000001900050800004100104800104800002700002002021
001050100520   5026010352223   06100  5003284TUSKEGEE INSTITUTE       001050001000600    00134000002900142000005600284500284500003500002802021
001050100520   5026010352223   06100  5003284TUSKEGEE INSTITUTE       00105000100061*    00134000002900142000005600284500284500003500002802021
001050100520   5026010352223   06100  5003284TUSKEGEE INSTITUTE       001050001000700    00000700001200000700000900003500003500000700000702021
001050100520   5026010352223   06100  5003284TUSKEGEE INSTITUTE       001050001000800    00013600000100002600000100016400016400000100000102021
001050100520   5026010352223   06100  5003284TUSKEGEE INSTITUTE       001050001000900    00006400006800006000004800024000024000002200003902021
001050100520   5026010352223   06100  5003284TUSKEGEE INSTITUTE       001050001001000    00154700011000151300011400328400328400006500007502021
001050100520   5026010352223   06100  5003284TUSKEGEE INSTITUTE       00105000100101*    00154700011000151300011400328400328400006500007502021
001051100550   5027010351113   08100  7015638UNIVERSITY OF ALABAMA    001051001000100    00141900001700128500001600273700273700001300001102021
001051100550   5027010351113   08100  7015638UNIVERSITY OF ALABAMA    00105100100021*    00141900001700128500001600273700273700001300001102021
001051100550   5027010351113   08100  7015638UNIVERSITY OF ALABAMA    001051001000300    00346400024400279500022900673200673200026600015802021
001051100550   5027010351113   08100  7015638UNIVERSITY OF ALABAMA    001051001000500    00283500020000194300015800513600513600020000011902021
001051100550   5027010351113   08100  7015638UNIVERSITY OF ALABAMA    001051001000600    00629900044400473800038701186801186800046600027702021
001051100550   5027010351113   08100  7015638UNIVERSITY OF ALABAMA    00105100100061*    00629900044400473800038701186801186800046600027702021
001051100550   5027010351113   08100  7015638UNIVERSITY OF ALABAMA    001051001000700    00007500031200005600049900094200094200039700027002021
001051100550   5027010351113   08100  7015638UNIVERSITY OF ALABAMA    001051001000800    00041300000000005100000200046600046600000000000102021
001051100550   5027010351113   08100  7015638UNIVERSITY OF ALABAMA    001051001000900    00064700055600052500063400236200236200052700039702021
001051100550   5027010351113   08100  7015638UNIVERSITY OF ALABAMA    001051001001000    00743400131200537000152201563801563800139000094502021
001051100550   5027010351113   08100  7015638UNIVERSITY OF ALABAMA    00105100100101*    00743400131200537000152201563801563800139000094502021
001052100560   5921010351123   08200  6009883U ALABAMA IN BIRMINGHAM  001052001000100    00035200016300034900010200096600096600016700008802021
001052100560   5921010351123   08200  6009883U ALABAMA IN BIRMINGHAM  001052001000200    00008000005700014100000600028400028400004700002102021
001052100560   5921010351123   08200  6009883U ALABAMA IN BIRMINGHAM  00105200100021*    00043200022000049000010800125000125000021400010902021
001052100560   5921010351123   08200  6009883U ALABAMA IN BIRMINGHAM  001052001000300    00103200068200098100053200322700322700072800040502021
001052100560   5921010351123   08200  6009883U ALABAMA IN BIRMINGHAM  001052001000400    00015600005700021500000700043500043500004700002102021
001052100560   5921010351123   08200  6009883U ALABAMA IN BIRMINGHAM  001052001000500    00070800061100084500042700259100259100066900034602021
001052100560   5921010351123   08200  6009883U ALABAMA IN BIRMINGHAM  001052001000600    00189600135000204100096600625300625300144400077202021
001052100560   5921010351123   08200  6009883U ALABAMA IN BIRMINGHAM  00105200100061*    00189600135000204100096600625300625300144400077202021
001052100560   5921010351123   08200  6009883U ALABAMA IN BIRMINGHAM  001052001000700    00014800042900008400034200100300100300042300025702021
001052100560   5921010351123   08200  6009883U ALABAMA IN BIRMINGHAM  001052001000800    00069400000000008400000000077800077800000000000002021
001052100560   5921010351123   08200  6009883U ALABAMA IN BIRMINGHAM  001052001000900    00030700044600032600077000184900184900060800040502021
001052100560   5921010351123   08200  6009883U ALABAMA IN BIRMINGHAM  001052001001000    00304500222500253500207800988300988300247500143402021
001052100560   5921010351123   08200  6009883U ALABAMA IN BIRMINGHAM  00105200100101*    00304500222500253500207800988300988300247500143402021
001055100570   5900310351123   08200  5003476U ALABAMA IN HUNTSVILLE  001055001000100    00021400014100015600018800069900069900016300011002021
001055100570   5900310351123   08200  5003476U ALABAMA IN HUNTSVILLE  00105500100021*    00021400014100015600018800069900069900016300011002021
001055100570   5900310351123   08200  5003476U ALABAMA IN HUNTSVILLE  001055001000300    00050700033600042200046900173400173400039100026802021
001055100570   5900310351123   08200  5003476U ALABAMA IN HUNTSVILLE  001055001000500    00031800022100031900014400100200100200020500012202021
001055100570   5900310351123   08200  5003476U ALABAMA IN HUNTSVILLE  001055001000600    00082500055700074100061300273600273600059600039002021
001055100570   5900310351123   08200  5003476U ALABAMA IN HUNTSVILLE  00105500100061*    00082500055700074100061300273600273600059600039002021
001055100570   5900310351123   08200  5003476U ALABAMA IN HUNTSVILLE  001055001000700    00003100013800003400008900029200029200009900007602021
001055100570   5900310351123   08200  5003476U ALABAMA IN HUNTSVILLE  001055001000800    00002100000000000100000000002200002200000000000002021
001055100570   5900310351123   08200  5003476U ALABAMA IN HUNTSVILLE  001055001000900    00012800020800003200005800042600042600013100008902021
001055100570   5900310351123   08200  5003476U ALABAMA IN HUNTSVILLE  001055001001000    00100500090300080800076000347600347600082600055402021
001055100570   5900310351123   08200  5003476U ALABAMA IN HUNTSVILLE  00105500100101*    00100500090300080800076000347600347600082600055502021
001057100590   5027510351123   08200  6006206U OF SOUTH ALABAMA       001057001000100    00056000008400048200010300122900122900006200006202021
001057100590   5027510351123   08200  6006206U OF SOUTH ALABAMA       00105700100021*    00056000008400048200010300122900122900006200006202021
001057100590   5027510351123   08200  6006206U OF SOUTH ALABAMA       001057001000300    00141200032100108000030300311600311600020800020802021
001057100590   5027510351123   08200  6006206U OF SOUTH ALABAMA       001057001000500    00089900022400063800010300186400186400010900010902021
001057100590   5027510351123   08200  6006206U OF SOUTH ALABAMA       001057001000600    00231100054500171800040600498000498000031700031702021
001057100590   5027510351123   08200  6006206U OF SOUTH ALABAMA       00105700100061*    00231100054500171800040600498000498000031700031702021
001057100590   5027510351123   08200  6006206U OF SOUTH ALABAMA       001057001000700    00003200008400001600005300018500018500004600004602021
001057100590   5027510351123   08200  6006206U OF SOUTH ALABAMA       001057001000800    00012400000000002900000000015300015300000000000002021
001057100590   5027510351123   08200  6006206U OF SOUTH ALABAMA       001057001000900    00011200027400008200042000088800088800023100023102021
001057100590   5027510351123   08200  6006206U OF SOUTH ALABAMA       001057001001000    00257900090300184500087900620600620600059400059402021
001057100590   5027510351123   08200  6006206U OF SOUTH ALABAMA       00105700100101*    00257900090300184500087900620600620600059400059402021
001058100600   5028010351233   03100  3000685WALKER COLLEGE           001058001000100    00014000004200010500002000030700030700002300002102021
001058100600   5028010351233   03100  3000685WALKER COLLEGE           00105800100021*    00014000004200010500002000030700030700002300002102021
001058100600   5028010351233   03100  3000685WALKER COLLEGE           001058001000300    00031700009900020500006400068500068500006400005402021
001058100600   5028010351233   03100  3000685WALKER COLLEGE           001058001000600    00031700009900020500006400068500068500006400005402021
001058100600   5028010351233   03100  3000685WALKER COLLEGE           00105800100061*    00031700009900020500006400068500068500006400005402021
001058100600   5028010351233   03100  3000685WALKER COLLEGE           001058001001000    00031700009900020500006400068500068500006400005402021
001058100600   5028010351233   03100  3000685WALKER COLLEGE           00105800100101*    00031700009900020500006400068500068500006400005402021
001059100460   5029010352133   03200  5002579THEODORE A LAWSON ST JC  001059001000100    00013700009500005900007400036500036500010100005602041
001059100460   5029010352133   03200  5002579THEODORE A LAWSON ST JC  001059001000200    00007400003500004800012200027900027900009400005202041
001059100460   5029010352133   03200  5002579THEODORE A LAWSON ST JC  00105900100021*    00021100013000010700019600064400064400019500010802041
001059100460   5029010352133   03200  5002579THEODORE A LAWSON ST JC  001059001000300    00084300012300032900011600141100141100014300008002041
001059100460   5029010352133   03200  5002579THEODORE A LAWSON ST JC  001059001000400    00047500005200038000021400112100112100015900008902041
001059100460   5029010352133   03200  5002579THEODORE A LAWSON ST JC  001059001000600    00131800017500070900033000253200253200030200016802041
001059100460   5029010352133   03200  5002579THEODORE A LAWSON ST JC  00105900100061*    00131800017500070900033000253200253200030200016902041
001059100460   5029010352133   03200  5002579THEODORE A LAWSON ST JC  001059001000700    00001700001300001200000500004700004700000200000602021
001059100460   5029010352133   03200  5002579THEODORE A LAWSON ST JC  001059001001000    00133500018800072100033500257900257900030400017402041
001059100460   5029010352133   03200  5002579THEODORE A LAWSON ST JC  00105900100101*    00133500018800072100033500257900257900030400017502041
001060100160   5029510351133   03200  4002442FAULKNER STATE JR COLLEGE001060001000100    00023500002300015900004700046400046400002900002302021
001060100160   5029510351133   03200  4002442FAULKNER STATE JR COLLEGE001060001000200    00000000000000000100000300000400000400000100000102021
001060100160   5029510351133   03200  4002442FAULKNER STATE JR COLLEGE00106000100021*    00023500002300016000005000046800046800003000002402021
001060100160   5029510351133   03200  4002442FAULKNER STATE JR COLLEGE001060001000300    00085600012700034500010900143700143700014700007902021
001060100160   5029510351133   03200  4002442FAULKNER STATE JR COLLEGE001060001000400    00000100000200000100000500000900000900000200000202021
001060100160   5029510351133   03200  4002442FAULKNER STATE JR COLLEGE001060001000600    00085700012900034600011400144600144600014900008102021
001060100160   5029510351133   03200  4002442FAULKNER STATE JR COLLEGE00106000100061*    00085700012900034600011400144600144600014900008102021
001060100160   5029510351133   03200  4002442FAULKNER STATE JR COLLEGE001060001000700    00004800040700000000054100099600099600018300031602021
001060100160   5029510351133   03200  4002442FAULKNER STATE JR COLLEGE001060001001000    00090500053600034600065500244200244200033200039702041
001060100160   5029510351133   03200  4002442FAULKNER STATE JR COLLEGE00106000100101*    00090500053600034600065500244200244200033200039702021
001061110010   5000211481223   06500  3000878ALASKA METH UNIVERSITY   001061001000100    00002600005000005500003700016800016800002900002902021
001061110010   5000211481223   06500  3000878ALASKA METH UNIVERSITY   00106100100021*    00002600005000005500003700016800016800002900002902021
001061110010   5000211481223   06500  3000878ALASKA METH UNIVERSITY   001061001000300    00004800001600008500000900015800015800000800000802021
001061110010   5000211481223   06500  3000878ALASKA METH UNIVERSITY   001061001000500    00008300002800013800002300027200027200001700001702021
001061110010   5000211481223   06500  3000878ALASKA METH UNIVERSITY   001061001000600    00013100004400022300003200043000043000002500002502021
001061110010   5000211481223   06500  3000878ALASKA METH UNIVERSITY   00106100100061*    00013100004400022300003200043000043000002500002502021
001061110010   5000211481223   06500  3000878ALASKA METH UNIVERSITY   001061001000700    00001900021500004500011900039800039800012100011102021
001061110010   5000211481223   06500  3000878ALASKA METH UNIVERSITY   001061001000900    00000500001300000400002800005000005000001400001402021
001061110010   5000211481223   06500  3000878ALASKA METH UNIVERSITY   001061001001000    00015500027200027200017900087800087800016000015002021
001061110010   5000211481223   06500  3000878ALASKA METH UNIVERSITY   00106100100101*    00015500027200027200017900087800087800016000015002021
001062110020   5000711481233   03400  2000245SHELDON JACKSON COLLEGE  001062001000100    00005500000000004900000000010400010400000000000002021
001062110020   5000711481233   03400  2000245SHELDON JACKSON COLLEGE  001062001000200    00000000000000001400000000001400001400000000000002021
001062110020   5000711481233   03400  2000245SHELDON JACKSON COLLEGE  00106200100021*    00005500000000006300000000011800011800000000000002021
001062110020   5000711481233   03400  2000245SHELDON JACKSON COLLEGE  001062001000300    00009500002600006800004200023100023100001600002302021
001062110020   5000711481233   03400  2000245SHELDON JACKSON COLLEGE  001062001000400    00000000000000001400000000001400001400000000000002021
001062110020   5000711481233   03400  2000245SHELDON JACKSON COLLEGE  001062001000600    00009500002600008200004200024500024500001600002302021
001062110020   5000711481233   03400  2000245SHELDON JACKSON COLLEGE  00106200100061*    00009500002600008200004200024500024500001600002302021
001062110020   5000711481233   03400  2000245SHELDON JACKSON COLLEGE  001062001001000    00009500002600008200004200024500024500001600002302021
001062110020   5000711481233   03400  2000245SHELDON JACKSON COLLEGE  00106200100101*    00009500002600008200004200024500024500001600002302021
001063110070A038001011481113   08100  5004645U OF ALASKA FAIRBANKS    001063001000100    00020000010000020000018600068600068600007700009502021
001063110070A038001011481113   08100  5004645U OF ALASKA FAIRBANKS    001063001000200    00004900001900005600002600015000015000001000001502021
001063110070A038001011481113   08100  5004645U OF ALASKA FAIRBANKS    00106300100021*    00024900011900025600021200083600083600008700011002021
001063110070A038001011481113   08100  5004645U OF ALASKA FAIRBANKS    001063001000300    00055100023700048700041800169300169300016100021802021
001063110070A038001011481113   08100  5004645U OF ALASKA FAIRBANKS    001063001000400    00010100008200012000029100059400059400006100012402021
001063110070A038001011481113   08100  5004645U OF ALASKA FAIRBANKS    001063001000500    00036600004900023300003500068300068300002300002802021
001063110070A038001011481113   08100  5004645U OF ALASKA FAIRBANKS    001063001000600    00101800036800084000074400297000297000024500037102021
001063110070A038001011481113   08100  5004645U OF ALASKA FAIRBANKS    00106300100061*    00101800036800084000074400297000297000024500037002021
001063110070A038001011481113   08100  5004645U OF ALASKA FAIRBANKS    001063001000700    00004900069900002800064400142000142000034500044802021
001063110070A038001011481113   08100  5004645U OF ALASKA FAIRBANKS    001063001000900    00008600010000003500003400025500025500003600004502021
001063110070A038001011481113   08100  5004645U OF ALASKA FAIRBANKS    001063001001000    00115300116700090300142200464500464500062600086302021
001063110070A038001011481113   08100  5004645U OF ALASKA FAIRBANKS    00106300100101*    00115300116700090300142200464500464500062600086302021
001064110050A029900311481153   03300  6005513U OF ALASKA ANCHORAGE CC 001064001000100    00040100073800039500098600252000252000067100057502021
001064110050A029900311481153   03300  6005513U OF ALASKA ANCHORAGE CC 001064001000200    00001000007200000200004600013000013000003000003902021
001064110050A029900311481153   03300  6005513U OF ALASKA ANCHORAGE CC 00106400100021*    00041100081000039700103200265000265000070100061402021
001064110050A029900311481153   03300  6005513U OF ALASKA ANCHORAGE CC 001064001000300    00078000158500077000211900525400525400143400123502021
001064110050A029900311481153   03300  6005513U OF ALASKA ANCHORAGE CC 001064001000400    00001900014500000300009200025900025900005900007902021
001064110050A029900311481153   03300  6005513U OF ALASKA ANCHORAGE CC 001064001000600    00079900173000077300221100551300551300149300131402021
001064110050A029900311481153   03300  6005513U OF ALASKA ANCHORAGE CC 00106400100061*    00079900173000077300221100551300551300149300131402021
001064110050A029900311481153   03300  6005513U OF ALASKA ANCHORAGE CC 001064001001000    00079900173000077300221100551300551300149300131402021
001064110050A029900311481153   03300  6005513U OF ALASKA ANCHORAGE CC 00106400100101*    00079900173000077300221100551300551300149300131402021
001065110080A039900611481153   03100  2000432U OF ALAS JUNEAU-DGLS CC 001065001000300    00002300011700003200026000043200043200008100012602021
001065110080A039900611481153   03100  2000432U OF ALAS JUNEAU-DGLS CC 001065001000600    00002300011700003200026000043200043200008100012602021
001065110080A039900611481153   03100  2000432U OF ALAS JUNEAU-DGLS CC 00000000100061*000000002300011700003200026000043200043200008100012600001
001065110080A039900611481153   03100  2000432U OF ALAS JUNEAU-DGLS CC 001065001001000    00002300011700003200026000043200043200008100012602021
001065110080A039900611481153   03100  2000432U OF ALAS JUNEAU-DGLS CC 00000000100101*000000002300011700003200026000043200043200008100012600001
001067110110A059900911481153   03100  1000128U OF ALASKA KETCHIKAN CC 001067001000300    00000400004200001200007000012800012800002700003702021
001067110110A059900911481153   03100  1000128U OF ALASKA KETCHIKAN CC 001067001000600    00000400004200001200007000012800012800002700003702021
001067110110A059900911481153   03100  1000128U OF ALASKA KETCHIKAN CC 00000000100061*000000000400004200001200007000012800012800002700003700001
001067110110A059900911481153   03100  1000128U OF ALASKA KETCHIKAN CC 001067001001000    00000400004200001200007000012800012800002700003702021
001067110110A059900911481153   03100  1000128U OF ALASKA KETCHIKAN CC 00000000100101*000000000400004200001200007000012800012800002700003700001
001069110140A089902011481153   03100  1000114U OF ALASKA SITKA CC     001069001000300    00000100001900000300009100011400011400002400003702021
001069110140A089902011481153   03100  1000114U OF ALASKA SITKA CC     001069001000600    00000100001900000300009100011400011400002400003702021
001069110140A089902011481153   03100  1000114U OF ALASKA SITKA CC     00000000100061*000000000100001900000300009100011400011400002400003700001
001069110140A089902011481153   03100  1000114U OF ALASKA SITKA CC     001069001001000    00000100001900000300009100011400011400002400003702021
001069110140A089902011481153   03100  1000114U OF ALASKA SITKA CC     00000000100101*000000000100001900000300009100011400011400002400003700001
001070120005   5001012461223   06400  3000822AMERICAN GRADUATE SCHOOL 001070001000900    00071600000000010600000000082200082200000000000002021
001070120005   5001012461223   06400  3000822AMERICAN GRADUATE SCHOOL 001070001001000    00071600000000010600000000082200082200000000000002021
001070120005   5001012461223   06400  3000822AMERICAN GRADUATE SCHOOL 00000000100101*000000071600000000010600000000082200082200000000000000001
001071120040   5003512461133   03400  5003954ARIZONA WESTERN COLLEGE  001071001000100    00013000018700006500022000060200060200011300013602041
001071120040   5003512461133   03400  5003954ARIZONA WESTERN COLLEGE  001071001000200    00005600002400002900001500012400012400001100001302041
001071120040   5003512461133   03400  5003954ARIZONA WESTERN COLLEGE  00107100100021*    00018600021100009400023500072600072600012400014902041
001071120040   5003512461133   03400  5003954ARIZONA WESTERN COLLEGE  001071001000300    00029000039700013100048800130600130600024200029502041
001071120040   5003512461133   03400  5003954ARIZONA WESTERN COLLEGE  001071001000400    00012500004600007600003600028300028300002200002702021
001071120040   5003512461133   03400  5003954ARIZONA WESTERN COLLEGE  001071001000600    00041500044300020700052400158900158900026400032202021
001071120040   5003512461133   03400  5003954ARIZONA WESTERN COLLEGE  00107100100061*    00041500044300020700052400158900158900026400032202041
001071120040   5003512461133   03400  5003954ARIZONA WESTERN COLLEGE  001071001000700    00046200076000018900095400236500236500046700057102021
001071120040   5003512461133   03400  5003954ARIZONA WESTERN COLLEGE  001071001001000    00087700120300039600147800395400395400073100089402021
001071120040   5003512461133   03400  5003954ARIZONA WESTERN COLLEGE  00107100100101*    00087700120300039600147800395400395400073100089302041
001072120060   5003712461133   03100  5002829COCHISE COLLEGE          001072001000100    00008100025800005900028500068300068300018100018102021
001072120060   5003712461133   03100  5002829COCHISE COLLEGE          001072001000200    00008900012400007800008700037800037800007000007002021
001072120060   5003712461133   03100  5002829COCHISE COLLEGE          00107200100021*    00017000038200013700037200106100106100025100025102021
001072120060   5003712461133   03100  5002829COCHISE COLLEGE          001072001000300    00018100058100014600064500155300155300040900040902021
001072120060   5003712461133   03100  5002829COCHISE COLLEGE          001072001000400    00027500036400016200024700104800104800020400020402021
001072120060   5003712461133   03100  5002829COCHISE COLLEGE          001072001000600    00045600094500030800089200260100260100061300061202041
001072120060   5003712461133   03100  5002829COCHISE COLLEGE          00107200100061*    00045600094500030800089200260100260100061300061302021
001072120060   5003712461133   03100  5002829COCHISE COLLEGE          001072001000700    00009800007000000200005800022800022800004300004302021
001072120060   5003712461133   03100  5002829COCHISE COLLEGE          001072001001000    00055400101500031000095000282900282900065600065502041
001072120060   5003712461133   03100  5002829COCHISE COLLEGE          00107200100101*    00055400101500031000095000282900282900065600065602021
001073120100   5004012461133   03100  5002681EASTERN ARIZONA COLLEGE  001073001000100    00014500001200006900001100023700023700001400000802021
001073120100   5004012461133   03100  5002681EASTERN ARIZONA COLLEGE  001073001000200    00030100021100018300016400085900085900023400012502021
001073120100   5004012461133   03100  5002681EASTERN ARIZONA COLLEGE  00107300100021*    00044600022300025200017500109600109600024800013302021
001073120100   5004012461133   03100  5002681EASTERN ARIZONA COLLEGE  001073001000300    00018200001400007900002100029600029600002100001202021
001073120100   5004012461133   03100  5002681EASTERN ARIZONA COLLEGE  001073001000400    00041200030500022000025700119400119400035100018702021
001073120100   5004012461133   03100  5002681EASTERN ARIZONA COLLEGE  001073001000600    00059400031900029900027800149000149000037200019902021
001073120100   5004012461133   03100  5002681EASTERN ARIZONA COLLEGE  00107300100061*    00059400031900029900027800149000149000037200019902021
001073120100   5004012461133   03100  5002681EASTERN ARIZONA COLLEGE  001073001000700    00001900057300000200059700119100119100036200039002021
001073120100   5004012461133   03100  5002681EASTERN ARIZONA COLLEGE  001073001001000    00061300089200030100087500268100268100073400058902021
001073120100   5004012461133   03100  5002681EASTERN ARIZONA COLLEGE  00107300100101*    00061300089200030100087500268100268100073400058902021
001074120110   5005012461223   04400  4001036GRAND CANYON COLLEGE     001074001000100    00007700000100009900000300018000018000000300000102021
001074120110   5005012461223   04400  4001036GRAND CANYON COLLEGE     00107400100021*    00007700000100009900000300018000018000000300000102021
001074120110   5005012461223   04400  4001036GRAND CANYON COLLEGE     001074001000300    00020700002600022200002100047600047600002400001602021
001074120110   5005012461223   04400  4001036GRAND CANYON COLLEGE     001074001000500    00015200006000011600004600037400037400005300003502021
001074120110   5005012461223   04400  4001036GRAND CANYON COLLEGE     001074001000600    00035900008600033800006700085000085000007700005102051
001074120110   5005012461223   04400  4001036GRAND CANYON COLLEGE     00107400100061*    00035900008600033800006700085000085000007700005102021
001074120110   5005012461223   04400  4001036GRAND CANYON COLLEGE     001074001000700    00000900008800000200008700018600018600008600005802041
001074120110   5005012461223   04400  4001036GRAND CANYON COLLEGE     001074001001000    00036800017400034000015400103600103600016300010902021
001074120110   5005012461223   04400  4001036GRAND CANYON COLLEGE     00107400100101*    00036800017400034000015400103600103600016300010902021
001076120140A02E004512461133   03100  6009794GLENDALE CMTY COLLEGE    001076001000100    00063600082200038300071800255900255900053800051302021
001076120140A02E004512461133   03100  6009794GLENDALE CMTY COLLEGE    001076001000200    00020100030400007200020100077800077800017600016802021
001076120140A02E004512461133   03100  6009794GLENDALE CMTY COLLEGE    00107600100021*    00083700112600045500091900333700333700071400068102021
001076120140A02E004512461133   03100  6009794GLENDALE CMTY COLLEGE    001076001000300    00145000257500087200204300694000694000161600153902021
001076120140A02E004512461133   03100  6009794GLENDALE CMTY COLLEGE    001076001000400    00058700102000021300058800240800240800056300053602021
001076120140A02E004512461133   03100  6009794GLENDALE CMTY COLLEGE    001076001000600    00203700359500108500263100934800934800217900207502021
001076120140A02E004512461133   03100  6009794GLENDALE CMTY COLLEGE    00107600100061*    00203700359500108500263100934800934800217900207502021
001076120140A02E004512461133   03100  6009794GLENDALE CMTY COLLEGE    001076001000700    00001100023900000400019200044600044600015100014402021
001076120140A02E004512461133   03100  6009794GLENDALE CMTY COLLEGE    001076001001000    00204800383400108900282300979400979400233000221902021
001076120140A02E004512461133   03100  6009794GLENDALE CMTY COLLEGE    00107600100101*    00204800383400108900282300979400979400233000221902021
001077120160A04E005512461133   03100  6009172MESA COMMUNITY COLLEGE   001077001000100    00119500058600083200069200330500330500055000042602021
001077120160A04E005512461133   03100  6009172MESA COMMUNITY COLLEGE   001077001000200    00029900014600020800017300082600082600013700010602021
001077120160A04E005512461133   03100  6009172MESA COMMUNITY COLLEGE   00107700100021*    00149400073200104000086500413100413100068700053202021
001077120160A04E005512461133   03100  6009172MESA COMMUNITY COLLEGE   001077001000300    00181800220000102100197000700900700900179300139002021
001077120160A04E005512461133   03100  6009172MESA COMMUNITY COLLEGE   001077001000400    00037700057500038900071100205200205200055300042902021
001077120160A04E005512461133   03100  6009172MESA COMMUNITY COLLEGE   001077001000600    00219500277500141000268100906100906100234600181902021
001077120160A04E005512461133   03100  6009172MESA COMMUNITY COLLEGE   00107700100061*    00219500277500141000268100906100906100234600181902021
001077120160A04E005512461133   03100  6009172MESA COMMUNITY COLLEGE   001077001000700    00000800002600000700007000011100011100004100003202021
001077120160A04E005512461133   03100  6009172MESA COMMUNITY COLLEGE   001077001001000    00220300280100141700275100917200917200238700185102021
001077120160A04E005512461133   03100  6009172MESA COMMUNITY COLLEGE   00107700100101*    00220300280100141700275100917200917200238700185102021
001078120170A05E006012461133   03100  7011914PHOENIX COLLEGE          001078001000100    00105300230400072100258000665800665800282300162802041
001078120170A05E006012461133   03100  7011914PHOENIX COLLEGE          001078001000200    00033400076500022700073600206200206200087400050002041
001078120170A05E006012461133   03100  7011914PHOENIX COLLEGE          00107800100021*    00138700306900094800331600872000872000369700212802041
001078120170A05E006012461133   03100  7011914PHOENIX COLLEGE          001078001000300    00154600312100099000327700893400893400378800213302041
001078120170A05E006012461133   03100  7011914PHOENIX COLLEGE          001078001000400    00054800112000035700095500298000298000126300069202041
001078120170A05E006012461133   03100  7011914PHOENIX COLLEGE          001078001000600    00209400424100134700423201191401191400505100282402041
001078120170A05E006012461133   03100  7011914PHOENIX COLLEGE          00107800100061*    00209400424100134700423201191401191400505100282502041
001078120170A05E006012461133   03100  7011914PHOENIX COLLEGE          001078001001000    00209400424100134700423201191401191400505100282402041
001078120170A05E006012461133   03100  7011914PHOENIX COLLEGE          00107800100101*    00209400424100134700423201191401191400505100282502041
001079120260   5008012461133   03100  5003920YAVAPAI COLLEGE          001079001000100    00026700005900019000003800055400055400000000003202041
001079120260   5008012461133   03100  5003920YAVAPAI COLLEGE          00107900100021*    00026700005900019000003800055400055400000000003202041
001079120260   5008012461133   03100  5003920YAVAPAI COLLEGE          001079001000300    00047500005900035100003800092300092300000000003202041
001079120260   5008012461133   03100  5003920YAVAPAI COLLEGE          001079001000600    00047500005900035100003800092300092300000000003202021
001079120260   5008012461133   03100  5003920YAVAPAI COLLEGE          00107900100061*    00047500005900035100003800092300092300000000003202041
001079120260   5008012461133   03100  5003920YAVAPAI COLLEGE          001079001000700    00000000115400000000184300299700299700085200099902021
001079120260   5008012461133   03100  5003920YAVAPAI COLLEGE          001079001001000    00047500121300035100188100392000392000085200103102021
001079120260   5008012461133   03100  5003920YAVAPAI COLLEGE          00107900100101*    00047500121300035100188100392000392000085200103102041
001081120030   5003012461113   08100  8031021ARIZONA STATE UNIVERSITY 001081001000100    00277800000000263400000000541200541200000000000002021
001081120030   5003012461113   08100  8031021ARIZONA STATE UNIVERSITY 00108100100021*    00277800000000263400000000541200541200000000000002021
001081120030   5003012461113   08100  8031021ARIZONA STATE UNIVERSITY 001081001000300    00580800000000510800000001091601091600000000000002021
001081120030   5003012461113   08100  8031021ARIZONA STATE UNIVERSITY 001081001000500    00699800000000468400000001168201168200000000000002021
001081120030   5003012461113   08100  8031021ARIZONA STATE UNIVERSITY 001081001000600    01280600000000979200000002259802259800000000000002021
001081120030   5003012461113   08100  8031021ARIZONA STATE UNIVERSITY 00108100100061*    01280600000000979200000002259802259800000000000002021
001081120030   5003012461113   08100  8031021ARIZONA STATE UNIVERSITY 001081001000800    00029000000000009100000000038100038100000000000002021
001081120030   5003012461113   08100  8031021ARIZONA STATE UNIVERSITY 001081001000900    00448800000000355400000000804200804200000000000002021
001081120030   5003012461113   08100  8031021ARIZONA STATE UNIVERSITY 001081001001000    01758400000001343700000003102103102100000000000002021
001081120030   5003012461113   08100  8031021ARIZONA STATE UNIVERSITY 00108100100101*    01758400000001343700000003102103102100000000000002021
001082120200   5002012461123   08100  7010165NORTHERN ARIZ UNIVERSITY 001082001000100    00080400002100081600004700168800168800001700002302021
001082120200   5002012461123   08100  7010165NORTHERN ARIZ UNIVERSITY 00108200100021*    00080400002100081600004700168800168800001700002302021
001082120200   5002012461123   08100  7010165NORTHERN ARIZ UNIVERSITY 001082001000300    00238400021000214700025800499900499900011500015602021
001082120200   5002012461123   08100  7010165NORTHERN ARIZ UNIVERSITY 001082001000500    00179300013400135800013600342100342100006700009002021
001082120200   5002012461123   08100  7010165NORTHERN ARIZ UNIVERSITY 001082001000600    00417700034400350500039400842000842000018200024602021
001082120200   5002012461123   08100  7010165NORTHERN ARIZ UNIVERSITY 00108200100061*    00417700034400350500039400842000842000018200024602021
001082120200   5002012461123   08100  7010165NORTHERN ARIZ UNIVERSITY 001082001000700    00009600009800006500007400033300033300004200005702021
001082120200   5002012461123   08100  7010165NORTHERN ARIZ UNIVERSITY 001082001000900    00027800042100023300048000141200141200022200030002021
001082120200   5002012461123   08100  7010165NORTHERN ARIZ UNIVERSITY 001082001001000    00455100086300380300094801016501016500044600060402021
001082120200   5002012461123   08100  7010165NORTHERN ARIZ UNIVERSITY 00108200100101*    00455100086300380300094801016501016500044600060302021
001083120250   5007012461113   08100  8029241UNIVERSITY OF ARIZONA    001083001000100    00194000009300199400015300418000418000012000008202021
001083120250   5007012461113   08100  8029241UNIVERSITY OF ARIZONA    00108300100021*    00194000009300199400015300418000418000012000008202021
001083120250   5007012461113   08100  8029241UNIVERSITY OF ARIZONA    001083001000300    00443100042200400500052900938700938700045100031702021
001083120250   5007012461113   08100  8029241UNIVERSITY OF ARIZONA    001083001000500    00453000085300334300071300943900943900068000052202021
001083120250   5007012461113   08100  8029241UNIVERSITY OF ARIZONA    001083001000600    00896100127500734800124201882601882600113100083902021
001083120250   5007012461113   08100  8029241UNIVERSITY OF ARIZONA    00108300100061*    00896100127500734800124201882601882600113100083902021
001083120250   5007012461113   08100  8029241UNIVERSITY OF ARIZONA    001083001000700    00017900103400018600097500237400237400055100067002021
001083120250   5007012461113   08100  8029241UNIVERSITY OF ARIZONA    001083001000800    00052100000500016700000400069700069700000400000302021
001083120250   5007012461113   08100  8029241UNIVERSITY OF ARIZONA    001083001000900    00207000222700096000208700734400734400208100143802021
001083120250   5007012461113   08100  8029241UNIVERSITY OF ARIZONA    001083001001000    01173100454100866100430802924102924100376700295002021
001083120250   5007012461113   08100  8029241UNIVERSITY OF ARIZONA    00108300100101*    01173100454100866100430802924102924100376700295002021
001085130290C047002013351143   04100  4001563U OF ARKANSAS-MONTICELLO 001085001000100    00019600000300015200000900036000036000000800000402021
001085130290C047002013351143   04100  4001563U OF ARKANSAS-MONTICELLO 00108500100021*    00019600000300015200000900036000036000000800000402021
001085130290C047002013351143   04100  4001563U OF ARKANSAS-MONTICELLO 001085001000300    00046900001100035900002900086800086800001800001302021
001085130290C047002013351143   04100  4001563U OF ARKANSAS-MONTICELLO 001085001000500    00039400002800024200003100069500069500001800002002021
001085130290C047002013351143   04100  4001563U OF ARKANSAS-MONTICELLO 001085001000600    00086300003900060100006000156300156300003600003302021
001085130290C047002013351143   04100  4001563U OF ARKANSAS-MONTICELLO 00108500100061*    00086300003900060100006000156300156300003600003302021
001085130290C047002013351143   04100  4001563U OF ARKANSAS-MONTICELLO 001085001001000    00086300003900060100006000156300156300003600003302021
001085130290C047002013351143   04100  4001563U OF ARKANSAS-MONTICELLO 00108500100101*    00086300003900060100006000156300156300003600003302021
001086130300C057001013351143   04100  4002241U OF ARKANSAS PINE BLUFF 001086001000100    00021100001100026200001000049400049400000000000702041
001086130300C057001013351143   04100  4002241U OF ARKANSAS PINE BLUFF 001086001000200    00002700000800000200000000003700003700000000000302021
001086130300C057001013351143   04100  4002241U OF ARKANSAS PINE BLUFF 00108600100021*    00023800001900026400001000053100053100000000001002041
001086130300C057001013351143   04100  4002241U OF ARKANSAS PINE BLUFF 001086001000300    00058700003200067400004300133600133600000000002502041
001086130300C057001013351143   04100  4002241U OF ARKANSAS PINE BLUFF 001086001000400    00011900008600001700000300022500022500000000003002021
001086130300C057001013351143   04100  4002241U OF ARKANSAS PINE BLUFF 001086001000500    00028700000800032200001000062700062700000000000602041
001086130300C057001013351143   04100  4002241U OF ARKANSAS PINE BLUFF 001086001000600    00099300012600101300005600218800218800000000006102041
001086130300C057001013351143   04100  4002241U OF ARKANSAS PINE BLUFF 00108600100061*    00099300012600101300005600218800218800000000006102041
001086130300C057001013351143   04100  4002241U OF ARKANSAS PINE BLUFF 001086001000700    00000700001500000500002600005300005300000000001402041
001086130300C057001013351143   04100  4002241U OF ARKANSAS PINE BLUFF 001086001001000    00100000014100101800008200224100224100000000007402041
001086130300C057001013351143   04100  4002241U OF ARKANSAS PINE BLUFF 00108600100101*    00100000014100101800008200224100224100000000007502041
001087130010   5002513351223   04100  3000554ARKANSAS BAPTIST COLLEGE 001087001000100    00011700000000005000000000016700016700000000000002021
001087130010   5002513351223   04100  3000554ARKANSAS BAPTIST COLLEGE 00108700100021*    00011700000000005000000000016700016700000000000002021
001087130010   5002513351223   04100  3000554ARKANSAS BAPTIST COLLEGE 001087001000300    00025200000000007200000000032400032400000000000002021
001087130010   5002513351223   04100  3000554ARKANSAS BAPTIST COLLEGE 001087001000500    00015800000000004600000000020400020400000000000002021
001087130010   5002513351223   04100  3000554ARKANSAS BAPTIST COLLEGE 001087001000600    00041000000000011800000000052800052800000000000002041
001087130010   5002513351223   04100  3000554ARKANSAS BAPTIST COLLEGE 00108700100061*    00041000000000011800000000052800052800000000000002021
001087130010   5002513351223   04100  3000554ARKANSAS BAPTIST COLLEGE 001087001000700    00002300000000000300000000002600002600000000000002041
001087130010   5002513351223   04100  3000554ARKANSAS BAPTIST COLLEGE 001087001001000    00043300000000012100000000055400055400000000000002021
001087130010   5002513351223   04100  3000554ARKANSAS BAPTIST COLLEGE 00108700100101*    00043300000000012100000000055400055400000000000002021
001088130020   5003013351223   04500  2000477ARKANSAS COLLEGE         001088001000100    00006500000100006600000600013800013800000300000201011
001088130020   5003013351223   04500  2000477ARKANSAS COLLEGE         00108800100021*    00006500000100006600000600013800013800000300000201011
001088130020   5003013351223   04500  2000477ARKANSAS COLLEGE         001088001000300    00013800000100013300000400027600027600000200000201011
001088130020   5003013351223   04500  2000477ARKANSAS COLLEGE         001088001000500    00009800000600007000000400017800017800000700000301011
001088130020   5003013351223   04500  2000477ARKANSAS COLLEGE         001088001000600    00023600000700020300000800045400045400000900000501011
001088130020   5003013351223   04500  2000477ARKANSAS COLLEGE         00108800100061*    00023600000700020300000800045400045400000900000501011
001088130020   5003013351223   04500  2000477ARKANSAS COLLEGE         001088001000700    00000100000000000300001900002300002300000800000601011
001088130020   5003013351223   04500  2000477ARKANSAS COLLEGE         001088001001000    00023700000700020600002700047700047700001700001101011
001088130020   5003013351223   04500  2000477ARKANSAS COLLEGE         00108800100101*    00023700000700020600002700047700047700001700001101011
001089130030   5004013351123   04100  4002142ARKANSAS POLY COLLEGE    001089001000100    00031600001400018000004200055200055200001400001902021
001089130030   5004013351123   04100  4002142ARKANSAS POLY COLLEGE    00108900100021*    00031600001400018000004200055200055200001400001902021
001089130030   5004013351123   04100  4002142ARKANSAS POLY COLLEGE    001089001000300    00064600004900035200011300116000116000004700005402021
001089130030   5004013351123   04100  4002142ARKANSAS POLY COLLEGE    001089001000500    00055700007700027700007100098200098200004600004902021
001089130030   5004013351123   04100  4002142ARKANSAS POLY COLLEGE    001089001000600    00120300012600062900018400214200214200009300010302021
001089130030   5004013351123   04100  4002142ARKANSAS POLY COLLEGE    00108900100061*    00120300012600062900018400214200214200009300010302021
001089130030   5004013351123   04100  4002142ARKANSAS POLY COLLEGE    001089001001000    00120300012600062900018400214200214200009300010302021
001089130030   5004013351123   04100  4002142ARKANSAS POLY COLLEGE    00108900100101*    00120300012600062900018400214200214200009300010302021
001090130060A016005013351123   07100  6006687ARKANSAS STATE U MAIN CAM001090001000100    00068600003500051100010500133700133700004700004702021
001090130060A016005013351123   07100  6006687ARKANSAS STATE U MAIN CAM001090001000200    00000000000000009000000400009400009400000100000102021
001090130060A016005013351123   07100  6006687ARKANSAS STATE U MAIN CAM00109000100021*    00068600003500060100010900143100143100004800004802021
001090130060A016005013351123   07100  6006687ARKANSAS STATE U MAIN CAM001090001000300    00166700012100114500022400315700315700011500011502021
001090130060A016005013351123   07100  6006687ARKANSAS STATE U MAIN CAM001090001000400    00002000000300026800002800031900031900001000001002021
001090130060A016005013351123   07100  6006687ARKANSAS STATE U MAIN CAM001090001000500    00117000013100084300009700224100224100007600007602021
001090130060A016005013351123   07100  6006687ARKANSAS STATE U MAIN CAM001090001000600    00285700025500225600034900571700571700020100020102021
001090130060A016005013351123   07100  6006687ARKANSAS STATE U MAIN CAM00109000100061*    00285700025500225600034900571700571700020100020102021
001090130060A016005013351123   07100  6006687ARKANSAS STATE U MAIN CAM001090001000700    00002000009200001400012200024800024800007100007102021
001090130060A016005013351123   07100  6006687ARKANSAS STATE U MAIN CAM001090001000900    00008700024500006200032800072200072200019100019102021
001090130060A016005013351123   07100  6006687ARKANSAS STATE U MAIN CAM001090001001000    00296400059200233200079900668700668700046300046402021
001090130060A016005013351123   07100  6006687ARKANSAS STATE U MAIN CAM00109000100101*    00296400059200233200079900668700668700046300046302021
001091130070A027900013351163   03100  3000652ARKANSAS STATE U BEEBE BR001091001000100    00017400001400010600003000032400032400001800001501011
001091130070A027900013351163   03100  3000652ARKANSAS STATE U BEEBE BR00109100100021*    00017400001400010600003000032400032400001800001501011
001091130070A027900013351163   03100  3000652ARKANSAS STATE U BEEBE BR001091001000300    00023400002400014400003900044100044100002800002101011
001091130070A027900013351163   03100  3000652ARKANSAS STATE U BEEBE BR001091001000600    00023400002400014400003900044100044100002800002101011
001091130070A027900013351163   03100  3000652ARKANSAS STATE U BEEBE BR00109100100061*    00023400002400014400003900044100044100002800002101011
001091130070A027900013351163   03100  3000652ARKANSAS STATE U BEEBE BR001091001000700    00000200019500000600000800021100021100012100006801011
001091130070A027900013351163   03100  3000652ARKANSAS STATE U BEEBE BR001091001001000    00023600021900015000004700065200065200014900008901041
001091130070A027900013351163   03100  3000652ARKANSAS STATE U BEEBE BR00109100100101*    00023600021900015000004700065200065200014900008901011
001092130230   5006013351123   06100  5004838STATE COLLEGE OF ARKANSAS001092001000100    00042000004900058200005100110200110200003600003301011
001092130230   5006013351123   06100  5004838STATE COLLEGE OF ARKANSAS00109200100021*    00042000004900058200005100110200110200003600003301011
001092130230   5006013351123   06100  5004838STATE COLLEGE OF ARKANSAS001092001000300    00105300015400138800011100270600270600010200008801011
001092130230   5006013351123   06100  5004838STATE COLLEGE OF ARKANSAS001092001000500    00064900009200074400007100155600155600006100005401011
001092130230   5006013351123   06100  5004838STATE COLLEGE OF ARKANSAS001092001000600    00170200024600213200018200426200426200016300014301011
001092130230   5006013351123   06100  5004838STATE COLLEGE OF ARKANSAS00109200100061*    00170200024600213200018200426200426200016300014201011
001092130230   5006013351123   06100  5004838STATE COLLEGE OF ARKANSAS001092001000900    00008100014400011700023400057600057600019400012601011
